{
  "contractName": "BatteryToken",
  "abi": [
    {
      "constant": false,
      "inputs": [
        {
          "name": "spender",
          "type": "address"
        },
        {
          "name": "value",
          "type": "uint256"
        }
      ],
      "name": "approve",
      "outputs": [
        {
          "name": "",
          "type": "bool"
        }
      ],
      "payable": false,
      "stateMutability": "nonpayable",
      "type": "function"
    },
    {
      "constant": true,
      "inputs": [],
      "name": "totalSupply",
      "outputs": [
        {
          "name": "",
          "type": "uint256"
        }
      ],
      "payable": false,
      "stateMutability": "view",
      "type": "function"
    },
    {
      "constant": false,
      "inputs": [
        {
          "name": "from",
          "type": "address"
        },
        {
          "name": "to",
          "type": "address"
        },
        {
          "name": "value",
          "type": "uint256"
        }
      ],
      "name": "transferFrom",
      "outputs": [
        {
          "name": "",
          "type": "bool"
        }
      ],
      "payable": false,
      "stateMutability": "nonpayable",
      "type": "function"
    },
    {
      "constant": false,
      "inputs": [
        {
          "name": "spender",
          "type": "address"
        },
        {
          "name": "addedValue",
          "type": "uint256"
        }
      ],
      "name": "increaseAllowance",
      "outputs": [
        {
          "name": "",
          "type": "bool"
        }
      ],
      "payable": false,
      "stateMutability": "nonpayable",
      "type": "function"
    },
    {
      "constant": false,
      "inputs": [],
      "name": "kill",
      "outputs": [],
      "payable": false,
      "stateMutability": "nonpayable",
      "type": "function"
    },
    {
      "constant": true,
      "inputs": [
        {
          "name": "owner",
          "type": "address"
        }
      ],
      "name": "balanceOf",
      "outputs": [
        {
          "name": "",
          "type": "uint256"
        }
      ],
      "payable": false,
      "stateMutability": "view",
      "type": "function"
    },
    {
      "constant": true,
      "inputs": [],
      "name": "owner",
      "outputs": [
        {
          "name": "",
          "type": "address"
        }
      ],
      "payable": false,
      "stateMutability": "view",
      "type": "function"
    },
    {
      "constant": false,
      "inputs": [
        {
          "name": "spender",
          "type": "address"
        },
        {
          "name": "subtractedValue",
          "type": "uint256"
        }
      ],
      "name": "decreaseAllowance",
      "outputs": [
        {
          "name": "",
          "type": "bool"
        }
      ],
      "payable": false,
      "stateMutability": "nonpayable",
      "type": "function"
    },
    {
      "constant": false,
      "inputs": [
        {
          "name": "to",
          "type": "address"
        },
        {
          "name": "value",
          "type": "uint256"
        }
      ],
      "name": "transfer",
      "outputs": [
        {
          "name": "",
          "type": "bool"
        }
      ],
      "payable": false,
      "stateMutability": "nonpayable",
      "type": "function"
    },
    {
      "constant": true,
      "inputs": [],
      "name": "globalId",
      "outputs": [
        {
          "name": "",
          "type": "uint256"
        }
      ],
      "payable": false,
      "stateMutability": "view",
      "type": "function"
    },
    {
      "constant": true,
      "inputs": [],
      "name": "timeRef",
      "outputs": [
        {
          "name": "",
          "type": "uint256"
        }
      ],
      "payable": false,
      "stateMutability": "view",
      "type": "function"
    },
    {
      "constant": true,
      "inputs": [
        {
          "name": "owner",
          "type": "address"
        },
        {
          "name": "spender",
          "type": "address"
        }
      ],
      "name": "allowance",
      "outputs": [
        {
          "name": "",
          "type": "uint256"
        }
      ],
      "payable": false,
      "stateMutability": "view",
      "type": "function"
    },
    {
      "constant": false,
      "inputs": [
        {
          "name": "newOwner",
          "type": "address"
        }
      ],
      "name": "transferOwnership",
      "outputs": [],
      "payable": false,
      "stateMutability": "nonpayable",
      "type": "function"
    },
    {
      "inputs": [],
      "payable": false,
      "stateMutability": "nonpayable",
      "type": "constructor"
    },
    {
      "anonymous": false,
      "inputs": [
        {
          "indexed": false,
          "name": "own",
          "type": "address"
        },
        {
          "indexed": false,
          "name": "id",
          "type": "uint256"
        },
        {
          "indexed": false,
          "name": "domain",
          "type": "bool"
        },
        {
          "indexed": false,
          "name": "time",
          "type": "uint256"
        }
      ],
      "name": "MintBat",
      "type": "event"
    },
    {
      "anonymous": false,
      "inputs": [
        {
          "indexed": false,
          "name": "own",
          "type": "address"
        },
        {
          "indexed": false,
          "name": "id",
          "type": "uint256"
        }
      ],
      "name": "BurnBat",
      "type": "event"
    },
    {
      "anonymous": false,
      "inputs": [
        {
          "indexed": false,
          "name": "proposalId",
          "type": "bytes32"
        },
        {
          "indexed": false,
          "name": "emiter",
          "type": "address"
        },
        {
          "indexed": false,
          "name": "executer",
          "type": "address"
        },
        {
          "indexed": false,
          "name": "itemEmiter",
          "type": "uint256"
        },
        {
          "indexed": false,
          "name": "itemExecuter",
          "type": "uint256"
        }
      ],
      "name": "Proposal",
      "type": "event"
    },
    {
      "anonymous": false,
      "inputs": [
        {
          "indexed": false,
          "name": "emiter",
          "type": "address"
        },
        {
          "indexed": false,
          "name": "executer",
          "type": "address"
        },
        {
          "indexed": false,
          "name": "itemEmiter",
          "type": "uint256"
        },
        {
          "indexed": false,
          "name": "itemExecuter",
          "type": "uint256"
        }
      ],
      "name": "Execution",
      "type": "event"
    },
    {
      "anonymous": false,
      "inputs": [
        {
          "indexed": false,
          "name": "proposalId",
          "type": "bytes32"
        }
      ],
      "name": "Cancellation",
      "type": "event"
    },
    {
      "anonymous": false,
      "inputs": [
        {
          "indexed": true,
          "name": "from",
          "type": "address"
        },
        {
          "indexed": true,
          "name": "to",
          "type": "address"
        },
        {
          "indexed": false,
          "name": "value",
          "type": "uint256"
        }
      ],
      "name": "Transfer",
      "type": "event"
    },
    {
      "anonymous": false,
      "inputs": [
        {
          "indexed": true,
          "name": "owner",
          "type": "address"
        },
        {
          "indexed": true,
          "name": "spender",
          "type": "address"
        },
        {
          "indexed": false,
          "name": "value",
          "type": "uint256"
        }
      ],
      "name": "Approval",
      "type": "event"
    },
    {
      "constant": true,
      "inputs": [
        {
          "name": "who",
          "type": "address"
        }
      ],
      "name": "batteriesOfOwner",
      "outputs": [
        {
          "name": "",
          "type": "uint256[]"
        }
      ],
      "payable": false,
      "stateMutability": "view",
      "type": "function"
    },
    {
      "constant": true,
      "inputs": [
        {
          "name": "id",
          "type": "uint256"
        }
      ],
      "name": "ownerOf",
      "outputs": [
        {
          "name": "",
          "type": "address"
        }
      ],
      "payable": false,
      "stateMutability": "view",
      "type": "function"
    },
    {
      "constant": true,
      "inputs": [
        {
          "name": "id",
          "type": "uint256"
        }
      ],
      "name": "getBattery",
      "outputs": [
        {
          "name": "",
          "type": "bool"
        },
        {
          "name": "",
          "type": "uint256"
        },
        {
          "name": "",
          "type": "uint256"
        },
        {
          "name": "",
          "type": "address"
        }
      ],
      "payable": false,
      "stateMutability": "view",
      "type": "function"
    },
    {
      "constant": false,
      "inputs": [
        {
          "name": "domain",
          "type": "bool"
        },
        {
          "name": "value",
          "type": "uint256"
        }
      ],
      "name": "mintBat",
      "outputs": [
        {
          "name": "",
          "type": "uint256"
        }
      ],
      "payable": false,
      "stateMutability": "nonpayable",
      "type": "function"
    },
    {
      "constant": false,
      "inputs": [
        {
          "name": "id",
          "type": "uint256"
        }
      ],
      "name": "burnBat",
      "outputs": [],
      "payable": false,
      "stateMutability": "nonpayable",
      "type": "function"
    },
    {
      "constant": false,
      "inputs": [
        {
          "name": "itemProposer",
          "type": "uint256"
        },
        {
          "name": "itemExecuter",
          "type": "uint256"
        },
        {
          "name": "proposerChargeLevel",
          "type": "uint256"
        },
        {
          "name": "executerChargeLevel",
          "type": "uint256"
        },
        {
          "name": "executer",
          "type": "address"
        }
      ],
      "name": "proposeExchange",
      "outputs": [
        {
          "name": "",
          "type": "bytes32"
        }
      ],
      "payable": false,
      "stateMutability": "nonpayable",
      "type": "function"
    },
    {
      "constant": false,
      "inputs": [
        {
          "name": "exchangeId",
          "type": "bytes32"
        }
      ],
      "name": "executeExchange",
      "outputs": [],
      "payable": false,
      "stateMutability": "nonpayable",
      "type": "function"
    },
    {
      "constant": false,
      "inputs": [
        {
          "name": "exchangeId",
          "type": "bytes32"
        }
      ],
      "name": "cancelProposal",
      "outputs": [],
      "payable": false,
      "stateMutability": "nonpayable",
      "type": "function"
    },
    {
      "constant": true,
      "inputs": [
        {
          "name": "itemId",
          "type": "uint256"
        },
        {
          "name": "itemChargeLevel",
          "type": "uint256"
        }
      ],
      "name": "getBatValue",
      "outputs": [
        {
          "name": "",
          "type": "uint256"
        }
      ],
      "payable": false,
      "stateMutability": "view",
      "type": "function"
    },
    {
      "constant": false,
      "inputs": [
        {
          "name": "amount",
          "type": "uint256"
        }
      ],
      "name": "mintERC20",
      "outputs": [
        {
          "name": "",
          "type": "bool"
        }
      ],
      "payable": false,
      "stateMutability": "nonpayable",
      "type": "function"
    }
  ],
  "bytecode": "0x608060405234801561001057600080fd5b5033600360006101000a81548173ffffffffffffffffffffffffffffffffffffffff021916908373ffffffffffffffffffffffffffffffffffffffff16021790555033600460006101000a81548173ffffffffffffffffffffffffffffffffffffffff021916908373ffffffffffffffffffffffffffffffffffffffff16021790555033600560006101000a81548173ffffffffffffffffffffffffffffffffffffffff021916908373ffffffffffffffffffffffffffffffffffffffff16021790555042600681905550600060086000600754815260200190815260200160002060006101000a81548173ffffffffffffffffffffffffffffffffffffffff021916908373ffffffffffffffffffffffffffffffffffffffff160217905550600060096000600754815260200190815260200160002060010160006101000a81548160ff0219169083151502179055504260096000600754815260200190815260200160002060020181905550600060096000600754815260200190815260200160002060000181905550600a60008073ffffffffffffffffffffffffffffffffffffffff1673ffffffffffffffffffffffffffffffffffffffff16815260200190815260200160002060075490806001815401808255809150509060018203906000526020600020016000909192909190915055600b600060075481526020019081526020016000208190555061358a8061022e6000396000f300608060405260043610610133576000357c0100000000000000000000000000000000000000000000000000000000900463ffffffff168063095ea7b31461013857806318160ddd1461019d57806323b872dd146101c857806335dcc4a41461024d57806337376ca81461029257806339509351146102c357806341c0e1b5146103285780636352211e1461033f57806370a08231146103ac57806372850a9b14610403578063807e7c041461048a5780638da5cb5b146105105780639c09668414610567578063a457c2d714610594578063a9059cbb146105f9578063b7ba93991461065e578063b859f726146106ab578063ca666823146106f6578063cb3c3c0b14610721578063dd62ed3e1461074c578063e293f616146107c3578063f0f899361461085b578063f2fde38b1461088c575b600080fd5b34801561014457600080fd5b50610183600480360381019080803573ffffffffffffffffffffffffffffffffffffffff169060200190929190803590602001909291905050506108cf565b604051808215151515815260200191505060405180910390f35b3480156101a957600080fd5b506101b26109fc565b6040518082815260200191505060405180910390f35b3480156101d457600080fd5b50610233600480360381019080803573ffffffffffffffffffffffffffffffffffffffff169060200190929190803573ffffffffffffffffffffffffffffffffffffffff16906020019092919080359060200190929190505050610a06565b604051808215151515815260200191505060405180910390f35b34801561025957600080fd5b5061027860048036038101908080359060200190929190505050610bb8565b604051808215151515815260200191505060405180910390f35b34801561029e57600080fd5b506102c16004803603810190808035600019169060200190929190505050610bcd565b005b3480156102cf57600080fd5b5061030e600480360381019080803573ffffffffffffffffffffffffffffffffffffffff16906020019092919080359060200190929190505050610f44565b604051808215151515815260200191505060405180910390f35b34801561033457600080fd5b5061033d61117b565b005b34801561034b57600080fd5b5061036a600480360381019080803590602001909291905050506111ec565b604051808273ffffffffffffffffffffffffffffffffffffffff1673ffffffffffffffffffffffffffffffffffffffff16815260200191505060405180910390f35b3480156103b857600080fd5b506103ed600480360381019080803573ffffffffffffffffffffffffffffffffffffffff169060200190929190505050611229565b6040518082815260200191505060405180910390f35b34801561040f57600080fd5b5061046c60048036038101908080359060200190929190803590602001909291908035906020019092919080359060200190929190803573ffffffffffffffffffffffffffffffffffffffff169060200190929190505050611271565b60405180826000191660001916815260200191505060405180910390f35b34801561049657600080fd5b506104b5600480360381019080803590602001909291905050506118a1565b60405180851515151581526020018481526020018381526020018273ffffffffffffffffffffffffffffffffffffffff1673ffffffffffffffffffffffffffffffffffffffff16815260200194505050505060405180910390f35b34801561051c57600080fd5b5061052561193f565b604051808273ffffffffffffffffffffffffffffffffffffffff1673ffffffffffffffffffffffffffffffffffffffff16815260200191505060405180910390f35b34801561057357600080fd5b5061059260048036038101908080359060200190929190505050611965565b005b3480156105a057600080fd5b506105df600480360381019080803573ffffffffffffffffffffffffffffffffffffffff16906020019092919080359060200190929190505050611b06565b604051808215151515815260200191505060405180910390f35b34801561060557600080fd5b50610644600480360381019080803573ffffffffffffffffffffffffffffffffffffffff16906020019092919080359060200190929190505050611d3d565b604051808215151515815260200191505060405180910390f35b34801561066a57600080fd5b5061069560048036038101908080351515906020019092919080359060200190929190505050611d54565b6040518082815260200191505060405180910390f35b3480156106b757600080fd5b506106e06004803603810190808035906020019092919080359060200190929190505050611fb1565b6040518082815260200191505060405180910390f35b34801561070257600080fd5b5061070b6121ac565b6040518082815260200191505060405180910390f35b34801561072d57600080fd5b506107366121b2565b6040518082815260200191505060405180910390f35b34801561075857600080fd5b506107ad600480360381019080803573ffffffffffffffffffffffffffffffffffffffff169060200190929190803573ffffffffffffffffffffffffffffffffffffffff1690602001909291905050506121b8565b6040518082815260200191505060405180910390f35b3480156107cf57600080fd5b50610804600480360381019080803573ffffffffffffffffffffffffffffffffffffffff16906020019092919050505061223f565b6040518080602001828103825283818151815260200191508051906020019060200280838360005b8381101561084757808201518184015260208101905061082c565b505050509050019250505060405180910390f35b34801561086757600080fd5b5061088a60048036038101908080356000191690602001909291905050506122d6565b005b34801561089857600080fd5b506108cd600480360381019080803573ffffffffffffffffffffffffffffffffffffffff169060200190929190505050612e88565b005b60008073ffffffffffffffffffffffffffffffffffffffff168373ffffffffffffffffffffffffffffffffffffffff161415151561090c57600080fd5b81600160003373ffffffffffffffffffffffffffffffffffffffff1673ffffffffffffffffffffffffffffffffffffffff16815260200190815260200160002060008573ffffffffffffffffffffffffffffffffffffffff1673ffffffffffffffffffffffffffffffffffffffff168152602001908152602001600020819055508273ffffffffffffffffffffffffffffffffffffffff163373ffffffffffffffffffffffffffffffffffffffff167f8c5be1e5ebec7d5bd14f71427d1e84f3dd0314c0f7b2291e5b200ac8c7c3b925846040518082815260200191505060405180910390a36001905092915050565b6000600254905090565b6000600160008573ffffffffffffffffffffffffffffffffffffffff1673ffffffffffffffffffffffffffffffffffffffff16815260200190815260200160002060003373ffffffffffffffffffffffffffffffffffffffff1673ffffffffffffffffffffffffffffffffffffffff168152602001908152602001600020548211151515610a9357600080fd5b610b2282600160008773ffffffffffffffffffffffffffffffffffffffff1673ffffffffffffffffffffffffffffffffffffffff16815260200190815260200160002060003373ffffffffffffffffffffffffffffffffffffffff1673ffffffffffffffffffffffffffffffffffffffff16815260200190815260200160002054612f2890919063ffffffff16565b600160008673ffffffffffffffffffffffffffffffffffffffff1673ffffffffffffffffffffffffffffffffffffffff16815260200190815260200160002060003373ffffffffffffffffffffffffffffffffffffffff1673ffffffffffffffffffffffffffffffffffffffff16815260200190815260200160002081905550610bad848484612f49565b600190509392505050565b6000610bc43383613162565b60019050919050565b600c6000826000191660001916815260200190815260200160002060070160009054906101000a900460ff161515610c6d576040517f08c379a000000000000000000000000000000000000000000000000000000000815260040180806020018281038252601f8152602001807f546869732065786368616e676520696420646f6573206e6f742065786973740081525060200191505060405180910390fd5b600c6000826000191660001916815260200190815260200160002060070160019054906101000a900460ff16151515610d0e576040517f08c379a00000000000000000000000000000000000000000000000000000000081526004018080602001828103825260108152602001807f416c72656164792065786563757465640000000000000000000000000000000081525060200191505060405180910390fd5b600c6000826000191660001916815260200190815260200160002060020160009054906101000a900473ffffffffffffffffffffffffffffffffffffffff1673ffffffffffffffffffffffffffffffffffffffff163373ffffffffffffffffffffffffffffffffffffffff16141515610def576040517f08c379a00000000000000000000000000000000000000000000000000000000081526004018080602001828103825260108152602001807f57726f6e67206d73672e73656e6465720000000000000000000000000000000081525060200191505060405180910390fd5b600c6000826000191660001916815260200190815260200160002060050154600c60008360001916600019168152602001908152602001600020600401541015610ecb57610ec9600c6000836000191660001916815260200190815260200160002060030160009054906101000a900473ffffffffffffffffffffffffffffffffffffffff16610ec4600c6000856000191660001916815260200190815260200160002060040154600c6000866000191660001916815260200190815260200160002060050154612f2890919063ffffffff16565b611b06565b505b6001600c6000836000191660001916815260200190815260200160002060070160026101000a81548160ff0219169083151502179055507fbca2885d81f38744d778177014656fadaf8db5de172de50e21d4ca0e1b8449958160405180826000191660001916815260200191505060405180910390a150565b60008073ffffffffffffffffffffffffffffffffffffffff168373ffffffffffffffffffffffffffffffffffffffff1614151515610f8157600080fd5b61101082600160003373ffffffffffffffffffffffffffffffffffffffff1673ffffffffffffffffffffffffffffffffffffffff16815260200190815260200160002060008673ffffffffffffffffffffffffffffffffffffffff1673ffffffffffffffffffffffffffffffffffffffff168152602001908152602001600020546132a090919063ffffffff16565b600160003373ffffffffffffffffffffffffffffffffffffffff1673ffffffffffffffffffffffffffffffffffffffff16815260200190815260200160002060008573ffffffffffffffffffffffffffffffffffffffff1673ffffffffffffffffffffffffffffffffffffffff168152602001908152602001600020819055508273ffffffffffffffffffffffffffffffffffffffff163373ffffffffffffffffffffffffffffffffffffffff167f8c5be1e5ebec7d5bd14f71427d1e84f3dd0314c0f7b2291e5b200ac8c7c3b925600160003373ffffffffffffffffffffffffffffffffffffffff1673ffffffffffffffffffffffffffffffffffffffff16815260200190815260200160002060008773ffffffffffffffffffffffffffffffffffffffff1673ffffffffffffffffffffffffffffffffffffffff168152602001908152602001600020546040518082815260200191505060405180910390a36001905092915050565b600460009054906101000a900473ffffffffffffffffffffffffffffffffffffffff1673ffffffffffffffffffffffffffffffffffffffff163373ffffffffffffffffffffffffffffffffffffffff1614156111ea573373ffffffffffffffffffffffffffffffffffffffff16ff5b565b60006008600083815260200190815260200160002060009054906101000a900473ffffffffffffffffffffffffffffffffffffffff169050919050565b60008060008373ffffffffffffffffffffffffffffffffffffffff1673ffffffffffffffffffffffffffffffffffffffff168152602001908152602001600020549050919050565b6000806008600088815260200190815260200160002060009054906101000a900473ffffffffffffffffffffffffffffffffffffffff1673ffffffffffffffffffffffffffffffffffffffff163373ffffffffffffffffffffffffffffffffffffffff16148061134257506009600088815260200190815260200160002060010160019054906101000a900473ffffffffffffffffffffffffffffffffffffffff1673ffffffffffffffffffffffffffffffffffffffff163373ffffffffffffffffffffffffffffffffffffffff16145b15156113b6576040517f08c379a00000000000000000000000000000000000000000000000000000000081526004018080602001828103825260108152602001807f57726f6e67206d73672e73656e6465720000000000000000000000000000000081525060200191505060405180910390fd5b4287873386604051602001808681526020018581526020018481526020018373ffffffffffffffffffffffffffffffffffffffff1673ffffffffffffffffffffffffffffffffffffffff166c010000000000000000000000000281526014018273ffffffffffffffffffffffffffffffffffffffff1673ffffffffffffffffffffffffffffffffffffffff166c01000000000000000000000000028152601401955050505050506040516020818303038152906040526040518082805190602001908083835b6020831015156114a1578051825260208201915060208101905060208303925061147c565b6001836020036101000a0380198251168184511680821785525050505050509050019150506040518091039020905086600c600083600019166000191681526020019081526020016000206000018190555033600c6000836000191660001916815260200190815260200160002060020160006101000a81548173ffffffffffffffffffffffffffffffffffffffff021916908373ffffffffffffffffffffffffffffffffffffffff16021790555082600c6000836000191660001916815260200190815260200160002060030160006101000a81548173ffffffffffffffffffffffffffffffffffffffff021916908373ffffffffffffffffffffffffffffffffffffffff1602179055506009600088815260200190815260200160002060010160009054906101000a900460ff16156116565785600c60008360001916600019168152602001908152602001600020600101819055506116038786611fb1565b600c600083600019166000191681526020019081526020016000206004018190555061162f8685611fb1565b600c60008360001916600019168152602001908152602001600020600501819055506116e4565b6116c160096000898152602001908152602001600020600001546116b361167e8a6064611fb1565b6116a560646116978b60076132c190919063ffffffff16565b6132ff90919063ffffffff16565b6132c190919063ffffffff16565b6132ff90919063ffffffff16565b600c60008360001916600019168152602001908152602001600020600401819055505b600c6000826000191660001916815260200190815260200160002060050154600c6000836000191660001916815260200190815260200160002060040154111515611783576117818361177c600c6000856000191660001916815260200190815260200160002060040154600c6000866000191660001916815260200190815260200160002060050154612f2890919063ffffffff16565b6108cf565b505b42600c60008360001916600019168152602001908152602001600020600601819055506001600c6000836000191660001916815260200190815260200160002060070160006101000a81548160ff0219169083151502179055507f5d23a63c0c310733b5582e295d2a2a6b53c335c58ac9d8224f0a319dc161d9998133858a8a6040518086600019166000191681526020018573ffffffffffffffffffffffffffffffffffffffff1673ffffffffffffffffffffffffffffffffffffffff1681526020018473ffffffffffffffffffffffffffffffffffffffff1673ffffffffffffffffffffffffffffffffffffffff1681526020018381526020018281526020019550505050505060405180910390a18091505095945050505050565b6000806000806009600086815260200190815260200160002060010160009054906101000a900460ff16600960008781526020019081526020016000206002015460096000888152602001908152602001600020600001546009600089815260200190815260200160002060010160019054906101000a900473ffffffffffffffffffffffffffffffffffffffff1693509350935093509193509193565b600560009054906101000a900473ffffffffffffffffffffffffffffffffffffffff1681565b6008600082815260200190815260200160002060009054906101000a900473ffffffffffffffffffffffffffffffffffffffff1673ffffffffffffffffffffffffffffffffffffffff163373ffffffffffffffffffffffffffffffffffffffff16141515611a3b576040517f08c379a00000000000000000000000000000000000000000000000000000000081526004018080602001828103825260178152602001807f4f6e6c7920746865206f776e65722063616e206275726e00000000000000000081525060200191505060405180910390fd5b60006008600083815260200190815260200160002060006101000a81548173ffffffffffffffffffffffffffffffffffffffff021916908373ffffffffffffffffffffffffffffffffffffffff160217905550611a988133613329565b7f237e464a2b45d5e0aba2ed4c81141d97ed69f8d97751294a3f2d3698f0647f093382604051808373ffffffffffffffffffffffffffffffffffffffff1673ffffffffffffffffffffffffffffffffffffffff1681526020018281526020019250505060405180910390a150565b60008073ffffffffffffffffffffffffffffffffffffffff168373ffffffffffffffffffffffffffffffffffffffff1614151515611b4357600080fd5b611bd282600160003373ffffffffffffffffffffffffffffffffffffffff1673ffffffffffffffffffffffffffffffffffffffff16815260200190815260200160002060008673ffffffffffffffffffffffffffffffffffffffff1673ffffffffffffffffffffffffffffffffffffffff16815260200190815260200160002054612f2890919063ffffffff16565b600160003373ffffffffffffffffffffffffffffffffffffffff1673ffffffffffffffffffffffffffffffffffffffff16815260200190815260200160002060008573ffffffffffffffffffffffffffffffffffffffff1673ffffffffffffffffffffffffffffffffffffffff168152602001908152602001600020819055508273ffffffffffffffffffffffffffffffffffffffff163373ffffffffffffffffffffffffffffffffffffffff167f8c5be1e5ebec7d5bd14f71427d1e84f3dd0314c0f7b2291e5b200ac8c7c3b925600160003373ffffffffffffffffffffffffffffffffffffffff1673ffffffffffffffffffffffffffffffffffffffff16815260200190815260200160002060008773ffffffffffffffffffffffffffffffffffffffff1673ffffffffffffffffffffffffffffffffffffffff168152602001908152602001600020546040518082815260200191505060405180910390a36001905092915050565b6000611d4a338484612f49565b6001905092915050565b6000611d6c60016007546132a090919063ffffffff16565b6007819055503360086000600754815260200190815260200160002060006101000a81548173ffffffffffffffffffffffffffffffffffffffff021916908373ffffffffffffffffffffffffffffffffffffffff1602179055508260096000600754815260200190815260200160002060010160006101000a81548160ff02191690831515021790555042600960006007548152602001908152602001600020600201819055508160096000600754815260200190815260200160002060000181905550600a60003373ffffffffffffffffffffffffffffffffffffffff1673ffffffffffffffffffffffffffffffffffffffff16815260200190815260200160002060075490806001815401808255809150509060018203906000526020600020016000909192909190915055600b60006007548152602001908152602001600020819055507f8ceed64cd2f26c60e408da38d3e5f24fea4d39240e9ed6f2f497d6174bdaf98360086000600754815260200190815260200160002060009054906101000a900473ffffffffffffffffffffffffffffffffffffffff1660075460096000600754815260200190815260200160002060010160009054906101000a900460ff1660096000600754815260200190815260200160002060020154604051808573ffffffffffffffffffffffffffffffffffffffff1673ffffffffffffffffffffffffffffffffffffffff1681526020018481526020018315151515815260200182815260200194505050505060405180910390a1600754905092915050565b600080600083101580611fc5575060648311155b1515612039576040517f08c379a00000000000000000000000000000000000000000000000000000000081526004018080602001828103825260108152602001807f42616420636861726765206c6576656c0000000000000000000000000000000081525060200191505060405180910390fd5b600084141561204b57600091506121a5565b61215e6120ff60096000878152602001908152602001600020600001546120f16120bc612097600960008b81526020019081526020016000206002015442612f2890919063ffffffff16565b600960008b815260200190815260200160002060000154612f2890919063ffffffff16565b6120e360646120d58a60076132c190919063ffffffff16565b6132ff90919063ffffffff16565b6132c190919063ffffffff16565b6132ff90919063ffffffff16565b61215061212b600960008981526020019081526020016000206002015442612f2890919063ffffffff16565b6009600089815260200190815260200160002060000154612f2890919063ffffffff16565b6132a090919063ffffffff16565b90506000811015806121995750612195600760096000878152602001908152602001600020600001546132a090919063ffffffff16565b8111155b15156121a157fe5b8091505b5092915050565b60075481565b60065481565b6000600160008473ffffffffffffffffffffffffffffffffffffffff1673ffffffffffffffffffffffffffffffffffffffff16815260200190815260200160002060008373ffffffffffffffffffffffffffffffffffffffff1673ffffffffffffffffffffffffffffffffffffffff16815260200190815260200160002054905092915050565b6060600a60008373ffffffffffffffffffffffffffffffffffffffff1673ffffffffffffffffffffffffffffffffffffffff1681526020019081526020016000208054806020026020016040519081016040528092919081815260200182805480156122ca57602002820191906000526020600020905b8154815260200190600101908083116122b6575b50505050509050919050565b600c6000826000191660001916815260200190815260200160002060070160009054906101000a900460ff161515612376576040517f08c379a000000000000000000000000000000000000000000000000000000000815260040180806020018281038252601f8152602001807f546869732065786368616e676520696420646f6573206e6f742065786973740081525060200191505060405180910390fd5b600c6000826000191660001916815260200190815260200160002060070160019054906101000a900460ff16151515612417576040517f08c379a00000000000000000000000000000000000000000000000000000000081526004018080602001828103825260108152602001807f416c72656164792065786563757465640000000000000000000000000000000081525060200191505060405180910390fd5b600c6000826000191660001916815260200190815260200160002060070160029054906101000a900460ff161515156124b8576040517f08c379a00000000000000000000000000000000000000000000000000000000081526004018080602001828103825260138152602001807f457865637574696f6e2063616e63656c6c65640000000000000000000000000081525060200191505060405180910390fd5b600c6000826000191660001916815260200190815260200160002060030160009054906101000a900473ffffffffffffffffffffffffffffffffffffffff1673ffffffffffffffffffffffffffffffffffffffff163373ffffffffffffffffffffffffffffffffffffffff16141515612599576040517f08c379a000000000000000000000000000000000000000000000000000000000815260040180806020018281038252601f8152602001807f6d73672e73656e646572206d757374206265207468652065786563757465720081525060200191505060405180910390fd5b6102586125cd600c600084600019166000191681526020019081526020016000206006015442612f2890919063ffffffff16565b101515612642576040517f08c379a00000000000000000000000000000000000000000000000000000000081526004018080602001828103825260158152602001807f50726f706f73616c2074696d652065787069726564000000000000000000000081525060200191505060405180910390fd5b600c6000826000191660001916815260200190815260200160002060050154600c60008360001916600019168152602001908152602001600020600401541015156127235761271d600c6000836000191660001916815260200190815260200160002060020160009054906101000a900473ffffffffffffffffffffffffffffffffffffffff16612718600c6000856000191660001916815260200190815260200160002060050154600c6000866000191660001916815260200190815260200160002060040154612f2890919063ffffffff16565b611d3d565b506127bc565b6127ba600c6000836000191660001916815260200190815260200160002060020160009054906101000a900473ffffffffffffffffffffffffffffffffffffffff16336127b5600c6000866000191660001916815260200190815260200160002060040154600c6000876000191660001916815260200190815260200160002060050154612f2890919063ffffffff16565b610a06565b505b60096000600c6000846000191660001916815260200190815260200160002060000154815260200190815260200160002060010160009054906101000a900460ff1615612bba576000600c60008360001916600019168152602001908152602001600020600001541415156129bd57612891600c6000836000191660001916815260200190815260200160002060000154600c6000846000191660001916815260200190815260200160002060020160009054906101000a900473ffffffffffffffffffffffffffffffffffffffff16613329565b3360086000600c6000856000191660001916815260200190815260200160002060000154815260200190815260200160002060006101000a81548173ffffffffffffffffffffffffffffffffffffffff021916908373ffffffffffffffffffffffffffffffffffffffff160217905550600a60003373ffffffffffffffffffffffffffffffffffffffff1673ffffffffffffffffffffffffffffffffffffffff168152602001908152602001600020600c600083600019166000191681526020019081526020016000206000015490806001815401808255809150509060018203906000526020600020016000909192909190915055600b6000600c60008560001916600019168152602001908152602001600020600001548152602001908152602001600020819055505b6000600c6000836000191660001916815260200190815260200160002060010154141515612bb557612a0d600c600083600019166000191681526020019081526020016000206001015433613329565b600c6000826000191660001916815260200190815260200160002060020160009054906101000a900473ffffffffffffffffffffffffffffffffffffffff1660086000600c6000856000191660001916815260200190815260200160002060010154815260200190815260200160002060006101000a81548173ffffffffffffffffffffffffffffffffffffffff021916908373ffffffffffffffffffffffffffffffffffffffff160217905550600a6000600c6000846000191660001916815260200190815260200160002060020160009054906101000a900473ffffffffffffffffffffffffffffffffffffffff1673ffffffffffffffffffffffffffffffffffffffff1673ffffffffffffffffffffffffffffffffffffffff168152602001908152602001600020600c600083600019166000191681526020019081526020016000206001015490806001815401808255809150509060018203906000526020600020016000909192909190915055600b6000600c60008560001916600019168152602001908152602001600020600101548152602001908152602001600020819055505b612d2d565b60086000600c6000846000191660001916815260200190815260200160002060000154815260200190815260200160002060009054906101000a900473ffffffffffffffffffffffffffffffffffffffff1673ffffffffffffffffffffffffffffffffffffffff163373ffffffffffffffffffffffffffffffffffffffff161415612cb857600060096000600c6000856000191660001916815260200190815260200160002060000154815260200190815260200160002060010160016101000a81548173ffffffffffffffffffffffffffffffffffffffff021916908373ffffffffffffffffffffffffffffffffffffffff160217905550612d2c565b3360096000600c6000856000191660001916815260200190815260200160002060000154815260200190815260200160002060010160016101000a81548173ffffffffffffffffffffffffffffffffffffffff021916908373ffffffffffffffffffffffffffffffffffffffff1602179055505b5b6001600c6000836000191660001916815260200190815260200160002060070160016101000a81548160ff0219169083151502179055507f9b6c128f1e881dcd7a32e1e3ef904667398297da9076873dac66d57ab2d6eea0600c6000836000191660001916815260200190815260200160002060020160009054906101000a900473ffffffffffffffffffffffffffffffffffffffff1633600c6000856000191660001916815260200190815260200160002060000154600c6000866000191660001916815260200190815260200160002060010154604051808573ffffffffffffffffffffffffffffffffffffffff1673ffffffffffffffffffffffffffffffffffffffff1681526020018473ffffffffffffffffffffffffffffffffffffffff1673ffffffffffffffffffffffffffffffffffffffff16815260200183815260200182815260200194505050505060405180910390a150565b600360009054906101000a900473ffffffffffffffffffffffffffffffffffffffff1673ffffffffffffffffffffffffffffffffffffffff163373ffffffffffffffffffffffffffffffffffffffff16141515612ee457600080fd5b80600360006101000a81548173ffffffffffffffffffffffffffffffffffffffff021916908373ffffffffffffffffffffffffffffffffffffffff16021790555050565b600080838311151515612f3a57600080fd5b82840390508091505092915050565b6000808473ffffffffffffffffffffffffffffffffffffffff1673ffffffffffffffffffffffffffffffffffffffff168152602001908152602001600020548111151515612f9657600080fd5b600073ffffffffffffffffffffffffffffffffffffffff168273ffffffffffffffffffffffffffffffffffffffff1614151515612fd257600080fd5b613023816000808673ffffffffffffffffffffffffffffffffffffffff1673ffffffffffffffffffffffffffffffffffffffff16815260200190815260200160002054612f2890919063ffffffff16565b6000808573ffffffffffffffffffffffffffffffffffffffff1673ffffffffffffffffffffffffffffffffffffffff168152602001908152602001600020819055506130b6816000808573ffffffffffffffffffffffffffffffffffffffff1673ffffffffffffffffffffffffffffffffffffffff168152602001908152602001600020546132a090919063ffffffff16565b6000808473ffffffffffffffffffffffffffffffffffffffff1673ffffffffffffffffffffffffffffffffffffffff168152602001908152602001600020819055508173ffffffffffffffffffffffffffffffffffffffff168373ffffffffffffffffffffffffffffffffffffffff167fddf252ad1be2c89b69c2b068fc378daa952ba7f163c4a11628f55a4df523b3ef836040518082815260200191505060405180910390a3505050565b60008273ffffffffffffffffffffffffffffffffffffffff161415151561318857600080fd5b61319d816002546132a090919063ffffffff16565b6002819055506131f4816000808573ffffffffffffffffffffffffffffffffffffffff1673ffffffffffffffffffffffffffffffffffffffff168152602001908152602001600020546132a090919063ffffffff16565b6000808473ffffffffffffffffffffffffffffffffffffffff1673ffffffffffffffffffffffffffffffffffffffff168152602001908152602001600020819055508173ffffffffffffffffffffffffffffffffffffffff16600073ffffffffffffffffffffffffffffffffffffffff167fddf252ad1be2c89b69c2b068fc378daa952ba7f163c4a11628f55a4df523b3ef836040518082815260200191505060405180910390a35050565b60008082840190508381101515156132b757600080fd5b8091505092915050565b60008060008414156132d657600091506132f8565b82840290508284828115156132e757fe5b041415156132f457600080fd5b8091505b5092915050565b60008060008311151561331157600080fd5b828481151561331c57fe5b0490508091505092915050565b6000600b6000848152602001908152602001600020549050600081141561334f57613508565b6001600a60008473ffffffffffffffffffffffffffffffffffffffff1673ffffffffffffffffffffffffffffffffffffffff1681526020019081526020016000208054905011156134b457600a60008373ffffffffffffffffffffffffffffffffffffffff1673ffffffffffffffffffffffffffffffffffffffff16815260200190815260200160002061342f6001600a60008673ffffffffffffffffffffffffffffffffffffffff1673ffffffffffffffffffffffffffffffffffffffff16815260200190815260200160002080549050612f2890919063ffffffff16565b81548110151561343b57fe5b9060005260206000200154600a60008473ffffffffffffffffffffffffffffffffffffffff1673ffffffffffffffffffffffffffffffffffffffff168152602001908152602001600020613499600184612f2890919063ffffffff16565b8154811015156134a557fe5b90600052602060002001819055505b600a60008373ffffffffffffffffffffffffffffffffffffffff1673ffffffffffffffffffffffffffffffffffffffff168152602001908152602001600020805480919060019003613506919061350d565b505b505050565b815481835581811115613534578183600052602060002091820191016135339190613539565b5b505050565b61355b91905b8082111561355757600081600090555060010161353f565b5090565b905600a165627a7a723058205a609ad0975ccb9bff1ae958738b0371be2e92ec98bfe8f005c24ad0a65ee2030029",
  "source": "pragma solidity 0.4.25;\n\nimport \"./SafeMath.sol\";\nimport \"./ERC20.sol\";\nimport \"./Owned.sol\";\nimport \"./Mortal.sol\";\n\n/// @author Guillermo Perez Alba\n/// @title A token designed to exchange motocycle's batteries\ncontract BatteryToken is ERC20, Owned, Mortal {\n    using SafeMath for uint256;\n\n    address public owner;\n    uint256 public timeRef;\n    uint256 public globalId;\n    uint256 constant CHARGEPRICE = 7;\n    uint256 constant PROPOSALTIME = 10 * 1 minutes;\n\n    struct Battery {\n        uint256 initialValue;\n        bool publicDomain; //True for public. False for private\n        address privateCharger;\n        uint256 startTime;\n    }\n\n    struct Exchange {\n        uint256 itemProposer;\n        uint256 itemExecuter;\n        address proposer;\n        address executer;\n        uint256 valueProposer;\n        uint256 valueExecuter;\n        uint256 proposedTime;\n        bool proposed;\n        bool executed;\n        bool cancelled;\n    }\n\n    mapping(uint256 => address) batteryOwner;\n    mapping(uint256 => Battery) battery;\n    mapping(address => uint256[]) batteriesByOwner;\n    mapping(uint256 => uint256) indexOfId; //starting since 1, use index-1\n    mapping(bytes32 => Exchange) exchanges;\n\n    event MintBat(address own, uint256 id, bool domain, uint time);\n    event BurnBat(address own, uint256 id);\n    event Proposal(bytes32 proposalId, address emiter, address executer, uint256 itemEmiter, uint256 itemExecuter);\n    event Execution(address emiter, address executer, uint256 itemEmiter, uint256 itemExecuter);\n    event Cancellation(bytes32 proposalId);\n\n    constructor() public {\n        owner = msg.sender;\n        timeRef = block.timestamp;\n        batteryOwner[globalId] = address(0);\n        battery[globalId].publicDomain = false;\n        battery[globalId].startTime = block.timestamp;\n        battery[globalId].initialValue = 0;\n        indexOfId[globalId] = batteriesByOwner[address(0)].push(globalId);\n    }\n\n    /// @dev Return the IDs of the batteries owned by an owner\n    /// @param who the address of the owner\n    /// @return an array with the IDs of the batteries\n    function batteriesOfOwner(address who) public view returns (uint256[]) {\n        return batteriesByOwner[who];\n    }\n\n    /// @dev Return the owner of a certain battery ID\n    /// @param id the ID of the battery\n    /// @return the address of the owner. When address(0) battery doesn't exist\n    function ownerOf(uint256 id) public view returns (address) {\n        return batteryOwner[id];\n    }\n\n    /// @dev Return the details of a certain battery ID\n    /// @param id the ID of the battery\n    function getBattery(uint256 id) public view returns (bool, uint256, uint256, address) {\n        return (battery[id].publicDomain, battery[id].startTime, battery[id].initialValue, battery[id].privateCharger);\n    }\n\n    /// @dev Mints a new battery with the next Global ID\n    /// @param domain True when battery is public, False when private\n    /// @param value Initial value of the battery\n    /// @return the ID of the new battery\n    function mintBat(bool domain, uint256 value) public returns (uint256) {\n        //todos pueden anhadir baterias? hacer un require para solo algunas address autorizadas?\n        globalId = globalId.add(1);\n        batteryOwner[globalId] = msg.sender;\n        battery[globalId].publicDomain = domain;\n        battery[globalId].startTime = block.timestamp;\n        battery[globalId].initialValue = value;\n        indexOfId[globalId] = batteriesByOwner[msg.sender].push(globalId);\n        emit MintBat(batteryOwner[globalId], globalId, battery[globalId].publicDomain, battery[globalId].startTime);\n        return globalId;\n    }\n\n    /// @dev The battery stops existing in the contract\n    /// @param id the ID of the battery\n    function burnBat(uint256 id) public {\n        //Si el mint lo hacen las fabricas los puntos de carga se las compran y cuando estas tengan un valor\n        //muuy bajo se las vuelven a vender y las fabricas hacen el burn. Si alguien hace burn antes pierde ese dinero\n        require(msg.sender == batteryOwner[id], \"Only the owner can burn\");\n        batteryOwner[id] = address(0);\n        removeFromArray(id, msg.sender);\n        //Devolver valor en ether a su cuenta real en Ethers????\n        emit BurnBat(msg.sender, id);\n    }\n\n    /// @dev Remove a battery of the array of batteries for an owner\n    /// @param id the ID of the battery\n    /// @param who the address of the current owner\n    function removeFromArray (uint256 id, address who) private {\n        uint256 index = indexOfId[id];\n        if (index == 0) return;\n\n        if(batteriesByOwner[who].length > 1) {\n            batteriesByOwner[who][index.sub(1)] = batteriesByOwner[who][batteriesByOwner[who].length.sub(1)];\n        }\n        batteriesByOwner[who].length --;\n    }\n\n    /// @dev Propose an exchange of batteries (or token) to another address\n    /// @param itemProposer ID of the battery the proposer exchanges\n    /// @param itemExecuter ID of the battery the executer exchanges. Is 0 when Sell or Private Exchange\n    /// @param proposerChargeLevel Current level of the battery owned by the proposer (between 0-100)\n    /// @param executerChargeLevel Current level of the battery owned by the executer (between 0-100). Is 0 when Sell or Private Exchange\n    /// @param executer the address of the executer\n    /// @return a bytes32 with the ID of the exchange\n    function proposeExchange(\n        uint256 itemProposer,\n        uint256 itemExecuter,\n        uint256 proposerChargeLevel,\n        uint256 executerChargeLevel,\n        address executer\n    )\n        public\n        returns (bytes32)\n    {\n        require((msg.sender == batteryOwner[itemProposer] || msg.sender == battery[itemProposer].privateCharger), \"Wrong msg.sender\");\n        bytes32 exchangeId = bytes32(keccak256(abi.encodePacked(block.timestamp, itemProposer, itemExecuter, msg.sender, executer)));\n        exchanges[exchangeId].itemProposer = itemProposer;\n        exchanges[exchangeId].proposer = msg.sender;\n        exchanges[exchangeId].executer = executer;\n        if (battery[itemProposer].publicDomain) {\n            exchanges[exchangeId].itemExecuter = itemExecuter;\n            exchanges[exchangeId].valueProposer = getBatValue(itemProposer, proposerChargeLevel);\n            exchanges[exchangeId].valueExecuter = getBatValue(itemExecuter, executerChargeLevel);\n        } else {\n            exchanges[exchangeId].valueProposer = CHARGEPRICE.mul(proposerChargeLevel).div(100).mul(getBatValue(itemProposer, 100)).div(battery[itemProposer].initialValue);\n        }\n\n        if (exchanges[exchangeId].valueProposer <= exchanges[exchangeId].valueExecuter){\n            super.approve(executer, exchanges[exchangeId].valueExecuter.sub(exchanges[exchangeId].valueProposer));\n            //redefinir aqui la funcion approve para que si expira el tiempo pierda lo aprobado\n            //o para no jugarsela con esto hacer que el mas caro proponga y el mas barato execute\n        }\n        exchanges[exchangeId].proposedTime = block.timestamp;\n        exchanges[exchangeId].proposed = true;\n        emit Proposal(exchangeId, msg.sender, executer, itemProposer, itemExecuter);\n        return exchangeId;\n    }\n\n    /// @dev Execute an exchange previously proposed\n    /// @param exchangeId the ID of the exchange to execute\n    function executeExchange(bytes32 exchangeId) public {\n        require(exchanges[exchangeId].proposed, \"This exchange id does not exist\");\n        require(!exchanges[exchangeId].executed, \"Already executed\");\n        require(!exchanges[exchangeId].cancelled, \"Execution cancelled\");\n        require(msg.sender == exchanges[exchangeId].executer, \"msg.sender must be the executer\");\n        require(block.timestamp.sub(exchanges[exchangeId].proposedTime) < PROPOSALTIME, \"Proposal time expired\");\n        if (exchanges[exchangeId].valueProposer >= exchanges[exchangeId].valueExecuter){\n            super.transfer(exchanges[exchangeId].proposer, exchanges[exchangeId].valueProposer.sub(exchanges[exchangeId].valueExecuter));\n        } else {\n            super.transferFrom(exchanges[exchangeId].proposer, msg.sender, exchanges[exchangeId].valueExecuter.sub(exchanges[exchangeId].valueProposer));\n        }\n        if (battery[exchanges[exchangeId].itemProposer].publicDomain) {\n            if (exchanges[exchangeId].itemProposer != 0) {\n                removeFromArray(exchanges[exchangeId].itemProposer, exchanges[exchangeId].proposer);\n                batteryOwner[exchanges[exchangeId].itemProposer] = msg.sender;\n                indexOfId[exchanges[exchangeId].itemProposer] = batteriesByOwner[msg.sender].push(exchanges[exchangeId].itemProposer);\n            }\n            if (exchanges[exchangeId].itemExecuter != 0) {\n                removeFromArray(exchanges[exchangeId].itemExecuter, msg.sender);\n                batteryOwner[exchanges[exchangeId].itemExecuter] = exchanges[exchangeId].proposer;\n                indexOfId[exchanges[exchangeId].itemExecuter] = batteriesByOwner[exchanges[exchangeId].proposer].push(exchanges[exchangeId].itemExecuter);\n            }\n        } else if (msg.sender == batteryOwner[exchanges[exchangeId].itemProposer]) {\n            //retirada\n            battery[exchanges[exchangeId].itemProposer].privateCharger = address(0);\n        } else {\n            //entrega al pto carga\n            battery[exchanges[exchangeId].itemProposer].privateCharger = msg.sender;\n        }\n        exchanges[exchangeId].executed = true;\n        emit Execution(exchanges[exchangeId].proposer, msg.sender, exchanges[exchangeId].itemProposer, exchanges[exchangeId].itemExecuter);\n    }\n\n    // @dev cancell a Proposal in case proposer did an approve\n    // @param exchangeIdthe ID of the exchange to cancell\n    function cancelProposal(bytes32 exchangeId) public {\n        require(exchanges[exchangeId].proposed, \"This exchange id does not exist\");\n        require(!exchanges[exchangeId].executed, \"Already executed\");\n        require(msg.sender == exchanges[exchangeId].proposer, \"Wrong msg.sender\");\n        if (exchanges[exchangeId].valueProposer < exchanges[exchangeId].valueExecuter) {\n            super.decreaseAllowance(exchanges[exchangeId].executer, exchanges[exchangeId].valueExecuter.sub(exchanges[exchangeId].valueProposer));\n        }\n        exchanges[exchangeId].cancelled = true;\n        emit Cancellation(exchangeId);\n    }\n\n    /// @dev Return the value of a certain battery ID with a certain level of charge.\n    /// @param itemId the ID of the battery\n    /// @param itemChargeLevel the current level of charge of the battery (between 0-100)\n    /// @return the current value of the battery\n    function getBatValue(uint256 itemId, uint256 itemChargeLevel) public view returns(uint256){\n        require((itemChargeLevel >= 0) || (itemChargeLevel <= 100), \"Bad charge level\");\n        if (itemId == 0) {\n            return 0;\n        } else {\n            uint256 value = battery[itemId].initialValue\n            .sub(block.timestamp.sub(battery[itemId].startTime))\n            .add(\n              CHARGEPRICE\n                .mul(itemChargeLevel)\n                .div(100)\n                .mul(battery[itemId].initialValue.sub(block.timestamp.sub(battery[itemId].startTime)))\n                .div(battery[itemId].initialValue)\n            );\n            assert(value >= 0 || value <= battery[itemId].initialValue.add(CHARGEPRICE));\n            return value;\n        }\n\n    }\n\n    /// @dev Mints a certain amount of ERC20 token to the msg.sender\n    /// @param amount the amount of tokens to mint\n    function mintERC20(uint256 amount) public returns(bool){\n        super._mint(msg.sender, amount);\n        return true;\n    }\n\n}\n",
  "sourcePath": "/home/guillermo/BatteryToken/contracts/BatteryToken.sol",
  "compiler": {
    "name": "solc",
    "version": "0.4.25+commit.59dbf8f1.Emscripten.clang"
  },
  "schemaVersion": "2.0.2",
  "updatedAt": "2019-02-24T19:11:41.829Z"
}