{
  "contractName": "BatteryToken",
  "abi": [
    {
      "constant": false,
      "inputs": [
        {
          "name": "spender",
          "type": "address"
        },
        {
          "name": "value",
          "type": "uint256"
        }
      ],
      "name": "approve",
      "outputs": [
        {
          "name": "",
          "type": "bool"
        }
      ],
      "payable": false,
      "stateMutability": "nonpayable",
      "type": "function"
    },
    {
      "constant": true,
      "inputs": [],
      "name": "totalSupply",
      "outputs": [
        {
          "name": "",
          "type": "uint256"
        }
      ],
      "payable": false,
      "stateMutability": "view",
      "type": "function"
    },
    {
      "constant": false,
      "inputs": [
        {
          "name": "from",
          "type": "address"
        },
        {
          "name": "to",
          "type": "address"
        },
        {
          "name": "value",
          "type": "uint256"
        }
      ],
      "name": "transferFrom",
      "outputs": [
        {
          "name": "",
          "type": "bool"
        }
      ],
      "payable": false,
      "stateMutability": "nonpayable",
      "type": "function"
    },
    {
      "constant": false,
      "inputs": [
        {
          "name": "spender",
          "type": "address"
        },
        {
          "name": "addedValue",
          "type": "uint256"
        }
      ],
      "name": "increaseAllowance",
      "outputs": [
        {
          "name": "",
          "type": "bool"
        }
      ],
      "payable": false,
      "stateMutability": "nonpayable",
      "type": "function"
    },
    {
      "constant": true,
      "inputs": [
        {
          "name": "owner",
          "type": "address"
        }
      ],
      "name": "balanceOf",
      "outputs": [
        {
          "name": "",
          "type": "uint256"
        }
      ],
      "payable": false,
      "stateMutability": "view",
      "type": "function"
    },
    {
      "constant": true,
      "inputs": [],
      "name": "owner",
      "outputs": [
        {
          "name": "",
          "type": "address"
        }
      ],
      "payable": false,
      "stateMutability": "view",
      "type": "function"
    },
    {
      "constant": false,
      "inputs": [
        {
          "name": "spender",
          "type": "address"
        },
        {
          "name": "subtractedValue",
          "type": "uint256"
        }
      ],
      "name": "decreaseAllowance",
      "outputs": [
        {
          "name": "",
          "type": "bool"
        }
      ],
      "payable": false,
      "stateMutability": "nonpayable",
      "type": "function"
    },
    {
      "constant": false,
      "inputs": [
        {
          "name": "to",
          "type": "address"
        },
        {
          "name": "value",
          "type": "uint256"
        }
      ],
      "name": "transfer",
      "outputs": [
        {
          "name": "",
          "type": "bool"
        }
      ],
      "payable": false,
      "stateMutability": "nonpayable",
      "type": "function"
    },
    {
      "constant": true,
      "inputs": [],
      "name": "globalId",
      "outputs": [
        {
          "name": "",
          "type": "uint256"
        }
      ],
      "payable": false,
      "stateMutability": "view",
      "type": "function"
    },
    {
      "constant": true,
      "inputs": [],
      "name": "timeRef",
      "outputs": [
        {
          "name": "",
          "type": "uint256"
        }
      ],
      "payable": false,
      "stateMutability": "view",
      "type": "function"
    },
    {
      "constant": true,
      "inputs": [
        {
          "name": "owner",
          "type": "address"
        },
        {
          "name": "spender",
          "type": "address"
        }
      ],
      "name": "allowance",
      "outputs": [
        {
          "name": "",
          "type": "uint256"
        }
      ],
      "payable": false,
      "stateMutability": "view",
      "type": "function"
    },
    {
      "inputs": [],
      "payable": false,
      "stateMutability": "nonpayable",
      "type": "constructor"
    },
    {
      "anonymous": false,
      "inputs": [
        {
          "indexed": false,
          "name": "own",
          "type": "address"
        },
        {
          "indexed": false,
          "name": "id",
          "type": "uint256"
        },
        {
          "indexed": false,
          "name": "domain",
          "type": "bool"
        },
        {
          "indexed": false,
          "name": "time",
          "type": "uint256"
        }
      ],
      "name": "MintBat",
      "type": "event"
    },
    {
      "anonymous": false,
      "inputs": [
        {
          "indexed": false,
          "name": "own",
          "type": "address"
        },
        {
          "indexed": false,
          "name": "id",
          "type": "uint256"
        }
      ],
      "name": "BurnBat",
      "type": "event"
    },
    {
      "anonymous": false,
      "inputs": [
        {
          "indexed": false,
          "name": "proposalId",
          "type": "bytes32"
        },
        {
          "indexed": false,
          "name": "emiter",
          "type": "address"
        },
        {
          "indexed": false,
          "name": "executer",
          "type": "address"
        },
        {
          "indexed": false,
          "name": "itemEmiter",
          "type": "uint256"
        },
        {
          "indexed": false,
          "name": "itemExecuter",
          "type": "uint256"
        }
      ],
      "name": "Proposal",
      "type": "event"
    },
    {
      "anonymous": false,
      "inputs": [
        {
          "indexed": false,
          "name": "emiter",
          "type": "address"
        },
        {
          "indexed": false,
          "name": "executer",
          "type": "address"
        },
        {
          "indexed": false,
          "name": "itemEmiter",
          "type": "uint256"
        },
        {
          "indexed": false,
          "name": "itemExecuter",
          "type": "uint256"
        }
      ],
      "name": "Execution",
      "type": "event"
    },
    {
      "anonymous": false,
      "inputs": [
        {
          "indexed": true,
          "name": "from",
          "type": "address"
        },
        {
          "indexed": true,
          "name": "to",
          "type": "address"
        },
        {
          "indexed": false,
          "name": "value",
          "type": "uint256"
        }
      ],
      "name": "Transfer",
      "type": "event"
    },
    {
      "anonymous": false,
      "inputs": [
        {
          "indexed": true,
          "name": "owner",
          "type": "address"
        },
        {
          "indexed": true,
          "name": "spender",
          "type": "address"
        },
        {
          "indexed": false,
          "name": "value",
          "type": "uint256"
        }
      ],
      "name": "Approval",
      "type": "event"
    },
    {
      "constant": true,
      "inputs": [
        {
          "name": "id",
          "type": "uint256"
        }
      ],
      "name": "ownerOf",
      "outputs": [
        {
          "name": "",
          "type": "address"
        }
      ],
      "payable": false,
      "stateMutability": "view",
      "type": "function"
    },
    {
      "constant": true,
      "inputs": [
        {
          "name": "id",
          "type": "uint256"
        }
      ],
      "name": "getBattery",
      "outputs": [
        {
          "name": "",
          "type": "bool"
        },
        {
          "name": "",
          "type": "uint256"
        },
        {
          "name": "",
          "type": "uint256"
        },
        {
          "name": "",
          "type": "address"
        }
      ],
      "payable": false,
      "stateMutability": "view",
      "type": "function"
    },
    {
      "constant": false,
      "inputs": [
        {
          "name": "_publicDomain",
          "type": "bool"
        },
        {
          "name": "_value",
          "type": "uint256"
        }
      ],
      "name": "mintBat",
      "outputs": [
        {
          "name": "",
          "type": "uint256"
        }
      ],
      "payable": false,
      "stateMutability": "nonpayable",
      "type": "function"
    },
    {
      "constant": false,
      "inputs": [
        {
          "name": "id",
          "type": "uint256"
        }
      ],
      "name": "burnBat",
      "outputs": [
        {
          "name": "",
          "type": "bool"
        }
      ],
      "payable": false,
      "stateMutability": "nonpayable",
      "type": "function"
    },
    {
      "constant": false,
      "inputs": [
        {
          "name": "_itemProposer",
          "type": "uint256"
        },
        {
          "name": "_itemExecuter",
          "type": "uint256"
        },
        {
          "name": "proposerChargeLevel",
          "type": "uint256"
        },
        {
          "name": "executerChargeLevel",
          "type": "uint256"
        },
        {
          "name": "_executer",
          "type": "address"
        }
      ],
      "name": "proposeExchange",
      "outputs": [
        {
          "name": "",
          "type": "bytes32"
        }
      ],
      "payable": false,
      "stateMutability": "nonpayable",
      "type": "function"
    },
    {
      "constant": false,
      "inputs": [
        {
          "name": "_exchangeId",
          "type": "bytes32"
        }
      ],
      "name": "executeExchange",
      "outputs": [
        {
          "name": "",
          "type": "bool"
        }
      ],
      "payable": false,
      "stateMutability": "nonpayable",
      "type": "function"
    },
    {
      "constant": true,
      "inputs": [
        {
          "name": "_itemId",
          "type": "uint256"
        },
        {
          "name": "_itemChargeLevel",
          "type": "uint256"
        }
      ],
      "name": "getBatValue",
      "outputs": [
        {
          "name": "",
          "type": "uint256"
        }
      ],
      "payable": false,
      "stateMutability": "view",
      "type": "function"
    },
    {
      "constant": false,
      "inputs": [
        {
          "name": "amount",
          "type": "uint256"
        }
      ],
      "name": "mintERC20",
      "outputs": [
        {
          "name": "",
          "type": "bool"
        }
      ],
      "payable": false,
      "stateMutability": "nonpayable",
      "type": "function"
    }
  ],
  "bytecode": "0x608060405234801561001057600080fd5b5033600360006101000a81548173ffffffffffffffffffffffffffffffffffffffff021916908373ffffffffffffffffffffffffffffffffffffffff16021790555042600481905550600060066000600554815260200190815260200160002060006101000a81548173ffffffffffffffffffffffffffffffffffffffff021916908373ffffffffffffffffffffffffffffffffffffffff160217905550600060076000600554815260200190815260200160002060010160006101000a81548160ff02191690831515021790555042600760006005548152602001908152602001600020600201819055506000600760006005548152602001908152602001600020600001819055506128eb806101296000396000f300608060405260043610610107576000357c0100000000000000000000000000000000000000000000000000000000900463ffffffff168063095ea7b31461010c57806318160ddd1461017157806323b872dd1461019c57806335dcc4a41461022157806339509351146102665780636352211e146102cb57806370a082311461033857806372850a9b1461038f578063807e7c04146104165780638da5cb5b1461049c5780639c096684146104f3578063a457c2d714610538578063a9059cbb1461059d578063b7ba939914610602578063b859f7261461064f578063ca6668231461069a578063cb3c3c0b146106c5578063dd62ed3e146106f0578063f0f8993614610767575b600080fd5b34801561011857600080fd5b50610157600480360381019080803573ffffffffffffffffffffffffffffffffffffffff169060200190929190803590602001909291905050506107b0565b604051808215151515815260200191505060405180910390f35b34801561017d57600080fd5b506101866108dd565b6040518082815260200191505060405180910390f35b3480156101a857600080fd5b50610207600480360381019080803573ffffffffffffffffffffffffffffffffffffffff169060200190929190803573ffffffffffffffffffffffffffffffffffffffff169060200190929190803590602001909291905050506108e7565b604051808215151515815260200191505060405180910390f35b34801561022d57600080fd5b5061024c60048036038101908080359060200190929190505050610aef565b604051808215151515815260200191505060405180910390f35b34801561027257600080fd5b506102b1600480360381019080803573ffffffffffffffffffffffffffffffffffffffff16906020019092919080359060200190929190505050610b04565b604051808215151515815260200191505060405180910390f35b3480156102d757600080fd5b506102f660048036038101908080359060200190929190505050610d3b565b604051808273ffffffffffffffffffffffffffffffffffffffff1673ffffffffffffffffffffffffffffffffffffffff16815260200191505060405180910390f35b34801561034457600080fd5b50610379600480360381019080803573ffffffffffffffffffffffffffffffffffffffff169060200190929190505050610d78565b6040518082815260200191505060405180910390f35b34801561039b57600080fd5b506103f860048036038101908080359060200190929190803590602001909291908035906020019092919080359060200190929190803573ffffffffffffffffffffffffffffffffffffffff169060200190929190505050610dc0565b60405180826000191660001916815260200191505060405180910390f35b34801561042257600080fd5b5061044160048036038101908080359060200190929190505050611416565b60405180851515151581526020018481526020018381526020018273ffffffffffffffffffffffffffffffffffffffff1673ffffffffffffffffffffffffffffffffffffffff16815260200194505050505060405180910390f35b3480156104a857600080fd5b506104b16114b4565b604051808273ffffffffffffffffffffffffffffffffffffffff1673ffffffffffffffffffffffffffffffffffffffff16815260200191505060405180910390f35b3480156104ff57600080fd5b5061051e600480360381019080803590602001909291905050506114da565b604051808215151515815260200191505060405180910390f35b34801561054457600080fd5b50610583600480360381019080803573ffffffffffffffffffffffffffffffffffffffff16906020019092919080359060200190929190505050611679565b604051808215151515815260200191505060405180910390f35b3480156105a957600080fd5b506105e8600480360381019080803573ffffffffffffffffffffffffffffffffffffffff169060200190929190803590602001909291905050506118b0565b604051808215151515815260200191505060405180910390f35b34801561060e57600080fd5b50610639600480360381019080803515159060200190929190803590602001909291905050506118c7565b6040518082815260200191505060405180910390f35b34801561065b57600080fd5b506106846004803603810190808035906020019092919080359060200190929190505050611aa1565b6040518082815260200191505060405180910390f35b3480156106a657600080fd5b506106af611c82565b6040518082815260200191505060405180910390f35b3480156106d157600080fd5b506106da611c88565b6040518082815260200191505060405180910390f35b3480156106fc57600080fd5b50610751600480360381019080803573ffffffffffffffffffffffffffffffffffffffff169060200190929190803573ffffffffffffffffffffffffffffffffffffffff169060200190929190505050611c8e565b6040518082815260200191505060405180910390f35b34801561077357600080fd5b506107966004803603810190808035600019169060200190929190505050611d15565b604051808215151515815260200191505060405180910390f35b60008073ffffffffffffffffffffffffffffffffffffffff168373ffffffffffffffffffffffffffffffffffffffff16141515156107ed57600080fd5b81600160003373ffffffffffffffffffffffffffffffffffffffff1673ffffffffffffffffffffffffffffffffffffffff16815260200190815260200160002060008573ffffffffffffffffffffffffffffffffffffffff1673ffffffffffffffffffffffffffffffffffffffff168152602001908152602001600020819055508273ffffffffffffffffffffffffffffffffffffffff163373ffffffffffffffffffffffffffffffffffffffff167f8c5be1e5ebec7d5bd14f71427d1e84f3dd0314c0f7b2291e5b200ac8c7c3b925846040518082815260200191505060405180910390a36001905092915050565b6000600254905090565b600061097882600160008773ffffffffffffffffffffffffffffffffffffffff1673ffffffffffffffffffffffffffffffffffffffff16815260200190815260200160002060003373ffffffffffffffffffffffffffffffffffffffff1673ffffffffffffffffffffffffffffffffffffffff168152602001908152602001600020546124f590919063ffffffff16565b600160008673ffffffffffffffffffffffffffffffffffffffff1673ffffffffffffffffffffffffffffffffffffffff16815260200190815260200160002060003373ffffffffffffffffffffffffffffffffffffffff1673ffffffffffffffffffffffffffffffffffffffff16815260200190815260200160002081905550610a03848484612516565b3373ffffffffffffffffffffffffffffffffffffffff168473ffffffffffffffffffffffffffffffffffffffff167f8c5be1e5ebec7d5bd14f71427d1e84f3dd0314c0f7b2291e5b200ac8c7c3b925600160008873ffffffffffffffffffffffffffffffffffffffff1673ffffffffffffffffffffffffffffffffffffffff16815260200190815260200160002060003373ffffffffffffffffffffffffffffffffffffffff1673ffffffffffffffffffffffffffffffffffffffff168152602001908152602001600020546040518082815260200191505060405180910390a3600190509392505050565b6000610afb33836126e2565b60019050919050565b60008073ffffffffffffffffffffffffffffffffffffffff168373ffffffffffffffffffffffffffffffffffffffff1614151515610b4157600080fd5b610bd082600160003373ffffffffffffffffffffffffffffffffffffffff1673ffffffffffffffffffffffffffffffffffffffff16815260200190815260200160002060008673ffffffffffffffffffffffffffffffffffffffff1673ffffffffffffffffffffffffffffffffffffffff1681526020019081526020016000205461283690919063ffffffff16565b600160003373ffffffffffffffffffffffffffffffffffffffff1673ffffffffffffffffffffffffffffffffffffffff16815260200190815260200160002060008573ffffffffffffffffffffffffffffffffffffffff1673ffffffffffffffffffffffffffffffffffffffff168152602001908152602001600020819055508273ffffffffffffffffffffffffffffffffffffffff163373ffffffffffffffffffffffffffffffffffffffff167f8c5be1e5ebec7d5bd14f71427d1e84f3dd0314c0f7b2291e5b200ac8c7c3b925600160003373ffffffffffffffffffffffffffffffffffffffff1673ffffffffffffffffffffffffffffffffffffffff16815260200190815260200160002060008773ffffffffffffffffffffffffffffffffffffffff1673ffffffffffffffffffffffffffffffffffffffff168152602001908152602001600020546040518082815260200191505060405180910390a36001905092915050565b60006006600083815260200190815260200160002060009054906101000a900473ffffffffffffffffffffffffffffffffffffffff169050919050565b60008060008373ffffffffffffffffffffffffffffffffffffffff1673ffffffffffffffffffffffffffffffffffffffff168152602001908152602001600020549050919050565b6000806006600088815260200190815260200160002060009054906101000a900473ffffffffffffffffffffffffffffffffffffffff1673ffffffffffffffffffffffffffffffffffffffff163373ffffffffffffffffffffffffffffffffffffffff161480610e9157506007600088815260200190815260200160002060010160019054906101000a900473ffffffffffffffffffffffffffffffffffffffff1673ffffffffffffffffffffffffffffffffffffffff163373ffffffffffffffffffffffffffffffffffffffff16145b1515610f2b576040517f08c379a000000000000000000000000000000000000000000000000000000000815260040180806020018281038252602c8152602001807f4d73672e73656e646572206d75737420626520746865206f776e6572206f662081526020017f74686520317374206974656d000000000000000000000000000000000000000081525060400191505060405180910390fd5b4287873386604051602001808681526020018581526020018481526020018373ffffffffffffffffffffffffffffffffffffffff1673ffffffffffffffffffffffffffffffffffffffff166c010000000000000000000000000281526014018273ffffffffffffffffffffffffffffffffffffffff1673ffffffffffffffffffffffffffffffffffffffff166c01000000000000000000000000028152601401955050505050506040516020818303038152906040526040518082805190602001908083835b6020831015156110165780518252602082019150602081019050602083039250610ff1565b6001836020036101000a0380198251168184511680821785525050505050509050019150506040518091039020905086600860008360001916600019168152602001908152602001600020600001819055503360086000836000191660001916815260200190815260200160002060020160006101000a81548173ffffffffffffffffffffffffffffffffffffffff021916908373ffffffffffffffffffffffffffffffffffffffff1602179055508260086000836000191660001916815260200190815260200160002060030160006101000a81548173ffffffffffffffffffffffffffffffffffffffff021916908373ffffffffffffffffffffffffffffffffffffffff1602179055506007600088815260200190815260200160002060010160009054906101000a900460ff16156111cb5785600860008360001916600019168152602001908152602001600020600101819055506111788786611aa1565b600860008360001916600019168152602001908152602001600020600401819055506111a48685611aa1565b60086000836000191660001916815260200190815260200160002060050181905550611259565b61123660076000898152602001908152602001600020600001546112286111f38a6064611aa1565b61121a606461120c8b600761285790919063ffffffff16565b61289590919063ffffffff16565b61285790919063ffffffff16565b61289590919063ffffffff16565b600860008360001916600019168152602001908152602001600020600401819055505b60086000826000191660001916815260200190815260200160002060050154600860008360001916600019168152602001908152602001600020600401541115156112f8576112f6836112f160086000856000191660001916815260200190815260200160002060050154600860008660001916600019168152602001908152602001600020600401546124f590919063ffffffff16565b6107b0565b505b4260086000836000191660001916815260200190815260200160002060060181905550600160086000836000191660001916815260200190815260200160002060070160006101000a81548160ff0219169083151502179055507f5d23a63c0c310733b5582e295d2a2a6b53c335c58ac9d8224f0a319dc161d9998133858a8a6040518086600019166000191681526020018573ffffffffffffffffffffffffffffffffffffffff1673ffffffffffffffffffffffffffffffffffffffff1681526020018473ffffffffffffffffffffffffffffffffffffffff1673ffffffffffffffffffffffffffffffffffffffff1681526020018381526020018281526020019550505050505060405180910390a18091505095945050505050565b6000806000806007600086815260200190815260200160002060010160009054906101000a900460ff16600760008781526020019081526020016000206002015460076000888152602001908152602001600020600001546007600089815260200190815260200160002060010160019054906101000a900473ffffffffffffffffffffffffffffffffffffffff1693509350935093509193509193565b600360009054906101000a900473ffffffffffffffffffffffffffffffffffffffff1681565b60006006600083815260200190815260200160002060009054906101000a900473ffffffffffffffffffffffffffffffffffffffff1673ffffffffffffffffffffffffffffffffffffffff163373ffffffffffffffffffffffffffffffffffffffff161415156115b2576040517f08c379a00000000000000000000000000000000000000000000000000000000081526004018080602001828103825260178152602001807f4f6e6c7920746865206f776e65722063616e206275726e00000000000000000081525060200191505060405180910390fd5b60006006600084815260200190815260200160002060006101000a81548173ffffffffffffffffffffffffffffffffffffffff021916908373ffffffffffffffffffffffffffffffffffffffff1602179055507f237e464a2b45d5e0aba2ed4c81141d97ed69f8d97751294a3f2d3698f0647f093383604051808373ffffffffffffffffffffffffffffffffffffffff1673ffffffffffffffffffffffffffffffffffffffff1681526020018281526020019250505060405180910390a160019050919050565b60008073ffffffffffffffffffffffffffffffffffffffff168373ffffffffffffffffffffffffffffffffffffffff16141515156116b657600080fd5b61174582600160003373ffffffffffffffffffffffffffffffffffffffff1673ffffffffffffffffffffffffffffffffffffffff16815260200190815260200160002060008673ffffffffffffffffffffffffffffffffffffffff1673ffffffffffffffffffffffffffffffffffffffff168152602001908152602001600020546124f590919063ffffffff16565b600160003373ffffffffffffffffffffffffffffffffffffffff1673ffffffffffffffffffffffffffffffffffffffff16815260200190815260200160002060008573ffffffffffffffffffffffffffffffffffffffff1673ffffffffffffffffffffffffffffffffffffffff168152602001908152602001600020819055508273ffffffffffffffffffffffffffffffffffffffff163373ffffffffffffffffffffffffffffffffffffffff167f8c5be1e5ebec7d5bd14f71427d1e84f3dd0314c0f7b2291e5b200ac8c7c3b925600160003373ffffffffffffffffffffffffffffffffffffffff1673ffffffffffffffffffffffffffffffffffffffff16815260200190815260200160002060008773ffffffffffffffffffffffffffffffffffffffff1673ffffffffffffffffffffffffffffffffffffffff168152602001908152602001600020546040518082815260200191505060405180910390a36001905092915050565b60006118bd338484612516565b6001905092915050565b60006118df600160055461283690919063ffffffff16565b6005819055503360066000600554815260200190815260200160002060006101000a81548173ffffffffffffffffffffffffffffffffffffffff021916908373ffffffffffffffffffffffffffffffffffffffff1602179055508260076000600554815260200190815260200160002060010160006101000a81548160ff021916908315150217905550426007600060055481526020019081526020016000206002018190555081600760006005548152602001908152602001600020600001819055507f8ceed64cd2f26c60e408da38d3e5f24fea4d39240e9ed6f2f497d6174bdaf98360066000600554815260200190815260200160002060009054906101000a900473ffffffffffffffffffffffffffffffffffffffff1660055460076000600554815260200190815260200160002060010160009054906101000a900460ff1660076000600554815260200190815260200160002060020154604051808573ffffffffffffffffffffffffffffffffffffffff1673ffffffffffffffffffffffffffffffffffffffff1681526020018481526020018315151515815260200182815260200194505050505060405180910390a1600554905092915050565b6000806000841415611ab65760009150611c7b565b611bc9611b6a6007600087815260200190815260200160002060000154611b5c611b27611b02600760008b815260200190815260200160002060020154426124f590919063ffffffff16565b600760008b8152602001908152602001600020600001546124f590919063ffffffff16565b611b4e6064611b408a600761285790919063ffffffff16565b61289590919063ffffffff16565b61285790919063ffffffff16565b61289590919063ffffffff16565b611bbb611b966007600089815260200190815260200160002060020154426124f590919063ffffffff16565b60076000898152602001908152602001600020600001546124f590919063ffffffff16565b61283690919063ffffffff16565b9050600081101580611c035750611bff60078060008781526020019081526020016000206000015461283690919063ffffffff16565b8111155b1515611c77576040517f08c379a00000000000000000000000000000000000000000000000000000000081526004018080602001828103825260098152602001807f4261642076616c7565000000000000000000000000000000000000000000000081525060200191505060405180910390fd5b8091505b5092915050565b60055481565b60045481565b6000600160008473ffffffffffffffffffffffffffffffffffffffff1673ffffffffffffffffffffffffffffffffffffffff16815260200190815260200160002060008373ffffffffffffffffffffffffffffffffffffffff1673ffffffffffffffffffffffffffffffffffffffff16815260200190815260200160002054905092915050565b600060086000836000191660001916815260200190815260200160002060070160009054906101000a900460ff161515611db7576040517f08c379a000000000000000000000000000000000000000000000000000000000815260040180806020018281038252601f8152602001807f546869732065786368616e676520696420646f6573206e6f742065786973740081525060200191505060405180910390fd5b60086000836000191660001916815260200190815260200160002060030160009054906101000a900473ffffffffffffffffffffffffffffffffffffffff1673ffffffffffffffffffffffffffffffffffffffff163373ffffffffffffffffffffffffffffffffffffffff16141515611e98576040517f08c379a000000000000000000000000000000000000000000000000000000000815260040180806020018281038252601f8152602001807f6d73672e73656e646572206d757374206265207468652065786563757465720081525060200191505060405180910390fd5b610258611ecc60086000856000191660001916815260200190815260200160002060060154426124f590919063ffffffff16565b101515611f41576040517f08c379a00000000000000000000000000000000000000000000000000000000081526004018080602001828103825260158152602001807f50726f706f73616c2074696d652065787069726564000000000000000000000081525060200191505060405180910390fd5b60086000836000191660001916815260200190815260200160002060050154600860008460001916600019168152602001908152602001600020600401541015156120225761201c60086000846000191660001916815260200190815260200160002060020160009054906101000a900473ffffffffffffffffffffffffffffffffffffffff1661201760086000866000191660001916815260200190815260200160002060050154600860008760001916600019168152602001908152602001600020600401546124f590919063ffffffff16565b6118b0565b506120bb565b6120b960086000846000191660001916815260200190815260200160002060020160009054906101000a900473ffffffffffffffffffffffffffffffffffffffff16336120b460086000876000191660001916815260200190815260200160002060050154600860008860001916600019168152602001908152602001600020600401546124f590919063ffffffff16565b6108e7565b505b6007600060086000856000191660001916815260200190815260200160002060000154815260200190815260200160002060010160009054906101000a900460ff161561222557336006600060086000866000191660001916815260200190815260200160002060000154815260200190815260200160002060006101000a81548173ffffffffffffffffffffffffffffffffffffffff021916908373ffffffffffffffffffffffffffffffffffffffff16021790555060086000836000191660001916815260200190815260200160002060020160009054906101000a900473ffffffffffffffffffffffffffffffffffffffff166006600060086000866000191660001916815260200190815260200160002060010154815260200190815260200160002060006101000a81548173ffffffffffffffffffffffffffffffffffffffff021916908373ffffffffffffffffffffffffffffffffffffffff160217905550612398565b6006600060086000856000191660001916815260200190815260200160002060000154815260200190815260200160002060009054906101000a900473ffffffffffffffffffffffffffffffffffffffff1673ffffffffffffffffffffffffffffffffffffffff163373ffffffffffffffffffffffffffffffffffffffff1614156123235760006007600060086000866000191660001916815260200190815260200160002060000154815260200190815260200160002060010160016101000a81548173ffffffffffffffffffffffffffffffffffffffff021916908373ffffffffffffffffffffffffffffffffffffffff160217905550612397565b336007600060086000866000191660001916815260200190815260200160002060000154815260200190815260200160002060010160016101000a81548173ffffffffffffffffffffffffffffffffffffffff021916908373ffffffffffffffffffffffffffffffffffffffff1602179055505b5b600160086000846000191660001916815260200190815260200160002060070160016101000a81548160ff0219169083151502179055507f9b6c128f1e881dcd7a32e1e3ef904667398297da9076873dac66d57ab2d6eea060086000846000191660001916815260200190815260200160002060020160009054906101000a900473ffffffffffffffffffffffffffffffffffffffff16336008600086600019166000191681526020019081526020016000206000015460086000876000191660001916815260200190815260200160002060010154604051808573ffffffffffffffffffffffffffffffffffffffff1673ffffffffffffffffffffffffffffffffffffffff1681526020018473ffffffffffffffffffffffffffffffffffffffff1673ffffffffffffffffffffffffffffffffffffffff16815260200183815260200182815260200194505050505060405180910390a1919050565b60008083831115151561250757600080fd5b82840390508091505092915050565b600073ffffffffffffffffffffffffffffffffffffffff168273ffffffffffffffffffffffffffffffffffffffff161415151561255257600080fd5b6125a3816000808673ffffffffffffffffffffffffffffffffffffffff1673ffffffffffffffffffffffffffffffffffffffff168152602001908152602001600020546124f590919063ffffffff16565b6000808573ffffffffffffffffffffffffffffffffffffffff1673ffffffffffffffffffffffffffffffffffffffff16815260200190815260200160002081905550612636816000808573ffffffffffffffffffffffffffffffffffffffff1673ffffffffffffffffffffffffffffffffffffffff1681526020019081526020016000205461283690919063ffffffff16565b6000808473ffffffffffffffffffffffffffffffffffffffff1673ffffffffffffffffffffffffffffffffffffffff168152602001908152602001600020819055508173ffffffffffffffffffffffffffffffffffffffff168373ffffffffffffffffffffffffffffffffffffffff167fddf252ad1be2c89b69c2b068fc378daa952ba7f163c4a11628f55a4df523b3ef836040518082815260200191505060405180910390a3505050565b600073ffffffffffffffffffffffffffffffffffffffff168273ffffffffffffffffffffffffffffffffffffffff161415151561271e57600080fd5b6127338160025461283690919063ffffffff16565b60028190555061278a816000808573ffffffffffffffffffffffffffffffffffffffff1673ffffffffffffffffffffffffffffffffffffffff1681526020019081526020016000205461283690919063ffffffff16565b6000808473ffffffffffffffffffffffffffffffffffffffff1673ffffffffffffffffffffffffffffffffffffffff168152602001908152602001600020819055508173ffffffffffffffffffffffffffffffffffffffff16600073ffffffffffffffffffffffffffffffffffffffff167fddf252ad1be2c89b69c2b068fc378daa952ba7f163c4a11628f55a4df523b3ef836040518082815260200191505060405180910390a35050565b600080828401905083811015151561284d57600080fd5b8091505092915050565b600080600084141561286c576000915061288e565b828402905082848281151561287d57fe5b0414151561288a57600080fd5b8091505b5092915050565b6000806000831115156128a757600080fd5b82848115156128b257fe5b04905080915050929150505600a165627a7a72305820a28487bcb4de70037a77e1e96b5ae931e7be110f2c9933b170bc34b60b7da2ba0029",
  "source": "pragma solidity >=0.4.21 <0.6.0;\r\n\r\nimport \"./SafeMath.sol\";\r\nimport \"./ERC20.sol\";\r\n\r\ncontract BatteryToken is ERC20 {\r\n    using SafeMath for uint256;\r\n\r\n    //Aadir el cambio de ownership y revisar visibilidad de todo\r\n\r\n    //Variables\r\n    address public owner; //Owner of the contract\r\n    uint256 public timeRef; //Time reference for the hole contract\r\n    uint256 public globalId; //Unique identifier for batteries\r\n    uint256 constant CHARGEPRICE = 7; //Final value depends on the lifeTime of the battery\r\n    uint256 constant PROPOSALTIME = 10 * 1 minutes; //Max time since proposal until execution\r\n\r\n    //struct\r\n    struct Battery {\r\n        uint256 initialValue; //Value of the battery the 0 day\r\n        bool publicDomain; //True si la bateria es publica False privada//cambiar por enum?\r\n        address privateCharger; //If private the battery can be assigned temporary to a charger\r\n        uint256 startTime; //0 day of the battery\r\n    }\r\n\r\n    struct Exchange {\r\n        uint256 itemProposer; //Id of the battery that owns the proposer\r\n        uint256 itemExecuter; //Id of the battery that owns the executer (if 0 is a Sell)\r\n        address proposer;\r\n        address executer;\r\n        uint256 valueProposer; //Vale of the battery that owns the proposer\r\n        uint256 valueExecuter; //Value of the battery that owns the executer (if 0 is a Sell)\r\n        uint256 proposedTime; //Time of proposal\r\n        bool proposed; //True when the exchange is proposed\r\n        bool executed; //True when the exchange is executed\r\n    }\r\n\r\n    //mapping\r\n    mapping(uint256 => address) _batteryOwner;\r\n    mapping(uint256 => Battery) _battery;\r\n    mapping(bytes32 => Exchange) _exchanges;\r\n\r\n    //event\r\n    event MintBat(address own, uint256 id, bool domain, uint time);\r\n    event BurnBat(address own, uint256 id);\r\n    event Proposal(bytes32 proposalId, address emiter, address executer, uint256 itemEmiter, uint256 itemExecuter);\r\n    event Execution(address emiter, address executer, uint256 itemEmiter, uint256 itemExecuter);\r\n\r\n    //modifier\r\n    modifier onlyPublic(uint256 _batId){\r\n        require(_battery[_batId].publicDomain, 'Required public item');\r\n        _;\r\n    }\r\n\r\n    modifier onlyPrivate(uint256 _batId){\r\n        require(!_battery[_batId].publicDomain, 'Required private item');\r\n        _;\r\n    }\r\n\r\n    //Functions\r\n    constructor() public {\r\n        owner = msg.sender;\r\n        timeRef = now;\r\n        _batteryOwner[globalId] = address(0);\r\n        _battery[globalId].publicDomain = false;\r\n        _battery[globalId].startTime = now;\r\n        _battery[globalId].initialValue = 0;\r\n    }\r\n\r\n    //Returns the owner of a battery. If address(0) battery doesn't exist\r\n    function ownerOf(uint256 id) public view returns (address) {\r\n        return _batteryOwner[id];\r\n    }\r\n\r\n    function getBattery(uint256 id) public view returns (bool, uint256, uint256, address) {\r\n        return (_battery[id].publicDomain, _battery[id].startTime, _battery[id].initialValue, _battery[id].privateCharger);\r\n    }\r\n\r\n    function mintBat(bool _publicDomain, uint256 _value) public returns (uint256) {\r\n        //todos pueden aadir baterias? hacer un require para solo algunas address autorizadas?\r\n        globalId = globalId.add(1);\r\n        _batteryOwner[globalId] = msg.sender;\r\n        _battery[globalId].publicDomain = _publicDomain;\r\n        _battery[globalId].startTime = now;\r\n        _battery[globalId].initialValue = _value; //no puede ser fijo, ver cmo hacer!!!!!!!!!!!!!!!!!!!\r\n        emit MintBat(_batteryOwner[globalId], globalId, _battery[globalId].publicDomain, _battery[globalId].startTime);\r\n        return globalId;\r\n    }\r\n\r\n    function burnBat(uint256 id) public returns(bool){\r\n        //Si el mint lo hacen las fabricas los puntos de carga se las compran y cuando estas tengan un valor\r\n        //muuy bajo se las vuelven a vender y las fabricas hacen el burn. Si alguien hace burn antes pierde ese dinero\r\n        require(msg.sender == _batteryOwner[id], 'Only the owner can burn');\r\n        _batteryOwner[id] = address(0);\r\n        //Devolver valor en ether a su cuenta real en Ethers????\r\n        emit BurnBat(msg.sender, id);\r\n        return true;\r\n    }\r\n\r\n    function proposeExchange(uint256 _itemProposer, uint256 _itemExecuter, uint256 proposerChargeLevel, uint256 executerChargeLevel, address _executer) public returns (bytes32) {\r\n        require((msg.sender == _batteryOwner[_itemProposer] || msg.sender == _battery[_itemProposer].privateCharger), 'Msg.sender must be the owner of the 1st item');\r\n        bytes32 _exchangeId = bytes32(keccak256(abi.encodePacked(now, _itemProposer, _itemExecuter, msg.sender, _executer)));\r\n        _exchanges[_exchangeId].itemProposer = _itemProposer;\r\n        _exchanges[_exchangeId].proposer = msg.sender;\r\n        _exchanges[_exchangeId].executer = _executer;\r\n        if (_battery[_itemProposer].publicDomain) {\r\n            _exchanges[_exchangeId].itemExecuter = _itemExecuter;\r\n            _exchanges[_exchangeId].valueProposer = getBatValue(_itemProposer, proposerChargeLevel);\r\n            _exchanges[_exchangeId].valueExecuter = getBatValue(_itemExecuter, executerChargeLevel);\r\n        } else {\r\n            _exchanges[_exchangeId].valueProposer = CHARGEPRICE.mul(proposerChargeLevel).div(100).mul(getBatValue(_itemProposer, 100)).div(_battery[_itemProposer].initialValue);\r\n        }\r\n\r\n        if (_exchanges[_exchangeId].valueProposer <= _exchanges[_exchangeId].valueExecuter){\r\n            super.approve(_executer, _exchanges[_exchangeId].valueProposer.sub(_exchanges[_exchangeId].valueExecuter));\r\n            //redefinir aqui la funcion approve para que si expira el tiempo pierda lo aprobado\r\n            //o para no jugarsela con esto hacer que el ms caro proponga y el mas barato execute\r\n        }\r\n        _exchanges[_exchangeId].proposedTime = now;\r\n        _exchanges[_exchangeId].proposed = true;\r\n        emit Proposal(_exchangeId, msg.sender, _executer, _itemProposer, _itemExecuter);\r\n        return _exchangeId;\r\n    }\r\n\r\n    function executeExchange(bytes32 _exchangeId) public returns (bool) {\r\n        require(_exchanges[_exchangeId].proposed, 'This exchange id does not exist');\r\n        //meter un !executed\r\n        require(msg.sender == _exchanges[_exchangeId].executer, 'msg.sender must be the executer');\r\n        require(now.sub(_exchanges[_exchangeId].proposedTime) < PROPOSALTIME, 'Proposal time expired');\r\n        if (_exchanges[_exchangeId].valueProposer >= _exchanges[_exchangeId].valueExecuter){\r\n            super.transfer(_exchanges[_exchangeId].proposer, _exchanges[_exchangeId].valueProposer.sub(_exchanges[_exchangeId].valueExecuter));\r\n        } else {\r\n            super.transferFrom(_exchanges[_exchangeId].proposer, msg.sender, _exchanges[_exchangeId].valueProposer.sub(_exchanges[_exchangeId].valueExecuter));\r\n        }\r\n        if (_battery[_exchanges[_exchangeId].itemProposer].publicDomain) {\r\n            _batteryOwner[_exchanges[_exchangeId].itemProposer] = msg.sender;\r\n            _batteryOwner[_exchanges[_exchangeId].itemExecuter] = _exchanges[_exchangeId].proposer;\r\n        } else if (msg.sender == _batteryOwner[_exchanges[_exchangeId].itemProposer]) {\r\n            //retirada\r\n            _battery[_exchanges[_exchangeId].itemProposer].privateCharger = address(0);\r\n        } else {\r\n            //entrega al pto carga\r\n            _battery[_exchanges[_exchangeId].itemProposer].privateCharger = msg.sender;\r\n        }\r\n        _exchanges[_exchangeId].executed = true;\r\n        emit Execution(_exchanges[_exchangeId].proposer, msg.sender, _exchanges[_exchangeId].itemProposer, _exchanges[_exchangeId].itemExecuter);\r\n    }\r\n\r\n    function getBatValue(uint256 _itemId, uint256 _itemChargeLevel) public view returns(uint256){\r\n        if (_itemId == 0) {\r\n            return 0;\r\n        } else {\r\n            uint256 value = _battery[_itemId].initialValue\r\n            .sub(now.sub(_battery[_itemId].startTime))\r\n            .add(\r\n              CHARGEPRICE\r\n                .mul(_itemChargeLevel)\r\n                .div(100)\r\n                .mul(_battery[_itemId].initialValue.sub(now.sub(_battery[_itemId].startTime)))\r\n                .div(_battery[_itemId].initialValue)\r\n            );\r\n            require((value >= 0 || value <= _battery[_itemId].initialValue.add(CHARGEPRICE)), \"Bad value\");\r\n            return value;\r\n        }\r\n\r\n    }\r\n\r\n    function mintERC20(uint256 amount) public returns(bool){\r\n        super._mint(msg.sender, amount);\r\n        return true;\r\n    }\r\n\r\n}\r\n",
  "sourcePath": "/home/guillermo/BatteryToken/contracts/BatteryToken.sol",
  "compiler": {
    "name": "solc",
    "version": "0.4.25+commit.59dbf8f1.Emscripten.clang"
  },
  "schemaVersion": "2.0.2",
  "updatedAt": "2019-02-15T16:16:38.147Z"
}