{
  "contractName": "BatteryToken",
  "abi": [
    {
      "constant": false,
      "inputs": [
        {
          "name": "spender",
          "type": "address"
        },
        {
          "name": "value",
          "type": "uint256"
        }
      ],
      "name": "approve",
      "outputs": [
        {
          "name": "",
          "type": "bool"
        }
      ],
      "payable": false,
      "stateMutability": "nonpayable",
      "type": "function"
    },
    {
      "constant": true,
      "inputs": [],
      "name": "totalSupply",
      "outputs": [
        {
          "name": "",
          "type": "uint256"
        }
      ],
      "payable": false,
      "stateMutability": "view",
      "type": "function"
    },
    {
      "constant": false,
      "inputs": [
        {
          "name": "from",
          "type": "address"
        },
        {
          "name": "to",
          "type": "address"
        },
        {
          "name": "value",
          "type": "uint256"
        }
      ],
      "name": "transferFrom",
      "outputs": [
        {
          "name": "",
          "type": "bool"
        }
      ],
      "payable": false,
      "stateMutability": "nonpayable",
      "type": "function"
    },
    {
      "constant": false,
      "inputs": [
        {
          "name": "spender",
          "type": "address"
        },
        {
          "name": "addedValue",
          "type": "uint256"
        }
      ],
      "name": "increaseAllowance",
      "outputs": [
        {
          "name": "",
          "type": "bool"
        }
      ],
      "payable": false,
      "stateMutability": "nonpayable",
      "type": "function"
    },
    {
      "constant": false,
      "inputs": [],
      "name": "kill",
      "outputs": [],
      "payable": false,
      "stateMutability": "nonpayable",
      "type": "function"
    },
    {
      "constant": true,
      "inputs": [
        {
          "name": "owner",
          "type": "address"
        }
      ],
      "name": "balanceOf",
      "outputs": [
        {
          "name": "",
          "type": "uint256"
        }
      ],
      "payable": false,
      "stateMutability": "view",
      "type": "function"
    },
    {
      "constant": true,
      "inputs": [],
      "name": "owner",
      "outputs": [
        {
          "name": "",
          "type": "address"
        }
      ],
      "payable": false,
      "stateMutability": "view",
      "type": "function"
    },
    {
      "constant": false,
      "inputs": [
        {
          "name": "spender",
          "type": "address"
        },
        {
          "name": "subtractedValue",
          "type": "uint256"
        }
      ],
      "name": "decreaseAllowance",
      "outputs": [
        {
          "name": "",
          "type": "bool"
        }
      ],
      "payable": false,
      "stateMutability": "nonpayable",
      "type": "function"
    },
    {
      "constant": false,
      "inputs": [
        {
          "name": "to",
          "type": "address"
        },
        {
          "name": "value",
          "type": "uint256"
        }
      ],
      "name": "transfer",
      "outputs": [
        {
          "name": "",
          "type": "bool"
        }
      ],
      "payable": false,
      "stateMutability": "nonpayable",
      "type": "function"
    },
    {
      "constant": true,
      "inputs": [],
      "name": "globalId",
      "outputs": [
        {
          "name": "",
          "type": "uint256"
        }
      ],
      "payable": false,
      "stateMutability": "view",
      "type": "function"
    },
    {
      "constant": true,
      "inputs": [],
      "name": "timeRef",
      "outputs": [
        {
          "name": "",
          "type": "uint256"
        }
      ],
      "payable": false,
      "stateMutability": "view",
      "type": "function"
    },
    {
      "constant": true,
      "inputs": [
        {
          "name": "owner",
          "type": "address"
        },
        {
          "name": "spender",
          "type": "address"
        }
      ],
      "name": "allowance",
      "outputs": [
        {
          "name": "",
          "type": "uint256"
        }
      ],
      "payable": false,
      "stateMutability": "view",
      "type": "function"
    },
    {
      "constant": false,
      "inputs": [
        {
          "name": "newOwner",
          "type": "address"
        }
      ],
      "name": "transferOwnership",
      "outputs": [],
      "payable": false,
      "stateMutability": "nonpayable",
      "type": "function"
    },
    {
      "inputs": [],
      "payable": false,
      "stateMutability": "nonpayable",
      "type": "constructor"
    },
    {
      "anonymous": false,
      "inputs": [
        {
          "indexed": false,
          "name": "own",
          "type": "address"
        },
        {
          "indexed": false,
          "name": "id",
          "type": "uint256"
        },
        {
          "indexed": false,
          "name": "domain",
          "type": "bool"
        },
        {
          "indexed": false,
          "name": "time",
          "type": "uint256"
        }
      ],
      "name": "MintBat",
      "type": "event"
    },
    {
      "anonymous": false,
      "inputs": [
        {
          "indexed": false,
          "name": "own",
          "type": "address"
        },
        {
          "indexed": false,
          "name": "id",
          "type": "uint256"
        }
      ],
      "name": "BurnBat",
      "type": "event"
    },
    {
      "anonymous": false,
      "inputs": [
        {
          "indexed": false,
          "name": "proposalId",
          "type": "bytes32"
        },
        {
          "indexed": false,
          "name": "emiter",
          "type": "address"
        },
        {
          "indexed": false,
          "name": "executer",
          "type": "address"
        },
        {
          "indexed": false,
          "name": "itemEmiter",
          "type": "uint256"
        },
        {
          "indexed": false,
          "name": "itemExecuter",
          "type": "uint256"
        }
      ],
      "name": "Proposal",
      "type": "event"
    },
    {
      "anonymous": false,
      "inputs": [
        {
          "indexed": false,
          "name": "emiter",
          "type": "address"
        },
        {
          "indexed": false,
          "name": "executer",
          "type": "address"
        },
        {
          "indexed": false,
          "name": "itemEmiter",
          "type": "uint256"
        },
        {
          "indexed": false,
          "name": "itemExecuter",
          "type": "uint256"
        }
      ],
      "name": "Execution",
      "type": "event"
    },
    {
      "anonymous": false,
      "inputs": [
        {
          "indexed": false,
          "name": "proposalId",
          "type": "bytes32"
        }
      ],
      "name": "Cancellation",
      "type": "event"
    },
    {
      "anonymous": false,
      "inputs": [
        {
          "indexed": false,
          "name": "",
          "type": "uint256"
        },
        {
          "indexed": false,
          "name": "",
          "type": "uint256"
        },
        {
          "indexed": false,
          "name": "",
          "type": "uint256"
        }
      ],
      "name": "Debug",
      "type": "event"
    },
    {
      "anonymous": false,
      "inputs": [
        {
          "indexed": true,
          "name": "from",
          "type": "address"
        },
        {
          "indexed": true,
          "name": "to",
          "type": "address"
        },
        {
          "indexed": false,
          "name": "value",
          "type": "uint256"
        }
      ],
      "name": "Transfer",
      "type": "event"
    },
    {
      "anonymous": false,
      "inputs": [
        {
          "indexed": true,
          "name": "owner",
          "type": "address"
        },
        {
          "indexed": true,
          "name": "spender",
          "type": "address"
        },
        {
          "indexed": false,
          "name": "value",
          "type": "uint256"
        }
      ],
      "name": "Approval",
      "type": "event"
    },
    {
      "constant": true,
      "inputs": [
        {
          "name": "who",
          "type": "address"
        }
      ],
      "name": "batteriesOfOwner",
      "outputs": [
        {
          "name": "",
          "type": "uint256[]"
        }
      ],
      "payable": false,
      "stateMutability": "view",
      "type": "function"
    },
    {
      "constant": true,
      "inputs": [
        {
          "name": "id",
          "type": "uint256"
        }
      ],
      "name": "ownerOf",
      "outputs": [
        {
          "name": "",
          "type": "address"
        }
      ],
      "payable": false,
      "stateMutability": "view",
      "type": "function"
    },
    {
      "constant": true,
      "inputs": [
        {
          "name": "id",
          "type": "uint256"
        }
      ],
      "name": "getBattery",
      "outputs": [
        {
          "name": "",
          "type": "bool"
        },
        {
          "name": "",
          "type": "uint256"
        },
        {
          "name": "",
          "type": "uint256"
        },
        {
          "name": "",
          "type": "address"
        }
      ],
      "payable": false,
      "stateMutability": "view",
      "type": "function"
    },
    {
      "constant": false,
      "inputs": [
        {
          "name": "domain",
          "type": "bool"
        },
        {
          "name": "value",
          "type": "uint256"
        }
      ],
      "name": "mintBat",
      "outputs": [
        {
          "name": "",
          "type": "uint256"
        }
      ],
      "payable": false,
      "stateMutability": "nonpayable",
      "type": "function"
    },
    {
      "constant": false,
      "inputs": [
        {
          "name": "id",
          "type": "uint256"
        }
      ],
      "name": "burnBat",
      "outputs": [],
      "payable": false,
      "stateMutability": "nonpayable",
      "type": "function"
    },
    {
      "constant": false,
      "inputs": [
        {
          "name": "itemProposer",
          "type": "uint256"
        },
        {
          "name": "itemExecuter",
          "type": "uint256"
        },
        {
          "name": "proposerChargeLevel",
          "type": "uint256"
        },
        {
          "name": "executerChargeLevel",
          "type": "uint256"
        },
        {
          "name": "executer",
          "type": "address"
        }
      ],
      "name": "proposeExchange",
      "outputs": [
        {
          "name": "",
          "type": "bytes32"
        }
      ],
      "payable": false,
      "stateMutability": "nonpayable",
      "type": "function"
    },
    {
      "constant": false,
      "inputs": [
        {
          "name": "exchangeId",
          "type": "bytes32"
        }
      ],
      "name": "executeExchange",
      "outputs": [],
      "payable": false,
      "stateMutability": "nonpayable",
      "type": "function"
    },
    {
      "constant": false,
      "inputs": [
        {
          "name": "exchangeId",
          "type": "bytes32"
        }
      ],
      "name": "cancelProposal",
      "outputs": [],
      "payable": false,
      "stateMutability": "nonpayable",
      "type": "function"
    },
    {
      "constant": true,
      "inputs": [
        {
          "name": "itemId",
          "type": "uint256"
        },
        {
          "name": "itemChargeLevel",
          "type": "uint256"
        }
      ],
      "name": "getBatValue",
      "outputs": [
        {
          "name": "",
          "type": "uint256"
        }
      ],
      "payable": false,
      "stateMutability": "view",
      "type": "function"
    },
    {
      "constant": false,
      "inputs": [
        {
          "name": "amount",
          "type": "uint256"
        }
      ],
      "name": "mintERC20",
      "outputs": [
        {
          "name": "",
          "type": "bool"
        }
      ],
      "payable": false,
      "stateMutability": "nonpayable",
      "type": "function"
    },
    {
      "constant": false,
      "inputs": [
        {
          "name": "newOwner",
          "type": "address"
        },
        {
          "name": "id",
          "type": "uint256"
        }
      ],
      "name": "changeBatteryOwner",
      "outputs": [],
      "payable": false,
      "stateMutability": "nonpayable",
      "type": "function"
    }
  ],
  "bytecode": "0x608060405234801561001057600080fd5b5033600360006101000a81548173ffffffffffffffffffffffffffffffffffffffff021916908373ffffffffffffffffffffffffffffffffffffffff16021790555033600460006101000a81548173ffffffffffffffffffffffffffffffffffffffff021916908373ffffffffffffffffffffffffffffffffffffffff16021790555033600560006101000a81548173ffffffffffffffffffffffffffffffffffffffff021916908373ffffffffffffffffffffffffffffffffffffffff16021790555042600681905550600060086000600754815260200190815260200160002060006101000a81548173ffffffffffffffffffffffffffffffffffffffff021916908373ffffffffffffffffffffffffffffffffffffffff160217905550600060096000600754815260200190815260200160002060010160006101000a81548160ff0219169083151502179055504260096000600754815260200190815260200160002060020181905550600060096000600754815260200190815260200160002060000181905550600a60008073ffffffffffffffffffffffffffffffffffffffff1673ffffffffffffffffffffffffffffffffffffffff16815260200190815260200160002060075490806001815401808255809150509060018203906000526020600020016000909192909190915055600b6000600754815260200190815260200160002081905550614d908061022e6000396000f30060806040526004361061013e576000357c0100000000000000000000000000000000000000000000000000000000900463ffffffff168063095ea7b31461014357806318160ddd146101a857806323b872dd146101d357806335dcc4a41461025857806337376ca81461029d57806339509351146102ce57806341c0e1b5146103335780636352211e1461034a57806370a08231146103b757806372850a9b1461040e578063807e7c04146104955780638da5cb5b1461051b5780639c09668414610572578063a457c2d71461059f578063a9059cbb14610604578063b7ba939914610669578063b859f726146106b6578063ca66682314610701578063cb3c3c0b1461072c578063dd62ed3e14610757578063e293f616146107ce578063ef36d2b414610866578063f0f89936146108b3578063f2fde38b146108e4575b600080fd5b34801561014f57600080fd5b5061018e600480360381019080803573ffffffffffffffffffffffffffffffffffffffff16906020019092919080359060200190929190505050610927565b604051808215151515815260200191505060405180910390f35b3480156101b457600080fd5b506101bd610a54565b6040518082815260200191505060405180910390f35b3480156101df57600080fd5b5061023e600480360381019080803573ffffffffffffffffffffffffffffffffffffffff169060200190929190803573ffffffffffffffffffffffffffffffffffffffff16906020019092919080359060200190929190505050610a5e565b604051808215151515815260200191505060405180910390f35b34801561026457600080fd5b5061028360048036038101908080359060200190929190505050610c10565b604051808215151515815260200191505060405180910390f35b3480156102a957600080fd5b506102cc6004803603810190808035600019169060200190929190505050610c25565b005b3480156102da57600080fd5b50610319600480360381019080803573ffffffffffffffffffffffffffffffffffffffff16906020019092919080359060200190929190505050610eef565b604051808215151515815260200191505060405180910390f35b34801561033f57600080fd5b50610348611126565b005b34801561035657600080fd5b5061037560048036038101908080359060200190929190505050611197565b604051808273ffffffffffffffffffffffffffffffffffffffff1673ffffffffffffffffffffffffffffffffffffffff16815260200191505060405180910390f35b3480156103c357600080fd5b506103f8600480360381019080803573ffffffffffffffffffffffffffffffffffffffff1690602001909291905050506111d4565b6040518082815260200191505060405180910390f35b34801561041a57600080fd5b5061047760048036038101908080359060200190929190803590602001909291908035906020019092919080359060200190929190803573ffffffffffffffffffffffffffffffffffffffff16906020019092919050505061121c565b60405180826000191660001916815260200191505060405180910390f35b3480156104a157600080fd5b506104c06004803603810190808035906020019092919050505061187c565b60405180851515151581526020018481526020018381526020018273ffffffffffffffffffffffffffffffffffffffff1673ffffffffffffffffffffffffffffffffffffffff16815260200194505050505060405180910390f35b34801561052757600080fd5b5061053061191a565b604051808273ffffffffffffffffffffffffffffffffffffffff1673ffffffffffffffffffffffffffffffffffffffff16815260200191505060405180910390f35b34801561057e57600080fd5b5061059d60048036038101908080359060200190929190505050611940565b005b3480156105ab57600080fd5b506105ea600480360381019080803573ffffffffffffffffffffffffffffffffffffffff16906020019092919080359060200190929190505050611ae1565b604051808215151515815260200191505060405180910390f35b34801561061057600080fd5b5061064f600480360381019080803573ffffffffffffffffffffffffffffffffffffffff16906020019092919080359060200190929190505050611d18565b604051808215151515815260200191505060405180910390f35b34801561067557600080fd5b506106a060048036038101908080351515906020019092919080359060200190929190505050611d2f565b6040518082815260200191505060405180910390f35b3480156106c257600080fd5b506106eb6004803603810190808035906020019092919080359060200190929190505050611f8c565b6040518082815260200191505060405180910390f35b34801561070d57600080fd5b50610716612187565b6040518082815260200191505060405180910390f35b34801561073857600080fd5b5061074161218d565b6040518082815260200191505060405180910390f35b34801561076357600080fd5b506107b8600480360381019080803573ffffffffffffffffffffffffffffffffffffffff169060200190929190803573ffffffffffffffffffffffffffffffffffffffff169060200190929190505050612193565b6040518082815260200191505060405180910390f35b3480156107da57600080fd5b5061080f600480360381019080803573ffffffffffffffffffffffffffffffffffffffff16906020019092919050505061221a565b6040518080602001828103825283818151815260200191508051906020019060200280838360005b83811015610852578082015181840152602081019050610837565b505050509050019250505060405180910390f35b34801561087257600080fd5b506108b1600480360381019080803573ffffffffffffffffffffffffffffffffffffffff169060200190929190803590602001909291905050506122b1565b005b3480156108bf57600080fd5b506108e26004803603810190808035600019169060200190929190505050612466565b005b3480156108f057600080fd5b50610925600480360381019080803573ffffffffffffffffffffffffffffffffffffffff1690602001909291905050506128ca565b005b60008073ffffffffffffffffffffffffffffffffffffffff168373ffffffffffffffffffffffffffffffffffffffff161415151561096457600080fd5b81600160003373ffffffffffffffffffffffffffffffffffffffff1673ffffffffffffffffffffffffffffffffffffffff16815260200190815260200160002060008573ffffffffffffffffffffffffffffffffffffffff1673ffffffffffffffffffffffffffffffffffffffff168152602001908152602001600020819055508273ffffffffffffffffffffffffffffffffffffffff163373ffffffffffffffffffffffffffffffffffffffff167f8c5be1e5ebec7d5bd14f71427d1e84f3dd0314c0f7b2291e5b200ac8c7c3b925846040518082815260200191505060405180910390a36001905092915050565b6000600254905090565b6000600160008573ffffffffffffffffffffffffffffffffffffffff1673ffffffffffffffffffffffffffffffffffffffff16815260200190815260200160002060003373ffffffffffffffffffffffffffffffffffffffff1673ffffffffffffffffffffffffffffffffffffffff168152602001908152602001600020548211151515610aeb57600080fd5b610b7a82600160008773ffffffffffffffffffffffffffffffffffffffff1673ffffffffffffffffffffffffffffffffffffffff16815260200190815260200160002060003373ffffffffffffffffffffffffffffffffffffffff1673ffffffffffffffffffffffffffffffffffffffff1681526020019081526020016000205461296a90919063ffffffff16565b600160008673ffffffffffffffffffffffffffffffffffffffff1673ffffffffffffffffffffffffffffffffffffffff16815260200190815260200160002060003373ffffffffffffffffffffffffffffffffffffffff1673ffffffffffffffffffffffffffffffffffffffff16815260200190815260200160002081905550610c0584848461298b565b600190509392505050565b6000610c1c3383612ba4565b60019050919050565b600c6000826000191660001916815260200190815260200160002060070160009054906101000a900460ff161515610cc5576040517f08c379a000000000000000000000000000000000000000000000000000000000815260040180806020018281038252601f8152602001807f546869732065786368616e676520696420646f6573206e6f742065786973740081525060200191505060405180910390fd5b600c6000826000191660001916815260200190815260200160002060070160019054906101000a900460ff16151515610d66576040517f08c379a00000000000000000000000000000000000000000000000000000000081526004018080602001828103825260108152602001807f416c72656164792065786563757465640000000000000000000000000000000081525060200191505060405180910390fd5b600c6000826000191660001916815260200190815260200160002060020160009054906101000a900473ffffffffffffffffffffffffffffffffffffffff1673ffffffffffffffffffffffffffffffffffffffff163373ffffffffffffffffffffffffffffffffffffffff16141515610e47576040517f08c379a00000000000000000000000000000000000000000000000000000000081526004018080602001828103825260108152602001807f57726f6e67206d73672e73656e6465720000000000000000000000000000000081525060200191505060405180910390fd5b610e4f612ce2565b610e76600c6000836000191660001916815260200190815260200160002060000154612f4f565b6001600c6000836000191660001916815260200190815260200160002060070160026101000a81548160ff0219169083151502179055507fbca2885d81f38744d778177014656fadaf8db5de172de50e21d4ca0e1b8449958160405180826000191660001916815260200191505060405180910390a150565b60008073ffffffffffffffffffffffffffffffffffffffff168373ffffffffffffffffffffffffffffffffffffffff1614151515610f2c57600080fd5b610fbb82600160003373ffffffffffffffffffffffffffffffffffffffff1673ffffffffffffffffffffffffffffffffffffffff16815260200190815260200160002060008673ffffffffffffffffffffffffffffffffffffffff1673ffffffffffffffffffffffffffffffffffffffff1681526020019081526020016000205461323d90919063ffffffff16565b600160003373ffffffffffffffffffffffffffffffffffffffff1673ffffffffffffffffffffffffffffffffffffffff16815260200190815260200160002060008573ffffffffffffffffffffffffffffffffffffffff1673ffffffffffffffffffffffffffffffffffffffff168152602001908152602001600020819055508273ffffffffffffffffffffffffffffffffffffffff163373ffffffffffffffffffffffffffffffffffffffff167f8c5be1e5ebec7d5bd14f71427d1e84f3dd0314c0f7b2291e5b200ac8c7c3b925600160003373ffffffffffffffffffffffffffffffffffffffff1673ffffffffffffffffffffffffffffffffffffffff16815260200190815260200160002060008773ffffffffffffffffffffffffffffffffffffffff1673ffffffffffffffffffffffffffffffffffffffff168152602001908152602001600020546040518082815260200191505060405180910390a36001905092915050565b600460009054906101000a900473ffffffffffffffffffffffffffffffffffffffff1673ffffffffffffffffffffffffffffffffffffffff163373ffffffffffffffffffffffffffffffffffffffff161415611195573373ffffffffffffffffffffffffffffffffffffffff16ff5b565b60006008600083815260200190815260200160002060009054906101000a900473ffffffffffffffffffffffffffffffffffffffff169050919050565b60008060008373ffffffffffffffffffffffffffffffffffffffff1673ffffffffffffffffffffffffffffffffffffffff168152602001908152602001600020549050919050565b6000806008600088815260200190815260200160002060009054906101000a900473ffffffffffffffffffffffffffffffffffffffff1673ffffffffffffffffffffffffffffffffffffffff163373ffffffffffffffffffffffffffffffffffffffff1614806112ed57506009600088815260200190815260200160002060010160019054906101000a900473ffffffffffffffffffffffffffffffffffffffff1673ffffffffffffffffffffffffffffffffffffffff163373ffffffffffffffffffffffffffffffffffffffff16145b1515611361576040517f08c379a00000000000000000000000000000000000000000000000000000000081526004018080602001828103825260108152602001807f57726f6e67206d73672e73656e6465720000000000000000000000000000000081525060200191505060405180910390fd5b4287873386604051602001808681526020018581526020018481526020018373ffffffffffffffffffffffffffffffffffffffff1673ffffffffffffffffffffffffffffffffffffffff166c010000000000000000000000000281526014018273ffffffffffffffffffffffffffffffffffffffff1673ffffffffffffffffffffffffffffffffffffffff166c01000000000000000000000000028152601401955050505050506040516020818303038152906040526040518082805190602001908083835b60208310151561144c5780518252602082019150602081019050602083039250611427565b6001836020036101000a0380198251168184511680821785525050505050509050019150506040518091039020905086600c600083600019166000191681526020019081526020016000206000018190555033600c6000836000191660001916815260200190815260200160002060020160006101000a81548173ffffffffffffffffffffffffffffffffffffffff021916908373ffffffffffffffffffffffffffffffffffffffff16021790555082600c6000836000191660001916815260200190815260200160002060030160006101000a81548173ffffffffffffffffffffffffffffffffffffffff021916908373ffffffffffffffffffffffffffffffffffffffff1602179055506009600088815260200190815260200160002060010160009054906101000a900460ff16156116015785600c60008360001916600019168152602001908152602001600020600101819055506115ae8786611f8c565b600c60008360001916600019168152602001908152602001600020600401819055506115da8685611f8c565b600c600083600019166000191681526020019081526020016000206005018190555061168f565b61166c600960008981526020019081526020016000206000015461165e6116298a6064611f8c565b61165060646116428b600761325e90919063ffffffff16565b61329c90919063ffffffff16565b61325e90919063ffffffff16565b61329c90919063ffffffff16565b600c60008360001916600019168152602001908152602001600020600401819055505b600c6000826000191660001916815260200190815260200160002060050154600c6000836000191660001916815260200190815260200160002060040154101561172b5761172a611725600c6000846000191660001916815260200190815260200160002060040154600c600085600019166000191681526020019081526020016000206005015461296a90919063ffffffff16565b6132c6565b5b6009600088815260200190815260200160002060010160009054906101000a900460ff161561175e5761175d87613462565b5b42600c60008360001916600019168152602001908152602001600020600601819055506001600c6000836000191660001916815260200190815260200160002060070160006101000a81548160ff0219169083151502179055507f5d23a63c0c310733b5582e295d2a2a6b53c335c58ac9d8224f0a319dc161d9998133858a8a6040518086600019166000191681526020018573ffffffffffffffffffffffffffffffffffffffff1673ffffffffffffffffffffffffffffffffffffffff1681526020018473ffffffffffffffffffffffffffffffffffffffff1673ffffffffffffffffffffffffffffffffffffffff1681526020018381526020018281526020019550505050505060405180910390a18091505095945050505050565b6000806000806009600086815260200190815260200160002060010160009054906101000a900460ff16600960008781526020019081526020016000206002015460096000888152602001908152602001600020600001546009600089815260200190815260200160002060010160019054906101000a900473ffffffffffffffffffffffffffffffffffffffff1693509350935093509193509193565b600560009054906101000a900473ffffffffffffffffffffffffffffffffffffffff1681565b6008600082815260200190815260200160002060009054906101000a900473ffffffffffffffffffffffffffffffffffffffff1673ffffffffffffffffffffffffffffffffffffffff163373ffffffffffffffffffffffffffffffffffffffff16141515611a16576040517f08c379a00000000000000000000000000000000000000000000000000000000081526004018080602001828103825260178152602001807f4f6e6c7920746865206f776e65722063616e206275726e00000000000000000081525060200191505060405180910390fd5b60006008600083815260200190815260200160002060006101000a81548173ffffffffffffffffffffffffffffffffffffffff021916908373ffffffffffffffffffffffffffffffffffffffff160217905550611a738133613597565b7f237e464a2b45d5e0aba2ed4c81141d97ed69f8d97751294a3f2d3698f0647f093382604051808373ffffffffffffffffffffffffffffffffffffffff1673ffffffffffffffffffffffffffffffffffffffff1681526020018281526020019250505060405180910390a150565b60008073ffffffffffffffffffffffffffffffffffffffff168373ffffffffffffffffffffffffffffffffffffffff1614151515611b1e57600080fd5b611bad82600160003373ffffffffffffffffffffffffffffffffffffffff1673ffffffffffffffffffffffffffffffffffffffff16815260200190815260200160002060008673ffffffffffffffffffffffffffffffffffffffff1673ffffffffffffffffffffffffffffffffffffffff1681526020019081526020016000205461296a90919063ffffffff16565b600160003373ffffffffffffffffffffffffffffffffffffffff1673ffffffffffffffffffffffffffffffffffffffff16815260200190815260200160002060008573ffffffffffffffffffffffffffffffffffffffff1673ffffffffffffffffffffffffffffffffffffffff168152602001908152602001600020819055508273ffffffffffffffffffffffffffffffffffffffff163373ffffffffffffffffffffffffffffffffffffffff167f8c5be1e5ebec7d5bd14f71427d1e84f3dd0314c0f7b2291e5b200ac8c7c3b925600160003373ffffffffffffffffffffffffffffffffffffffff1673ffffffffffffffffffffffffffffffffffffffff16815260200190815260200160002060008773ffffffffffffffffffffffffffffffffffffffff1673ffffffffffffffffffffffffffffffffffffffff168152602001908152602001600020546040518082815260200191505060405180910390a36001905092915050565b6000611d2533848461298b565b6001905092915050565b6000611d47600160075461323d90919063ffffffff16565b6007819055503360086000600754815260200190815260200160002060006101000a81548173ffffffffffffffffffffffffffffffffffffffff021916908373ffffffffffffffffffffffffffffffffffffffff1602179055508260096000600754815260200190815260200160002060010160006101000a81548160ff02191690831515021790555042600960006007548152602001908152602001600020600201819055508160096000600754815260200190815260200160002060000181905550600a60003373ffffffffffffffffffffffffffffffffffffffff1673ffffffffffffffffffffffffffffffffffffffff16815260200190815260200160002060075490806001815401808255809150509060018203906000526020600020016000909192909190915055600b60006007548152602001908152602001600020819055507f8ceed64cd2f26c60e408da38d3e5f24fea4d39240e9ed6f2f497d6174bdaf98360086000600754815260200190815260200160002060009054906101000a900473ffffffffffffffffffffffffffffffffffffffff1660075460096000600754815260200190815260200160002060010160009054906101000a900460ff1660096000600754815260200190815260200160002060020154604051808573ffffffffffffffffffffffffffffffffffffffff1673ffffffffffffffffffffffffffffffffffffffff1681526020018481526020018315151515815260200182815260200194505050505060405180910390a1600754905092915050565b600080600083101580611fa0575060648311155b1515612014576040517f08c379a00000000000000000000000000000000000000000000000000000000081526004018080602001828103825260108152602001807f42616420636861726765206c6576656c0000000000000000000000000000000081525060200191505060405180910390fd5b60008414156120265760009150612180565b6121396120da60096000878152602001908152602001600020600001546120cc612097612072600960008b8152602001908152602001600020600201544261296a90919063ffffffff16565b600960008b81526020019081526020016000206000015461296a90919063ffffffff16565b6120be60646120b08a600761325e90919063ffffffff16565b61329c90919063ffffffff16565b61325e90919063ffffffff16565b61329c90919063ffffffff16565b61212b61210660096000898152602001908152602001600020600201544261296a90919063ffffffff16565b600960008981526020019081526020016000206000015461296a90919063ffffffff16565b61323d90919063ffffffff16565b905060008110158061217457506121706007600960008781526020019081526020016000206000015461323d90919063ffffffff16565b8111155b151561217c57fe5b8091505b5092915050565b60075481565b60065481565b6000600160008473ffffffffffffffffffffffffffffffffffffffff1673ffffffffffffffffffffffffffffffffffffffff16815260200190815260200160002060008373ffffffffffffffffffffffffffffffffffffffff1673ffffffffffffffffffffffffffffffffffffffff16815260200190815260200160002054905092915050565b6060600a60008373ffffffffffffffffffffffffffffffffffffffff1673ffffffffffffffffffffffffffffffffffffffff1681526020019081526020016000208054806020026020016040519081016040528092919081815260200182805480156122a557602002820191906000526020600020905b815481526020019060010190808311612291575b50505050509050919050565b6008600082815260200190815260200160002060009054906101000a900473ffffffffffffffffffffffffffffffffffffffff1673ffffffffffffffffffffffffffffffffffffffff163373ffffffffffffffffffffffffffffffffffffffff16141515612387576040517f08c379a00000000000000000000000000000000000000000000000000000000081526004018080602001828103825260178152602001807f4e6f7420746865206f776e657220746f206368616e676500000000000000000081525060200191505060405180910390fd5b6123918133613597565b816008600083815260200190815260200160002060006101000a81548173ffffffffffffffffffffffffffffffffffffffff021916908373ffffffffffffffffffffffffffffffffffffffff160217905550600a60008373ffffffffffffffffffffffffffffffffffffffff1673ffffffffffffffffffffffffffffffffffffffff1681526020019081526020016000208190806001815401808255809150509060018203906000526020600020016000909192909190915055600b6000838152602001908152602001600020819055505050565b600c6000826000191660001916815260200190815260200160002060070160009054906101000a900460ff161515612506576040517f08c379a000000000000000000000000000000000000000000000000000000000815260040180806020018281038252601f8152602001807f546869732065786368616e676520696420646f6573206e6f742065786973740081525060200191505060405180910390fd5b600c6000826000191660001916815260200190815260200160002060070160019054906101000a900460ff161515156125a7576040517f08c379a00000000000000000000000000000000000000000000000000000000081526004018080602001828103825260108152602001807f416c72656164792065786563757465640000000000000000000000000000000081525060200191505060405180910390fd5b600c6000826000191660001916815260200190815260200160002060070160029054906101000a900460ff16151515612648576040517f08c379a00000000000000000000000000000000000000000000000000000000081526004018080602001828103825260138152602001807f457865637574696f6e2063616e63656c6c65640000000000000000000000000081525060200191505060405180910390fd5b600c6000826000191660001916815260200190815260200160002060030160009054906101000a900473ffffffffffffffffffffffffffffffffffffffff1673ffffffffffffffffffffffffffffffffffffffff163373ffffffffffffffffffffffffffffffffffffffff16141515612729576040517f08c379a000000000000000000000000000000000000000000000000000000000815260040180806020018281038252601f8152602001807f6d73672e73656e646572206d757374206265207468652065786563757465720081525060200191505060405180910390fd5b61025861275d600c60008460001916600019168152602001908152602001600020600601544261296a90919063ffffffff16565b1015156127d2576040517f08c379a00000000000000000000000000000000000000000000000000000000081526004018080602001828103825260158152602001807f50726f706f73616c2074696d652065787069726564000000000000000000000081525060200191505060405180910390fd5b600c6000826000191660001916815260200190815260200160002060050154600c6000836000191660001916815260200190815260200160002060040154111561286e5761286d612868600c6000846000191660001916815260200190815260200160002060050154600c600085600019166000191681526020019081526020016000206004015461296a90919063ffffffff16565b6132c6565b5b6000600c60008360001916600019168152602001908152602001600020600101541415156128be576128bd600c6000836000191660001916815260200190815260200160002060010154613462565b5b6128c781613849565b50565b600360009054906101000a900473ffffffffffffffffffffffffffffffffffffffff1673ffffffffffffffffffffffffffffffffffffffff163373ffffffffffffffffffffffffffffffffffffffff1614151561292657600080fd5b80600360006101000a81548173ffffffffffffffffffffffffffffffffffffffff021916908373ffffffffffffffffffffffffffffffffffffffff16021790555050565b60008083831115151561297c57600080fd5b82840390508091505092915050565b6000808473ffffffffffffffffffffffffffffffffffffffff1673ffffffffffffffffffffffffffffffffffffffff1681526020019081526020016000205481111515156129d857600080fd5b600073ffffffffffffffffffffffffffffffffffffffff168273ffffffffffffffffffffffffffffffffffffffff1614151515612a1457600080fd5b612a65816000808673ffffffffffffffffffffffffffffffffffffffff1673ffffffffffffffffffffffffffffffffffffffff1681526020019081526020016000205461296a90919063ffffffff16565b6000808573ffffffffffffffffffffffffffffffffffffffff1673ffffffffffffffffffffffffffffffffffffffff16815260200190815260200160002081905550612af8816000808573ffffffffffffffffffffffffffffffffffffffff1673ffffffffffffffffffffffffffffffffffffffff1681526020019081526020016000205461323d90919063ffffffff16565b6000808473ffffffffffffffffffffffffffffffffffffffff1673ffffffffffffffffffffffffffffffffffffffff168152602001908152602001600020819055508173ffffffffffffffffffffffffffffffffffffffff168373ffffffffffffffffffffffffffffffffffffffff167fddf252ad1be2c89b69c2b068fc378daa952ba7f163c4a11628f55a4df523b3ef836040518082815260200191505060405180910390a3505050565b60008273ffffffffffffffffffffffffffffffffffffffff1614151515612bca57600080fd5b612bdf8160025461323d90919063ffffffff16565b600281905550612c36816000808573ffffffffffffffffffffffffffffffffffffffff1673ffffffffffffffffffffffffffffffffffffffff1681526020019081526020016000205461323d90919063ffffffff16565b6000808473ffffffffffffffffffffffffffffffffffffffff1673ffffffffffffffffffffffffffffffffffffffff168152602001908152602001600020819055508173ffffffffffffffffffffffffffffffffffffffff16600073ffffffffffffffffffffffffffffffffffffffff167fddf252ad1be2c89b69c2b068fc378daa952ba7f163c4a11628f55a4df523b3ef836040518082815260200191505060405180910390a35050565b6000600d60003373ffffffffffffffffffffffffffffffffffffffff1673ffffffffffffffffffffffffffffffffffffffff16815260200190815260200160002054141515612f4d573073ffffffffffffffffffffffffffffffffffffffff1633600d60003373ffffffffffffffffffffffffffffffffffffffff1673ffffffffffffffffffffffffffffffffffffffff16815260200190815260200160002054604051602401808373ffffffffffffffffffffffffffffffffffffffff1673ffffffffffffffffffffffffffffffffffffffff168152602001828152602001925050506040516020818303038152906040527fa9059cbb000000000000000000000000000000000000000000000000000000007bffffffffffffffffffffffffffffffffffffffffffffffffffffffff19166020820180517bffffffffffffffffffffffffffffffffffffffffffffffffffffffff838183161783525050505060405180828051906020019080838360005b83811015612e70578082015181840152602081019050612e55565b50505050905090810190601f168015612e9d5780820380516001836020036101000a031916815260200191505b509150506000604051808303816000865af19150501515612f4c576040517f08c379a000000000000000000000000000000000000000000000000000000000815260040180806020018281038252602e8152602001807f4572726f72207768656e207472616e736665722066726f6d20636f6e7472616381526020017f7420746f206d736773656e64657200000000000000000000000000000000000081525060400191505060405180910390fd5b5b565b600e600082815260200190815260200160002060009054906101000a900473ffffffffffffffffffffffffffffffffffffffff1673ffffffffffffffffffffffffffffffffffffffff163373ffffffffffffffffffffffffffffffffffffffff16141515613025576040517f08c379a00000000000000000000000000000000000000000000000000000000081526004018080602001828103825260178152602001807f4e6f7420746865206f776e657220746f20756e6c6f636b00000000000000000081525060200191505060405180910390fd5b3073ffffffffffffffffffffffffffffffffffffffff16600e600083815260200190815260200160002060009054906101000a900473ffffffffffffffffffffffffffffffffffffffff1682604051602401808373ffffffffffffffffffffffffffffffffffffffff1673ffffffffffffffffffffffffffffffffffffffff168152602001828152602001925050506040516020818303038152906040527fef36d2b4000000000000000000000000000000000000000000000000000000007bffffffffffffffffffffffffffffffffffffffffffffffffffffffff19166020820180517bffffffffffffffffffffffffffffffffffffffffffffffffffffffff838183161783525050505060405180828051906020019080838360005b8381101561315e578082015181840152602081019050613143565b50505050905090810190601f16801561318b5780820380516001836020036101000a031916815260200191505b509150506000604051808303816000865af1915050151561323a576040517f08c379a00000000000000000000000000000000000000000000000000000000081526004018080602001828103825260398152602001807f4572726f72207768656e206368616e6765426174746572794f776e657220667281526020017f6f6d20636f6e747261637420746f206d73672e73656e6465720000000000000081525060400191505060405180910390fd5b50565b600080828401905083811015151561325457600080fd5b8091505092915050565b60008060008414156132735760009150613295565b828402905082848281151561328457fe5b0414151561329157600080fd5b8091505b5092915050565b6000806000831115156132ae57600080fd5b82848115156132b957fe5b0490508091505092915050565b6000811015151561333f576040517f08c379a000000000000000000000000000000000000000000000000000000000815260040180806020018281038252600f8152602001807f4e6567617469766520616d6f756e74000000000000000000000000000000000081525060200191505060405180910390fd5b80613349336111d4565b101515156133bf576040517f08c379a00000000000000000000000000000000000000000000000000000000081526004018080602001828103825260128152602001807f4e6f7420656e6f7567682062616c616e6365000000000000000000000000000081525060200191505060405180910390fd5b6133c93082611d18565b5061341c81600d60003373ffffffffffffffffffffffffffffffffffffffff1673ffffffffffffffffffffffffffffffffffffffff1681526020019081526020016000205461323d90919063ffffffff16565b600d60003373ffffffffffffffffffffffffffffffffffffffff1673ffffffffffffffffffffffffffffffffffffffff1681526020019081526020016000208190555050565b6008600082815260200190815260200160002060009054906101000a900473ffffffffffffffffffffffffffffffffffffffff1673ffffffffffffffffffffffffffffffffffffffff163373ffffffffffffffffffffffffffffffffffffffff16141515613538576040517f08c379a00000000000000000000000000000000000000000000000000000000081526004018080602001828103825260158152602001807f4e6f7420746865206f776e657220746f206c6f636b000000000000000000000081525060200191505060405180910390fd5b61354230826122b1565b33600e600083815260200190815260200160002060006101000a81548173ffffffffffffffffffffffffffffffffffffffff021916908373ffffffffffffffffffffffffffffffffffffffff16021790555050565b6000600b600084815260200190815260200160002054905060008114156135bd57613844565b6000600a60008473ffffffffffffffffffffffffffffffffffffffff1673ffffffffffffffffffffffffffffffffffffffff16815260200190815260200160002080549050141515613843576001600a60008473ffffffffffffffffffffffffffffffffffffffff1673ffffffffffffffffffffffffffffffffffffffff1681526020019081526020016000208054905011156137ef57600a60008373ffffffffffffffffffffffffffffffffffffffff1673ffffffffffffffffffffffffffffffffffffffff1681526020019081526020016000206136e96001600a60008673ffffffffffffffffffffffffffffffffffffffff1673ffffffffffffffffffffffffffffffffffffffff1681526020019081526020016000208054905061296a90919063ffffffff16565b8154811015156136f557fe5b9060005260206000200154600a60008473ffffffffffffffffffffffffffffffffffffffff1673ffffffffffffffffffffffffffffffffffffffff16815260200190815260200160002061375360018461296a90919063ffffffff16565b81548110151561375f57fe5b906000526020600020018190555080600b6000600a60008673ffffffffffffffffffffffffffffffffffffffff1673ffffffffffffffffffffffffffffffffffffffff1681526020019081526020016000206137c560018661296a90919063ffffffff16565b8154811015156137d157fe5b90600052602060002001548152602001908152602001600020819055505b600a60008373ffffffffffffffffffffffffffffffffffffffff1673ffffffffffffffffffffffffffffffffffffffff1681526020019081526020016000208054809190600190036138419190614d13565b505b5b505050565b60096000600c6000846000191660001916815260200190815260200160002060000154815260200190815260200160002060010160009054906101000a900460ff16156139855760086000600c6000846000191660001916815260200190815260200160002060000154815260200190815260200160002060009054906101000a900473ffffffffffffffffffffffffffffffffffffffff1673ffffffffffffffffffffffffffffffffffffffff163073ffffffffffffffffffffffffffffffffffffffff16141515613984576040517f08c379a000000000000000000000000000000000000000000000000000000000815260040180806020018281038252601d8152602001807f50726f706f73657227732062617474657279206e6f74206c6f636b656400000081525060200191505060405180910390fd5b5b60096000600c6000846000191660001916815260200190815260200160002060010154815260200190815260200160002060010160009054906101000a900460ff1615613ac15760086000600c6000846000191660001916815260200190815260200160002060010154815260200190815260200160002060009054906101000a900473ffffffffffffffffffffffffffffffffffffffff1673ffffffffffffffffffffffffffffffffffffffff163073ffffffffffffffffffffffffffffffffffffffff16141515613ac0576040517f08c379a000000000000000000000000000000000000000000000000000000000815260040180806020018281038252601d8152602001807f4578656375746f7227732062617474657279206e6f74206c6f636b656400000081525060200191505060405180910390fd5b5b600c6000826000191660001916815260200190815260200160002060050154600c6000836000191660001916815260200190815260200160002060040154111561401a57613b54600c6000836000191660001916815260200190815260200160002060050154600c600084600019166000191681526020019081526020016000206004015461296a90919063ffffffff16565b600d6000600c6000856000191660001916815260200190815260200160002060030160009054906101000a900473ffffffffffffffffffffffffffffffffffffffff1673ffffffffffffffffffffffffffffffffffffffff1673ffffffffffffffffffffffffffffffffffffffff1681526020019081526020016000205410151515613c48576040517f08c379a00000000000000000000000000000000000000000000000000000000081526004018080602001828103825260178152602001807f457865632062616c616e6365206e6f74206c6f636b656400000000000000000081525060200191505060405180910390fd5b613d26613c9a600c6000846000191660001916815260200190815260200160002060050154600c600085600019166000191681526020019081526020016000206004015461296a90919063ffffffff16565b600d6000600c6000866000191660001916815260200190815260200160002060030160009054906101000a900473ffffffffffffffffffffffffffffffffffffffff1673ffffffffffffffffffffffffffffffffffffffff1673ffffffffffffffffffffffffffffffffffffffff1681526020019081526020016000205461296a90919063ffffffff16565b600d6000600c6000856000191660001916815260200190815260200160002060030160009054906101000a900473ffffffffffffffffffffffffffffffffffffffff1673ffffffffffffffffffffffffffffffffffffffff1673ffffffffffffffffffffffffffffffffffffffff168152602001908152602001600020819055503073ffffffffffffffffffffffffffffffffffffffff16600c6000836000191660001916815260200190815260200160002060020160009054906101000a900473ffffffffffffffffffffffffffffffffffffffff16613e4c600c6000856000191660001916815260200190815260200160002060050154600c600086600019166000191681526020019081526020016000206004015461296a90919063ffffffff16565b604051602401808373ffffffffffffffffffffffffffffffffffffffff1673ffffffffffffffffffffffffffffffffffffffff168152602001828152602001925050506040516020818303038152906040527fa9059cbb000000000000000000000000000000000000000000000000000000007bffffffffffffffffffffffffffffffffffffffffffffffffffffffff19166020820180517bffffffffffffffffffffffffffffffffffffffffffffffffffffffff838183161783525050505060405180828051906020019080838360005b83811015613f39578082015181840152602081019050613f1e565b50505050905090810190601f168015613f665780820380516001836020036101000a031916815260200191505b509150506000604051808303816000865af19150501515614015576040517f08c379a000000000000000000000000000000000000000000000000000000000815260040180806020018281038252602d8152602001807f4572726f72207768656e207472616e736665722066726f6d20636f6e7472616381526020017f7420746f2070726f706f7365720000000000000000000000000000000000000081525060400191505060405180910390fd5b61452b565b614069600c6000836000191660001916815260200190815260200160002060040154600c600084600019166000191681526020019081526020016000206005015461296a90919063ffffffff16565b600d6000600c6000856000191660001916815260200190815260200160002060020160009054906101000a900473ffffffffffffffffffffffffffffffffffffffff1673ffffffffffffffffffffffffffffffffffffffff1673ffffffffffffffffffffffffffffffffffffffff168152602001908152602001600020541015151561415d576040517f08c379a00000000000000000000000000000000000000000000000000000000081526004018080602001828103825260178152602001807f50726f702062616c616e6365206e6f74206c6f636b656400000000000000000081525060200191505060405180910390fd5b61423b6141af600c6000846000191660001916815260200190815260200160002060040154600c600085600019166000191681526020019081526020016000206005015461296a90919063ffffffff16565b600d6000600c6000866000191660001916815260200190815260200160002060020160009054906101000a900473ffffffffffffffffffffffffffffffffffffffff1673ffffffffffffffffffffffffffffffffffffffff1673ffffffffffffffffffffffffffffffffffffffff1681526020019081526020016000205461296a90919063ffffffff16565b600d6000600c6000856000191660001916815260200190815260200160002060020160009054906101000a900473ffffffffffffffffffffffffffffffffffffffff1673ffffffffffffffffffffffffffffffffffffffff1673ffffffffffffffffffffffffffffffffffffffff168152602001908152602001600020819055503073ffffffffffffffffffffffffffffffffffffffff16600c6000836000191660001916815260200190815260200160002060030160009054906101000a900473ffffffffffffffffffffffffffffffffffffffff16614361600c6000856000191660001916815260200190815260200160002060040154600c600086600019166000191681526020019081526020016000206005015461296a90919063ffffffff16565b604051602401808373ffffffffffffffffffffffffffffffffffffffff1673ffffffffffffffffffffffffffffffffffffffff168152602001828152602001925050506040516020818303038152906040527fa9059cbb000000000000000000000000000000000000000000000000000000007bffffffffffffffffffffffffffffffffffffffffffffffffffffffff19166020820180517bffffffffffffffffffffffffffffffffffffffffffffffffffffffff838183161783525050505060405180828051906020019080838360005b8381101561444e578082015181840152602081019050614433565b50505050905090810190601f16801561447b5780820380516001836020036101000a031916815260200191505b509150506000604051808303816000865af1915050151561452a576040517f08c379a000000000000000000000000000000000000000000000000000000000815260040180806020018281038252602d8152602001807f4572726f72207768656e207472616e736665722066726f6d20636f6e7472616381526020017f7420746f2065786563757465720000000000000000000000000000000000000081525060400191505060405180910390fd5b5b60096000600c6000846000191660001916815260200190815260200160002060000154815260200190815260200160002060010160009054906101000a900460ff1615614a45576000600c60008360001916600019168152602001908152602001600020600001541415156147d9573073ffffffffffffffffffffffffffffffffffffffff16600c6000836000191660001916815260200190815260200160002060030160009054906101000a900473ffffffffffffffffffffffffffffffffffffffff16600c6000846000191660001916815260200190815260200160002060000154604051602401808373ffffffffffffffffffffffffffffffffffffffff1673ffffffffffffffffffffffffffffffffffffffff168152602001828152602001925050506040516020818303038152906040527fef36d2b4000000000000000000000000000000000000000000000000000000007bffffffffffffffffffffffffffffffffffffffffffffffffffffffff19166020820180517bffffffffffffffffffffffffffffffffffffffffffffffffffffffff838183161783525050505060405180828051906020019080838360005b838110156146fc5780820151818401526020810190506146e1565b50505050905090810190601f1680156147295780820380516001836020036101000a031916815260200191505b509150506000604051808303816000865af191505015156147d8576040517f08c379a00000000000000000000000000000000000000000000000000000000081526004018080602001828103825260378152602001807f4572726f72207768656e206368616e6765426174746572794f776e657220667281526020017f6f6d20636f6e747261637420746f20657865637574657200000000000000000081525060400191505060405180910390fd5b5b6000600c6000836000191660001916815260200190815260200160002060010154141515614a40573073ffffffffffffffffffffffffffffffffffffffff16600c6000836000191660001916815260200190815260200160002060020160009054906101000a900473ffffffffffffffffffffffffffffffffffffffff16600c6000846000191660001916815260200190815260200160002060010154604051602401808373ffffffffffffffffffffffffffffffffffffffff1673ffffffffffffffffffffffffffffffffffffffff168152602001828152602001925050506040516020818303038152906040527fef36d2b4000000000000000000000000000000000000000000000000000000007bffffffffffffffffffffffffffffffffffffffffffffffffffffffff19166020820180517bffffffffffffffffffffffffffffffffffffffffffffffffffffffff838183161783525050505060405180828051906020019080838360005b83811015614963578082015181840152602081019050614948565b50505050905090810190601f1680156149905780820380516001836020036101000a031916815260200191505b509150506000604051808303816000865af19150501515614a3f576040517f08c379a00000000000000000000000000000000000000000000000000000000081526004018080602001828103825260378152602001807f4572726f72207768656e206368616e6765426174746572794f776e657220667281526020017f6f6d20636f6e747261637420746f2070726f706f73657200000000000000000081525060400191505060405180910390fd5b5b614bb8565b60086000600c6000846000191660001916815260200190815260200160002060000154815260200190815260200160002060009054906101000a900473ffffffffffffffffffffffffffffffffffffffff1673ffffffffffffffffffffffffffffffffffffffff163373ffffffffffffffffffffffffffffffffffffffff161415614b4357600060096000600c6000856000191660001916815260200190815260200160002060000154815260200190815260200160002060010160016101000a81548173ffffffffffffffffffffffffffffffffffffffff021916908373ffffffffffffffffffffffffffffffffffffffff160217905550614bb7565b3360096000600c6000856000191660001916815260200190815260200160002060000154815260200190815260200160002060010160016101000a81548173ffffffffffffffffffffffffffffffffffffffff021916908373ffffffffffffffffffffffffffffffffffffffff1602179055505b5b6001600c6000836000191660001916815260200190815260200160002060070160016101000a81548160ff0219169083151502179055507f9b6c128f1e881dcd7a32e1e3ef904667398297da9076873dac66d57ab2d6eea0600c6000836000191660001916815260200190815260200160002060020160009054906101000a900473ffffffffffffffffffffffffffffffffffffffff1633600c6000856000191660001916815260200190815260200160002060000154600c6000866000191660001916815260200190815260200160002060010154604051808573ffffffffffffffffffffffffffffffffffffffff1673ffffffffffffffffffffffffffffffffffffffff1681526020018473ffffffffffffffffffffffffffffffffffffffff1673ffffffffffffffffffffffffffffffffffffffff16815260200183815260200182815260200194505050505060405180910390a150565b815481835581811115614d3a57818360005260206000209182019101614d399190614d3f565b5b505050565b614d6191905b80821115614d5d576000816000905550600101614d45565b5090565b905600a165627a7a723058209c2e6e786fc5933b4accfad8d27cfa5bd11f164e4a88b51deb44815f9a8e01100029",
  "source": "pragma solidity 0.4.25;\n\nimport \"./SafeMath.sol\";\nimport \"./ERC20.sol\";\nimport \"./Owned.sol\";\nimport \"./Mortal.sol\";\n\n/// @author Guillermo Perez Alba\n/// @title A token designed to exchange motocycle's batteries\ncontract BatteryToken is ERC20, Owned, Mortal {\n    using SafeMath for uint256;\n\n    address public owner;\n    uint256 public timeRef;\n    uint256 public globalId;\n    uint256 constant CHARGEPRICE = 7;\n    uint256 constant PROPOSALTIME = 10 * 1 minutes;\n\n    struct Battery {\n        uint256 initialValue;\n        bool publicDomain; //True for public. False for private\n        address privateCharger;\n        uint256 startTime;\n    }\n\n    struct Exchange {\n        uint256 itemProposer;\n        uint256 itemExecuter;\n        address proposer;\n        address executer;\n        uint256 valueProposer;\n        uint256 valueExecuter;\n        uint256 proposedTime;\n        bool proposed;\n        bool executed;\n        bool cancelled;\n    }\n\n    mapping(uint256 => address) batteryOwner;\n    mapping(uint256 => Battery) battery;\n    mapping(address => uint256[]) batteriesByOwner;\n    mapping(uint256 => uint256) indexOfId; //starting since 1, use index-1\n    mapping(bytes32 => Exchange) exchanges;\n    mapping(address => uint256) lockedBalances;\n    mapping(uint256 => address) lockedBatteries;\n\n    event MintBat(address own, uint256 id, bool domain, uint time);\n    event BurnBat(address own, uint256 id);\n    event Proposal(bytes32 proposalId, address emiter, address executer, uint256 itemEmiter, uint256 itemExecuter);\n    event Execution(address emiter, address executer, uint256 itemEmiter, uint256 itemExecuter);\n    event Cancellation(bytes32 proposalId);\n    event Debug(uint256, uint256, uint256);\n\n    constructor() public {\n        owner = msg.sender;\n        timeRef = block.timestamp;\n        batteryOwner[globalId] = address(0);\n        battery[globalId].publicDomain = false;\n        battery[globalId].startTime = block.timestamp;\n        battery[globalId].initialValue = 0;\n        indexOfId[globalId] = batteriesByOwner[address(0)].push(globalId);\n    }\n\n    /// @dev Return the IDs of the batteries owned by an owner\n    /// @param who the address of the owner\n    /// @return an array with the IDs of the batteries\n    function batteriesOfOwner(address who) public view returns (uint256[]) {\n        return batteriesByOwner[who];\n    }\n\n    /// @dev Return the owner of a certain battery ID\n    /// @param id the ID of the battery\n    /// @return the address of the owner. When address(0) battery doesn't exist\n    function ownerOf(uint256 id) public view returns (address) {\n        return batteryOwner[id];\n    }\n\n    /// @dev Return the details of a certain battery ID\n    /// @param id the ID of the battery\n    function getBattery(uint256 id) public view returns (bool, uint256, uint256, address) {\n        return (battery[id].publicDomain, battery[id].startTime, battery[id].initialValue, battery[id].privateCharger);\n    }\n\n    /// @dev Mints a new battery with the next Global ID\n    /// @param domain True when battery is public, False when private\n    /// @param value Initial value of the battery\n    /// @return the ID of the new battery\n    function mintBat(bool domain, uint256 value) public returns (uint256) {\n        //todos pueden anhadir baterias? hacer un require para solo algunas address autorizadas?\n        globalId = globalId.add(1);\n        batteryOwner[globalId] = msg.sender;\n        battery[globalId].publicDomain = domain;\n        battery[globalId].startTime = block.timestamp;\n        battery[globalId].initialValue = value;\n        indexOfId[globalId] = batteriesByOwner[msg.sender].push(globalId);\n        emit MintBat(batteryOwner[globalId], globalId, battery[globalId].publicDomain, battery[globalId].startTime);\n        return globalId;\n    }\n\n    /// @dev The battery stops existing in the contract\n    /// @param id the ID of the battery\n    function burnBat(uint256 id) public {\n        //Si el mint lo hacen las fabricas los puntos de carga se las compran y cuando estas tengan un valor\n        //muuy bajo se las vuelven a vender y las fabricas hacen el burn. Si alguien hace burn antes pierde ese dinero\n        require(msg.sender == batteryOwner[id], \"Only the owner can burn\");\n        batteryOwner[id] = address(0);\n        removeFromArray(id, msg.sender);\n        //Devolver valor en ether a su cuenta real en Ethers????\n        emit BurnBat(msg.sender, id);\n    }\n\n    /// @dev Propose an exchange of batteries (or token) to another address\n    /// @param itemProposer ID of the battery the proposer exchanges\n    /// @param itemExecuter ID of the battery the executer exchanges. Is 0 when Sell or Private Exchange\n    /// @param proposerChargeLevel Current level of the battery owned by the proposer (between 0-100)\n    /// @param executerChargeLevel Current level of the battery owned by the executer (between 0-100). Is 0 when Sell or Private Exchange\n    /// @param executer the address of the executer\n    /// @return a bytes32 with the ID of the exchange\n    function proposeExchange(\n        uint256 itemProposer,\n        uint256 itemExecuter,\n        uint256 proposerChargeLevel,\n        uint256 executerChargeLevel,\n        address executer\n    )\n        public\n        returns (bytes32)\n    {\n        require((msg.sender == batteryOwner[itemProposer] || msg.sender == battery[itemProposer].privateCharger), \"Wrong msg.sender\");\n        bytes32 exchangeId = bytes32(keccak256(abi.encodePacked(block.timestamp, itemProposer, itemExecuter, msg.sender, executer)));\n        exchanges[exchangeId].itemProposer = itemProposer;\n        exchanges[exchangeId].proposer = msg.sender;\n        exchanges[exchangeId].executer = executer;\n        if (battery[itemProposer].publicDomain) {\n            exchanges[exchangeId].itemExecuter = itemExecuter;\n            exchanges[exchangeId].valueProposer = getBatValue(itemProposer, proposerChargeLevel);\n            exchanges[exchangeId].valueExecuter = getBatValue(itemExecuter, executerChargeLevel);\n        } else {\n            exchanges[exchangeId].valueProposer = CHARGEPRICE.mul(proposerChargeLevel).div(100).mul(getBatValue(itemProposer, 100)).div(battery[itemProposer].initialValue);\n        }\n        if (exchanges[exchangeId].valueProposer < exchanges[exchangeId].valueExecuter){\n            lockBalance(exchanges[exchangeId].valueExecuter.sub(exchanges[exchangeId].valueProposer));\n        }\n        if (battery[itemProposer].publicDomain) { lockBattery(itemProposer); }\n        exchanges[exchangeId].proposedTime = block.timestamp;\n        exchanges[exchangeId].proposed = true;\n        emit Proposal(exchangeId, msg.sender, executer, itemProposer, itemExecuter);\n        return exchangeId;\n    }\n\n    /// @dev Execute an exchange previously proposed\n    /// @param exchangeId the ID of the exchange to execute\n    function executeExchange(bytes32 exchangeId) public {\n        require(exchanges[exchangeId].proposed, \"This exchange id does not exist\");\n        require(!exchanges[exchangeId].executed, \"Already executed\");\n        require(!exchanges[exchangeId].cancelled, \"Execution cancelled\");\n        require(msg.sender == exchanges[exchangeId].executer, \"msg.sender must be the executer\");\n        require(block.timestamp.sub(exchanges[exchangeId].proposedTime) < PROPOSALTIME, \"Proposal time expired\");\n        if (exchanges[exchangeId].valueProposer > exchanges[exchangeId].valueExecuter){\n            lockBalance(exchanges[exchangeId].valueProposer.sub(exchanges[exchangeId].valueExecuter));\n        }\n        if (exchanges[exchangeId].itemExecuter != 0) { lockBattery(exchanges[exchangeId].itemExecuter); }\n        finishExchange(exchangeId);\n    }\n\n    // @dev cancell a Proposal in case proposer did an approve\n    // @param exchangeIdthe ID of the exchange to cancell\n    function cancelProposal(bytes32 exchangeId) public {\n        require(exchanges[exchangeId].proposed, \"This exchange id does not exist\");\n        require(!exchanges[exchangeId].executed, \"Already executed\");\n        require(msg.sender == exchanges[exchangeId].proposer, \"Wrong msg.sender\");\n        unlockBalance();\n        unlockBattery(exchanges[exchangeId].itemProposer);\n        exchanges[exchangeId].cancelled = true;\n        emit Cancellation(exchangeId);\n    }\n\n    /// @dev Return the value of a certain battery ID with a certain level of charge.\n    /// @param itemId the ID of the battery\n    /// @param itemChargeLevel the current level of charge of the battery (between 0-100)\n    /// @return the current value of the battery\n    function getBatValue(uint256 itemId, uint256 itemChargeLevel) public view returns(uint256){\n        require((itemChargeLevel >= 0) || (itemChargeLevel <= 100), \"Bad charge level\");\n        if (itemId == 0) {\n            return 0;\n        } else {\n            uint256 value = battery[itemId].initialValue\n            .sub(block.timestamp.sub(battery[itemId].startTime))\n            .add(\n              CHARGEPRICE\n                .mul(itemChargeLevel)\n                .div(100)\n                .mul(battery[itemId].initialValue.sub(block.timestamp.sub(battery[itemId].startTime)))\n                .div(battery[itemId].initialValue)\n            );\n            assert(value >= 0 || value <= battery[itemId].initialValue.add(CHARGEPRICE));\n            return value;\n        }\n\n    }\n\n    /// @dev Mints a certain amount of ERC20 token to the msg.sender\n    /// @param amount the amount of tokens to mint\n    function mintERC20(uint256 amount) public returns(bool){\n        super._mint(msg.sender, amount);\n        return true;\n    }\n\n    function lockBalance(uint256 amount) private {\n        require(amount >= 0, \"Negative amount\");\n        require(balanceOf(msg.sender) >= amount, \"Not enough balance\");\n        transfer(address(this), amount);\n        lockedBalances[msg.sender] = lockedBalances[msg.sender].add(amount);\n    }\n\n    function unlockBalance() private {\n        if(lockedBalances[msg.sender] != 0) {\n            if (!address(this).call(abi.encodeWithSignature(\"transfer(address,uint256)\", msg.sender, lockedBalances[msg.sender]))) {\n                revert(\"Error when transfer from contract to msgsender\");\n            }\n        }\n    }\n\n    function lockBattery(uint256 id) private {\n        require(msg.sender == batteryOwner[id], \"Not the owner to lock\");\n        changeBatteryOwner(address(this), id);\n        lockedBatteries[id] = msg.sender;\n    }\n\n    function unlockBattery(uint256 id) private {\n        require(msg.sender == lockedBatteries[id], \"Not the owner to unlock\");\n        if (!address(this).call(abi.encodeWithSignature(\"changeBatteryOwner(address,uint256)\", lockedBatteries[id], id))) {\n            revert(\"Error when changeBatteryOwner from contract to msg.sender\");\n        }\n    }\n\n    function changeBatteryOwner(address newOwner, uint256 id) public {\n        require(msg.sender == batteryOwner[id], \"Not the owner to change\");\n        removeFromArray(id, msg.sender);\n        batteryOwner[id] = newOwner;\n        indexOfId[id] = batteriesByOwner[newOwner].push(id);\n    }\n\n    function finishExchange(bytes32 exchangeId) private {\n        if (battery[exchanges[exchangeId].itemProposer].publicDomain) {\n            require(address(this) == batteryOwner[exchanges[exchangeId].itemProposer], \"Proposer's battery not locked\");\n        }\n        if (battery[exchanges[exchangeId].itemExecuter].publicDomain) {\n            require(address(this) == batteryOwner[exchanges[exchangeId].itemExecuter], \"Executor's battery not locked\");\n        }\n        if (exchanges[exchangeId].valueProposer > exchanges[exchangeId].valueExecuter){\n            require(lockedBalances[exchanges[exchangeId].executer] >= exchanges[exchangeId].valueProposer.sub(exchanges[exchangeId].valueExecuter), \"Exec balance not locked\");\n            lockedBalances[exchanges[exchangeId].executer] = lockedBalances[exchanges[exchangeId].executer].sub(exchanges[exchangeId].valueProposer.sub(exchanges[exchangeId].valueExecuter));\n            if (!address(this).call(abi.encodeWithSignature(\"transfer(address,uint256)\", exchanges[exchangeId].proposer, exchanges[exchangeId].valueProposer.sub(exchanges[exchangeId].valueExecuter)))) {\n                revert(\"Error when transfer from contract to proposer\");\n            }\n        } else {\n            require(lockedBalances[exchanges[exchangeId].proposer] >= exchanges[exchangeId].valueExecuter.sub(exchanges[exchangeId].valueProposer), \"Prop balance not locked\");\n            lockedBalances[exchanges[exchangeId].proposer] = lockedBalances[exchanges[exchangeId].proposer].sub(exchanges[exchangeId].valueExecuter.sub(exchanges[exchangeId].valueProposer));\n            if (!address(this).call(abi.encodeWithSignature(\"transfer(address,uint256)\", exchanges[exchangeId].executer, exchanges[exchangeId].valueExecuter.sub(exchanges[exchangeId].valueProposer)))) {\n                revert(\"Error when transfer from contract to executer\");\n            }\n        }\n        if (battery[exchanges[exchangeId].itemProposer].publicDomain) {\n            if (exchanges[exchangeId].itemProposer != 0) {\n                if (!address(this).call(abi.encodeWithSignature(\"changeBatteryOwner(address,uint256)\", exchanges[exchangeId].executer, exchanges[exchangeId].itemProposer))) {\n                    revert(\"Error when changeBatteryOwner from contract to executer\");\n                }\n            }\n            if (exchanges[exchangeId].itemExecuter != 0) {\n                if (!address(this).call(abi.encodeWithSignature(\"changeBatteryOwner(address,uint256)\", exchanges[exchangeId].proposer, exchanges[exchangeId].itemExecuter))) {\n                    revert(\"Error when changeBatteryOwner from contract to proposer\");\n                }\n            }\n        } else if (msg.sender == batteryOwner[exchanges[exchangeId].itemProposer]) {\n            //retirada\n            battery[exchanges[exchangeId].itemProposer].privateCharger = address(0);\n        } else {\n            //entrega al pto carga\n            battery[exchanges[exchangeId].itemProposer].privateCharger = msg.sender;\n        }\n        exchanges[exchangeId].executed = true;\n        emit Execution(exchanges[exchangeId].proposer, msg.sender, exchanges[exchangeId].itemProposer, exchanges[exchangeId].itemExecuter);\n    }\n\n    /// @dev Remove a battery of the array of batteries for an owner\n    /// @param id the ID of the battery\n    /// @param who the address of the current owner\n    function removeFromArray (uint256 id, address who) private {\n        uint256 index = indexOfId[id];\n        if (index == 0) return;\n        if (batteriesByOwner[who].length != 0){\n            if (batteriesByOwner[who].length > 1) {\n                batteriesByOwner[who][index.sub(1)] = batteriesByOwner[who][batteriesByOwner[who].length.sub(1)];\n                indexOfId[batteriesByOwner[who][index.sub(1)]] = index;\n            }\n            batteriesByOwner[who].length --;\n        }\n    }\n\n}\n",
  "sourcePath": "/home/guillermo/BatteryToken/contracts/BatteryToken.sol",
  "compiler": {
    "name": "solc",
    "version": "0.4.25+commit.59dbf8f1.Emscripten.clang"
  },
  "schemaVersion": "2.0.2",
  "updatedAt": "2019-03-03T20:07:41.173Z"
}