{
  "contractName": "BatteryToken",
  "abi": [
    {
      "constant": false,
      "inputs": [
        {
          "name": "spender",
          "type": "address"
        },
        {
          "name": "value",
          "type": "uint256"
        }
      ],
      "name": "approve",
      "outputs": [
        {
          "name": "",
          "type": "bool"
        }
      ],
      "payable": false,
      "stateMutability": "nonpayable",
      "type": "function"
    },
    {
      "constant": true,
      "inputs": [],
      "name": "totalSupply",
      "outputs": [
        {
          "name": "",
          "type": "uint256"
        }
      ],
      "payable": false,
      "stateMutability": "view",
      "type": "function"
    },
    {
      "constant": false,
      "inputs": [
        {
          "name": "from",
          "type": "address"
        },
        {
          "name": "to",
          "type": "address"
        },
        {
          "name": "value",
          "type": "uint256"
        }
      ],
      "name": "transferFrom",
      "outputs": [
        {
          "name": "",
          "type": "bool"
        }
      ],
      "payable": false,
      "stateMutability": "nonpayable",
      "type": "function"
    },
    {
      "constant": false,
      "inputs": [
        {
          "name": "spender",
          "type": "address"
        },
        {
          "name": "addedValue",
          "type": "uint256"
        }
      ],
      "name": "increaseAllowance",
      "outputs": [
        {
          "name": "",
          "type": "bool"
        }
      ],
      "payable": false,
      "stateMutability": "nonpayable",
      "type": "function"
    },
    {
      "constant": true,
      "inputs": [
        {
          "name": "owner",
          "type": "address"
        }
      ],
      "name": "balanceOf",
      "outputs": [
        {
          "name": "",
          "type": "uint256"
        }
      ],
      "payable": false,
      "stateMutability": "view",
      "type": "function"
    },
    {
      "constant": true,
      "inputs": [],
      "name": "owner",
      "outputs": [
        {
          "name": "",
          "type": "address"
        }
      ],
      "payable": false,
      "stateMutability": "view",
      "type": "function"
    },
    {
      "constant": false,
      "inputs": [
        {
          "name": "spender",
          "type": "address"
        },
        {
          "name": "subtractedValue",
          "type": "uint256"
        }
      ],
      "name": "decreaseAllowance",
      "outputs": [
        {
          "name": "",
          "type": "bool"
        }
      ],
      "payable": false,
      "stateMutability": "nonpayable",
      "type": "function"
    },
    {
      "constant": false,
      "inputs": [
        {
          "name": "to",
          "type": "address"
        },
        {
          "name": "value",
          "type": "uint256"
        }
      ],
      "name": "transfer",
      "outputs": [
        {
          "name": "",
          "type": "bool"
        }
      ],
      "payable": false,
      "stateMutability": "nonpayable",
      "type": "function"
    },
    {
      "constant": true,
      "inputs": [],
      "name": "globalId",
      "outputs": [
        {
          "name": "",
          "type": "uint256"
        }
      ],
      "payable": false,
      "stateMutability": "view",
      "type": "function"
    },
    {
      "constant": true,
      "inputs": [],
      "name": "timeRef",
      "outputs": [
        {
          "name": "",
          "type": "uint256"
        }
      ],
      "payable": false,
      "stateMutability": "view",
      "type": "function"
    },
    {
      "constant": true,
      "inputs": [
        {
          "name": "owner",
          "type": "address"
        },
        {
          "name": "spender",
          "type": "address"
        }
      ],
      "name": "allowance",
      "outputs": [
        {
          "name": "",
          "type": "uint256"
        }
      ],
      "payable": false,
      "stateMutability": "view",
      "type": "function"
    },
    {
      "inputs": [],
      "payable": false,
      "stateMutability": "nonpayable",
      "type": "constructor"
    },
    {
      "anonymous": false,
      "inputs": [
        {
          "indexed": false,
          "name": "own",
          "type": "address"
        },
        {
          "indexed": false,
          "name": "id",
          "type": "uint256"
        },
        {
          "indexed": false,
          "name": "domain",
          "type": "bool"
        },
        {
          "indexed": false,
          "name": "time",
          "type": "uint256"
        }
      ],
      "name": "MintBat",
      "type": "event"
    },
    {
      "anonymous": false,
      "inputs": [
        {
          "indexed": false,
          "name": "own",
          "type": "address"
        },
        {
          "indexed": false,
          "name": "id",
          "type": "uint256"
        }
      ],
      "name": "BurnBat",
      "type": "event"
    },
    {
      "anonymous": false,
      "inputs": [
        {
          "indexed": false,
          "name": "proposalId",
          "type": "bytes32"
        },
        {
          "indexed": false,
          "name": "emiter",
          "type": "address"
        },
        {
          "indexed": false,
          "name": "executer",
          "type": "address"
        },
        {
          "indexed": false,
          "name": "itemEmiter",
          "type": "uint256"
        },
        {
          "indexed": false,
          "name": "itemExecuter",
          "type": "uint256"
        }
      ],
      "name": "Proposal",
      "type": "event"
    },
    {
      "anonymous": false,
      "inputs": [
        {
          "indexed": false,
          "name": "emiter",
          "type": "address"
        },
        {
          "indexed": false,
          "name": "executer",
          "type": "address"
        },
        {
          "indexed": false,
          "name": "itemEmiter",
          "type": "uint256"
        },
        {
          "indexed": false,
          "name": "itemExecuter",
          "type": "uint256"
        }
      ],
      "name": "Execution",
      "type": "event"
    },
    {
      "anonymous": false,
      "inputs": [
        {
          "indexed": true,
          "name": "from",
          "type": "address"
        },
        {
          "indexed": true,
          "name": "to",
          "type": "address"
        },
        {
          "indexed": false,
          "name": "value",
          "type": "uint256"
        }
      ],
      "name": "Transfer",
      "type": "event"
    },
    {
      "anonymous": false,
      "inputs": [
        {
          "indexed": true,
          "name": "owner",
          "type": "address"
        },
        {
          "indexed": true,
          "name": "spender",
          "type": "address"
        },
        {
          "indexed": false,
          "name": "value",
          "type": "uint256"
        }
      ],
      "name": "Approval",
      "type": "event"
    },
    {
      "constant": true,
      "inputs": [
        {
          "name": "_owner",
          "type": "address"
        }
      ],
      "name": "batteriesOfOwner",
      "outputs": [
        {
          "name": "",
          "type": "uint256[]"
        }
      ],
      "payable": false,
      "stateMutability": "view",
      "type": "function"
    },
    {
      "constant": true,
      "inputs": [
        {
          "name": "id",
          "type": "uint256"
        }
      ],
      "name": "ownerOf",
      "outputs": [
        {
          "name": "",
          "type": "address"
        }
      ],
      "payable": false,
      "stateMutability": "view",
      "type": "function"
    },
    {
      "constant": true,
      "inputs": [
        {
          "name": "id",
          "type": "uint256"
        }
      ],
      "name": "getBattery",
      "outputs": [
        {
          "name": "",
          "type": "bool"
        },
        {
          "name": "",
          "type": "uint256"
        },
        {
          "name": "",
          "type": "uint256"
        },
        {
          "name": "",
          "type": "address"
        }
      ],
      "payable": false,
      "stateMutability": "view",
      "type": "function"
    },
    {
      "constant": false,
      "inputs": [
        {
          "name": "_publicDomain",
          "type": "bool"
        },
        {
          "name": "_value",
          "type": "uint256"
        }
      ],
      "name": "mintBat",
      "outputs": [
        {
          "name": "",
          "type": "uint256"
        }
      ],
      "payable": false,
      "stateMutability": "nonpayable",
      "type": "function"
    },
    {
      "constant": false,
      "inputs": [
        {
          "name": "id",
          "type": "uint256"
        }
      ],
      "name": "burnBat",
      "outputs": [
        {
          "name": "",
          "type": "bool"
        }
      ],
      "payable": false,
      "stateMutability": "nonpayable",
      "type": "function"
    },
    {
      "constant": false,
      "inputs": [
        {
          "name": "_itemProposer",
          "type": "uint256"
        },
        {
          "name": "_itemExecuter",
          "type": "uint256"
        },
        {
          "name": "proposerChargeLevel",
          "type": "uint256"
        },
        {
          "name": "executerChargeLevel",
          "type": "uint256"
        },
        {
          "name": "_executer",
          "type": "address"
        }
      ],
      "name": "proposeExchange",
      "outputs": [
        {
          "name": "",
          "type": "bytes32"
        }
      ],
      "payable": false,
      "stateMutability": "nonpayable",
      "type": "function"
    },
    {
      "constant": false,
      "inputs": [
        {
          "name": "_exchangeId",
          "type": "bytes32"
        }
      ],
      "name": "executeExchange",
      "outputs": [
        {
          "name": "",
          "type": "bool"
        }
      ],
      "payable": false,
      "stateMutability": "nonpayable",
      "type": "function"
    },
    {
      "constant": true,
      "inputs": [
        {
          "name": "_itemId",
          "type": "uint256"
        },
        {
          "name": "_itemChargeLevel",
          "type": "uint256"
        }
      ],
      "name": "getBatValue",
      "outputs": [
        {
          "name": "",
          "type": "uint256"
        }
      ],
      "payable": false,
      "stateMutability": "view",
      "type": "function"
    },
    {
      "constant": false,
      "inputs": [
        {
          "name": "amount",
          "type": "uint256"
        }
      ],
      "name": "mintERC20",
      "outputs": [
        {
          "name": "",
          "type": "bool"
        }
      ],
      "payable": false,
      "stateMutability": "nonpayable",
      "type": "function"
    }
  ],
  "bytecode": "0x608060405234801561001057600080fd5b5033600360006101000a81548173ffffffffffffffffffffffffffffffffffffffff021916908373ffffffffffffffffffffffffffffffffffffffff16021790555042600481905550600060066000600554815260200190815260200160002060006101000a81548173ffffffffffffffffffffffffffffffffffffffff021916908373ffffffffffffffffffffffffffffffffffffffff160217905550600060076000600554815260200190815260200160002060010160006101000a81548160ff0219169083151502179055504260076000600554815260200190815260200160002060020181905550600060076000600554815260200190815260200160002060000181905550600860008073ffffffffffffffffffffffffffffffffffffffff1673ffffffffffffffffffffffffffffffffffffffff1681526020019081526020016000206005549080600181540180825580915050906001820390600052602060002001600090919290919091505560096000600554815260200190815260200160002081905550612f40806101ac6000396000f300608060405260043610610112576000357c0100000000000000000000000000000000000000000000000000000000900463ffffffff168063095ea7b31461011757806318160ddd1461017c57806323b872dd146101a757806335dcc4a41461022c57806339509351146102715780636352211e146102d657806370a082311461034357806372850a9b1461039a578063807e7c04146104215780638da5cb5b146104a75780639c096684146104fe578063a457c2d714610543578063a9059cbb146105a8578063b7ba93991461060d578063b859f7261461065a578063ca666823146106a5578063cb3c3c0b146106d0578063dd62ed3e146106fb578063e293f61614610772578063f0f899361461080a575b600080fd5b34801561012357600080fd5b50610162600480360381019080803573ffffffffffffffffffffffffffffffffffffffff16906020019092919080359060200190929190505050610853565b604051808215151515815260200191505060405180910390f35b34801561018857600080fd5b50610191610980565b6040518082815260200191505060405180910390f35b3480156101b357600080fd5b50610212600480360381019080803573ffffffffffffffffffffffffffffffffffffffff169060200190929190803573ffffffffffffffffffffffffffffffffffffffff1690602001909291908035906020019092919050505061098a565b604051808215151515815260200191505060405180910390f35b34801561023857600080fd5b5061025760048036038101908080359060200190929190505050610b3c565b604051808215151515815260200191505060405180910390f35b34801561027d57600080fd5b506102bc600480360381019080803573ffffffffffffffffffffffffffffffffffffffff16906020019092919080359060200190929190505050610b51565b604051808215151515815260200191505060405180910390f35b3480156102e257600080fd5b5061030160048036038101908080359060200190929190505050610d88565b604051808273ffffffffffffffffffffffffffffffffffffffff1673ffffffffffffffffffffffffffffffffffffffff16815260200191505060405180910390f35b34801561034f57600080fd5b50610384600480360381019080803573ffffffffffffffffffffffffffffffffffffffff169060200190929190505050610dc5565b6040518082815260200191505060405180910390f35b3480156103a657600080fd5b5061040360048036038101908080359060200190929190803590602001909291908035906020019092919080359060200190929190803573ffffffffffffffffffffffffffffffffffffffff169060200190929190505050610e0d565b60405180826000191660001916815260200191505060405180910390f35b34801561042d57600080fd5b5061044c6004803603810190808035906020019092919050505061143d565b60405180851515151581526020018481526020018381526020018273ffffffffffffffffffffffffffffffffffffffff1673ffffffffffffffffffffffffffffffffffffffff16815260200194505050505060405180910390f35b3480156104b357600080fd5b506104bc6114db565b604051808273ffffffffffffffffffffffffffffffffffffffff1673ffffffffffffffffffffffffffffffffffffffff16815260200191505060405180910390f35b34801561050a57600080fd5b5061052960048036038101908080359060200190929190505050611501565b604051808215151515815260200191505060405180910390f35b34801561054f57600080fd5b5061058e600480360381019080803573ffffffffffffffffffffffffffffffffffffffff169060200190929190803590602001909291905050506116ab565b604051808215151515815260200191505060405180910390f35b3480156105b457600080fd5b506105f3600480360381019080803573ffffffffffffffffffffffffffffffffffffffff169060200190929190803590602001909291905050506118e2565b604051808215151515815260200191505060405180910390f35b34801561061957600080fd5b50610644600480360381019080803515159060200190929190803590602001909291905050506118f9565b6040518082815260200191505060405180910390f35b34801561066657600080fd5b5061068f6004803603810190808035906020019092919080359060200190929190505050611b56565b6040518082815260200191505060405180910390f35b3480156106b157600080fd5b506106ba611d37565b6040518082815260200191505060405180910390f35b3480156106dc57600080fd5b506106e5611d3d565b6040518082815260200191505060405180910390f35b34801561070757600080fd5b5061075c600480360381019080803573ffffffffffffffffffffffffffffffffffffffff169060200190929190803573ffffffffffffffffffffffffffffffffffffffff169060200190929190505050611d43565b6040518082815260200191505060405180910390f35b34801561077e57600080fd5b506107b3600480360381019080803573ffffffffffffffffffffffffffffffffffffffff169060200190929190505050611dca565b6040518080602001828103825283818151815260200191508051906020019060200280838360005b838110156107f65780820151818401526020810190506107db565b505050509050019250505060405180910390f35b34801561081657600080fd5b506108396004803603810190808035600019169060200190929190505050611e61565b604051808215151515815260200191505060405180910390f35b60008073ffffffffffffffffffffffffffffffffffffffff168373ffffffffffffffffffffffffffffffffffffffff161415151561089057600080fd5b81600160003373ffffffffffffffffffffffffffffffffffffffff1673ffffffffffffffffffffffffffffffffffffffff16815260200190815260200160002060008573ffffffffffffffffffffffffffffffffffffffff1673ffffffffffffffffffffffffffffffffffffffff168152602001908152602001600020819055508273ffffffffffffffffffffffffffffffffffffffff163373ffffffffffffffffffffffffffffffffffffffff167f8c5be1e5ebec7d5bd14f71427d1e84f3dd0314c0f7b2291e5b200ac8c7c3b925846040518082815260200191505060405180910390a36001905092915050565b6000600254905090565b6000600160008573ffffffffffffffffffffffffffffffffffffffff1673ffffffffffffffffffffffffffffffffffffffff16815260200190815260200160002060003373ffffffffffffffffffffffffffffffffffffffff1673ffffffffffffffffffffffffffffffffffffffff168152602001908152602001600020548211151515610a1757600080fd5b610aa682600160008773ffffffffffffffffffffffffffffffffffffffff1673ffffffffffffffffffffffffffffffffffffffff16815260200190815260200160002060003373ffffffffffffffffffffffffffffffffffffffff1673ffffffffffffffffffffffffffffffffffffffff168152602001908152602001600020546128d790919063ffffffff16565b600160008673ffffffffffffffffffffffffffffffffffffffff1673ffffffffffffffffffffffffffffffffffffffff16815260200190815260200160002060003373ffffffffffffffffffffffffffffffffffffffff1673ffffffffffffffffffffffffffffffffffffffff16815260200190815260200160002081905550610b318484846128f8565b600190509392505050565b6000610b483383612b11565b60019050919050565b60008073ffffffffffffffffffffffffffffffffffffffff168373ffffffffffffffffffffffffffffffffffffffff1614151515610b8e57600080fd5b610c1d82600160003373ffffffffffffffffffffffffffffffffffffffff1673ffffffffffffffffffffffffffffffffffffffff16815260200190815260200160002060008673ffffffffffffffffffffffffffffffffffffffff1673ffffffffffffffffffffffffffffffffffffffff16815260200190815260200160002054612c4f90919063ffffffff16565b600160003373ffffffffffffffffffffffffffffffffffffffff1673ffffffffffffffffffffffffffffffffffffffff16815260200190815260200160002060008573ffffffffffffffffffffffffffffffffffffffff1673ffffffffffffffffffffffffffffffffffffffff168152602001908152602001600020819055508273ffffffffffffffffffffffffffffffffffffffff163373ffffffffffffffffffffffffffffffffffffffff167f8c5be1e5ebec7d5bd14f71427d1e84f3dd0314c0f7b2291e5b200ac8c7c3b925600160003373ffffffffffffffffffffffffffffffffffffffff1673ffffffffffffffffffffffffffffffffffffffff16815260200190815260200160002060008773ffffffffffffffffffffffffffffffffffffffff1673ffffffffffffffffffffffffffffffffffffffff168152602001908152602001600020546040518082815260200191505060405180910390a36001905092915050565b60006006600083815260200190815260200160002060009054906101000a900473ffffffffffffffffffffffffffffffffffffffff169050919050565b60008060008373ffffffffffffffffffffffffffffffffffffffff1673ffffffffffffffffffffffffffffffffffffffff168152602001908152602001600020549050919050565b6000806006600088815260200190815260200160002060009054906101000a900473ffffffffffffffffffffffffffffffffffffffff1673ffffffffffffffffffffffffffffffffffffffff163373ffffffffffffffffffffffffffffffffffffffff161480610ede57506007600088815260200190815260200160002060010160019054906101000a900473ffffffffffffffffffffffffffffffffffffffff1673ffffffffffffffffffffffffffffffffffffffff163373ffffffffffffffffffffffffffffffffffffffff16145b1515610f52576040517f08c379a00000000000000000000000000000000000000000000000000000000081526004018080602001828103825260108152602001807f57726f6e67206d73672e73656e6465720000000000000000000000000000000081525060200191505060405180910390fd5b4287873386604051602001808681526020018581526020018481526020018373ffffffffffffffffffffffffffffffffffffffff1673ffffffffffffffffffffffffffffffffffffffff166c010000000000000000000000000281526014018273ffffffffffffffffffffffffffffffffffffffff1673ffffffffffffffffffffffffffffffffffffffff166c01000000000000000000000000028152601401955050505050506040516020818303038152906040526040518082805190602001908083835b60208310151561103d5780518252602082019150602081019050602083039250611018565b6001836020036101000a0380198251168184511680821785525050505050509050019150506040518091039020905086600a600083600019166000191681526020019081526020016000206000018190555033600a6000836000191660001916815260200190815260200160002060020160006101000a81548173ffffffffffffffffffffffffffffffffffffffff021916908373ffffffffffffffffffffffffffffffffffffffff16021790555082600a6000836000191660001916815260200190815260200160002060030160006101000a81548173ffffffffffffffffffffffffffffffffffffffff021916908373ffffffffffffffffffffffffffffffffffffffff1602179055506007600088815260200190815260200160002060010160009054906101000a900460ff16156111f25785600a600083600019166000191681526020019081526020016000206001018190555061119f8786611b56565b600a60008360001916600019168152602001908152602001600020600401819055506111cb8685611b56565b600a6000836000191660001916815260200190815260200160002060050181905550611280565b61125d600760008981526020019081526020016000206000015461124f61121a8a6064611b56565b61124160646112338b6007612c7090919063ffffffff16565b612cae90919063ffffffff16565b612c7090919063ffffffff16565b612cae90919063ffffffff16565b600a60008360001916600019168152602001908152602001600020600401819055505b600a6000826000191660001916815260200190815260200160002060050154600a600083600019166000191681526020019081526020016000206004015411151561131f5761131d83611318600a6000856000191660001916815260200190815260200160002060040154600a60008660001916600019168152602001908152602001600020600501546128d790919063ffffffff16565b610853565b505b42600a60008360001916600019168152602001908152602001600020600601819055506001600a6000836000191660001916815260200190815260200160002060070160006101000a81548160ff0219169083151502179055507f5d23a63c0c310733b5582e295d2a2a6b53c335c58ac9d8224f0a319dc161d9998133858a8a6040518086600019166000191681526020018573ffffffffffffffffffffffffffffffffffffffff1673ffffffffffffffffffffffffffffffffffffffff1681526020018473ffffffffffffffffffffffffffffffffffffffff1673ffffffffffffffffffffffffffffffffffffffff1681526020018381526020018281526020019550505050505060405180910390a18091505095945050505050565b6000806000806007600086815260200190815260200160002060010160009054906101000a900460ff16600760008781526020019081526020016000206002015460076000888152602001908152602001600020600001546007600089815260200190815260200160002060010160019054906101000a900473ffffffffffffffffffffffffffffffffffffffff1693509350935093509193509193565b600360009054906101000a900473ffffffffffffffffffffffffffffffffffffffff1681565b60006006600083815260200190815260200160002060009054906101000a900473ffffffffffffffffffffffffffffffffffffffff1673ffffffffffffffffffffffffffffffffffffffff163373ffffffffffffffffffffffffffffffffffffffff161415156115d9576040517f08c379a00000000000000000000000000000000000000000000000000000000081526004018080602001828103825260178152602001807f4f6e6c7920746865206f776e65722063616e206275726e00000000000000000081525060200191505060405180910390fd5b60006006600084815260200190815260200160002060006101000a81548173ffffffffffffffffffffffffffffffffffffffff021916908373ffffffffffffffffffffffffffffffffffffffff1602179055506116368233612cd8565b507f237e464a2b45d5e0aba2ed4c81141d97ed69f8d97751294a3f2d3698f0647f093383604051808373ffffffffffffffffffffffffffffffffffffffff1673ffffffffffffffffffffffffffffffffffffffff1681526020018281526020019250505060405180910390a160019050919050565b60008073ffffffffffffffffffffffffffffffffffffffff168373ffffffffffffffffffffffffffffffffffffffff16141515156116e857600080fd5b61177782600160003373ffffffffffffffffffffffffffffffffffffffff1673ffffffffffffffffffffffffffffffffffffffff16815260200190815260200160002060008673ffffffffffffffffffffffffffffffffffffffff1673ffffffffffffffffffffffffffffffffffffffff168152602001908152602001600020546128d790919063ffffffff16565b600160003373ffffffffffffffffffffffffffffffffffffffff1673ffffffffffffffffffffffffffffffffffffffff16815260200190815260200160002060008573ffffffffffffffffffffffffffffffffffffffff1673ffffffffffffffffffffffffffffffffffffffff168152602001908152602001600020819055508273ffffffffffffffffffffffffffffffffffffffff163373ffffffffffffffffffffffffffffffffffffffff167f8c5be1e5ebec7d5bd14f71427d1e84f3dd0314c0f7b2291e5b200ac8c7c3b925600160003373ffffffffffffffffffffffffffffffffffffffff1673ffffffffffffffffffffffffffffffffffffffff16815260200190815260200160002060008773ffffffffffffffffffffffffffffffffffffffff1673ffffffffffffffffffffffffffffffffffffffff168152602001908152602001600020546040518082815260200191505060405180910390a36001905092915050565b60006118ef3384846128f8565b6001905092915050565b60006119116001600554612c4f90919063ffffffff16565b6005819055503360066000600554815260200190815260200160002060006101000a81548173ffffffffffffffffffffffffffffffffffffffff021916908373ffffffffffffffffffffffffffffffffffffffff1602179055508260076000600554815260200190815260200160002060010160006101000a81548160ff02191690831515021790555042600760006005548152602001908152602001600020600201819055508160076000600554815260200190815260200160002060000181905550600860003373ffffffffffffffffffffffffffffffffffffffff1673ffffffffffffffffffffffffffffffffffffffff16815260200190815260200160002060055490806001815401808255809150509060018203906000526020600020016000909192909190915055600960006005548152602001908152602001600020819055507f8ceed64cd2f26c60e408da38d3e5f24fea4d39240e9ed6f2f497d6174bdaf98360066000600554815260200190815260200160002060009054906101000a900473ffffffffffffffffffffffffffffffffffffffff1660055460076000600554815260200190815260200160002060010160009054906101000a900460ff1660076000600554815260200190815260200160002060020154604051808573ffffffffffffffffffffffffffffffffffffffff1673ffffffffffffffffffffffffffffffffffffffff1681526020018481526020018315151515815260200182815260200194505050505060405180910390a1600554905092915050565b6000806000841415611b6b5760009150611d30565b611c7e611c1f6007600087815260200190815260200160002060000154611c11611bdc611bb7600760008b815260200190815260200160002060020154426128d790919063ffffffff16565b600760008b8152602001908152602001600020600001546128d790919063ffffffff16565b611c036064611bf58a6007612c7090919063ffffffff16565b612cae90919063ffffffff16565b612c7090919063ffffffff16565b612cae90919063ffffffff16565b611c70611c4b6007600089815260200190815260200160002060020154426128d790919063ffffffff16565b60076000898152602001908152602001600020600001546128d790919063ffffffff16565b612c4f90919063ffffffff16565b9050600081101580611cb85750611cb4600780600087815260200190815260200160002060000154612c4f90919063ffffffff16565b8111155b1515611d2c576040517f08c379a00000000000000000000000000000000000000000000000000000000081526004018080602001828103825260098152602001807f4261642076616c7565000000000000000000000000000000000000000000000081525060200191505060405180910390fd5b8091505b5092915050565b60055481565b60045481565b6000600160008473ffffffffffffffffffffffffffffffffffffffff1673ffffffffffffffffffffffffffffffffffffffff16815260200190815260200160002060008373ffffffffffffffffffffffffffffffffffffffff1673ffffffffffffffffffffffffffffffffffffffff16815260200190815260200160002054905092915050565b6060600860008373ffffffffffffffffffffffffffffffffffffffff1673ffffffffffffffffffffffffffffffffffffffff168152602001908152602001600020805480602002602001604051908101604052809291908181526020018280548015611e5557602002820191906000526020600020905b815481526020019060010190808311611e41575b50505050509050919050565b6000600a6000836000191660001916815260200190815260200160002060070160009054906101000a900460ff161515611f03576040517f08c379a000000000000000000000000000000000000000000000000000000000815260040180806020018281038252601f8152602001807f546869732065786368616e676520696420646f6573206e6f742065786973740081525060200191505060405180910390fd5b600a6000836000191660001916815260200190815260200160002060030160009054906101000a900473ffffffffffffffffffffffffffffffffffffffff1673ffffffffffffffffffffffffffffffffffffffff163373ffffffffffffffffffffffffffffffffffffffff16141515611fe4576040517f08c379a000000000000000000000000000000000000000000000000000000000815260040180806020018281038252601f8152602001807f6d73672e73656e646572206d757374206265207468652065786563757465720081525060200191505060405180910390fd5b610258612018600a6000856000191660001916815260200190815260200160002060060154426128d790919063ffffffff16565b10151561208d576040517f08c379a00000000000000000000000000000000000000000000000000000000081526004018080602001828103825260158152602001807f50726f706f73616c2074696d652065787069726564000000000000000000000081525060200191505060405180910390fd5b600a6000836000191660001916815260200190815260200160002060050154600a600084600019166000191681526020019081526020016000206004015410151561216e57612168600a6000846000191660001916815260200190815260200160002060020160009054906101000a900473ffffffffffffffffffffffffffffffffffffffff16612163600a6000866000191660001916815260200190815260200160002060050154600a60008760001916600019168152602001908152602001600020600401546128d790919063ffffffff16565b6118e2565b50612207565b612205600a6000846000191660001916815260200190815260200160002060020160009054906101000a900473ffffffffffffffffffffffffffffffffffffffff1633612200600a6000876000191660001916815260200190815260200160002060040154600a60008860001916600019168152602001908152602001600020600501546128d790919063ffffffff16565b61098a565b505b60076000600a6000856000191660001916815260200190815260200160002060000154815260200190815260200160002060010160009054906101000a900460ff1615612607576000600a6000846000191660001916815260200190815260200160002060000154141515612409576122dc600a6000846000191660001916815260200190815260200160002060000154600a6000856000191660001916815260200190815260200160002060020160009054906101000a900473ffffffffffffffffffffffffffffffffffffffff16612cd8565b503360066000600a6000866000191660001916815260200190815260200160002060000154815260200190815260200160002060006101000a81548173ffffffffffffffffffffffffffffffffffffffff021916908373ffffffffffffffffffffffffffffffffffffffff160217905550600860003373ffffffffffffffffffffffffffffffffffffffff1673ffffffffffffffffffffffffffffffffffffffff168152602001908152602001600020600a60008460001916600019168152602001908152602001600020600001549080600181540180825580915050906001820390600052602060002001600090919290919091505560096000600a60008660001916600019168152602001908152602001600020600001548152602001908152602001600020819055505b6000600a600084600019166000191681526020019081526020016000206001015414151561260257612459600a600084600019166000191681526020019081526020016000206001015433612cd8565b50600a6000836000191660001916815260200190815260200160002060020160009054906101000a900473ffffffffffffffffffffffffffffffffffffffff1660066000600a6000866000191660001916815260200190815260200160002060010154815260200190815260200160002060006101000a81548173ffffffffffffffffffffffffffffffffffffffff021916908373ffffffffffffffffffffffffffffffffffffffff16021790555060086000600a6000856000191660001916815260200190815260200160002060020160009054906101000a900473ffffffffffffffffffffffffffffffffffffffff1673ffffffffffffffffffffffffffffffffffffffff1673ffffffffffffffffffffffffffffffffffffffff168152602001908152602001600020600a60008460001916600019168152602001908152602001600020600101549080600181540180825580915050906001820390600052602060002001600090919290919091505560096000600a60008660001916600019168152602001908152602001600020600101548152602001908152602001600020819055505b61277a565b60066000600a6000856000191660001916815260200190815260200160002060000154815260200190815260200160002060009054906101000a900473ffffffffffffffffffffffffffffffffffffffff1673ffffffffffffffffffffffffffffffffffffffff163373ffffffffffffffffffffffffffffffffffffffff16141561270557600060076000600a6000866000191660001916815260200190815260200160002060000154815260200190815260200160002060010160016101000a81548173ffffffffffffffffffffffffffffffffffffffff021916908373ffffffffffffffffffffffffffffffffffffffff160217905550612779565b3360076000600a6000866000191660001916815260200190815260200160002060000154815260200190815260200160002060010160016101000a81548173ffffffffffffffffffffffffffffffffffffffff021916908373ffffffffffffffffffffffffffffffffffffffff1602179055505b5b6001600a6000846000191660001916815260200190815260200160002060070160016101000a81548160ff0219169083151502179055507f9b6c128f1e881dcd7a32e1e3ef904667398297da9076873dac66d57ab2d6eea0600a6000846000191660001916815260200190815260200160002060020160009054906101000a900473ffffffffffffffffffffffffffffffffffffffff1633600a6000866000191660001916815260200190815260200160002060000154600a6000876000191660001916815260200190815260200160002060010154604051808573ffffffffffffffffffffffffffffffffffffffff1673ffffffffffffffffffffffffffffffffffffffff1681526020018473ffffffffffffffffffffffffffffffffffffffff1673ffffffffffffffffffffffffffffffffffffffff16815260200183815260200182815260200194505050505060405180910390a1919050565b6000808383111515156128e957600080fd5b82840390508091505092915050565b6000808473ffffffffffffffffffffffffffffffffffffffff1673ffffffffffffffffffffffffffffffffffffffff16815260200190815260200160002054811115151561294557600080fd5b600073ffffffffffffffffffffffffffffffffffffffff168273ffffffffffffffffffffffffffffffffffffffff161415151561298157600080fd5b6129d2816000808673ffffffffffffffffffffffffffffffffffffffff1673ffffffffffffffffffffffffffffffffffffffff168152602001908152602001600020546128d790919063ffffffff16565b6000808573ffffffffffffffffffffffffffffffffffffffff1673ffffffffffffffffffffffffffffffffffffffff16815260200190815260200160002081905550612a65816000808573ffffffffffffffffffffffffffffffffffffffff1673ffffffffffffffffffffffffffffffffffffffff16815260200190815260200160002054612c4f90919063ffffffff16565b6000808473ffffffffffffffffffffffffffffffffffffffff1673ffffffffffffffffffffffffffffffffffffffff168152602001908152602001600020819055508173ffffffffffffffffffffffffffffffffffffffff168373ffffffffffffffffffffffffffffffffffffffff167fddf252ad1be2c89b69c2b068fc378daa952ba7f163c4a11628f55a4df523b3ef836040518082815260200191505060405180910390a3505050565b60008273ffffffffffffffffffffffffffffffffffffffff1614151515612b3757600080fd5b612b4c81600254612c4f90919063ffffffff16565b600281905550612ba3816000808573ffffffffffffffffffffffffffffffffffffffff1673ffffffffffffffffffffffffffffffffffffffff16815260200190815260200160002054612c4f90919063ffffffff16565b6000808473ffffffffffffffffffffffffffffffffffffffff1673ffffffffffffffffffffffffffffffffffffffff168152602001908152602001600020819055508173ffffffffffffffffffffffffffffffffffffffff16600073ffffffffffffffffffffffffffffffffffffffff167fddf252ad1be2c89b69c2b068fc378daa952ba7f163c4a11628f55a4df523b3ef836040518082815260200191505060405180910390a35050565b6000808284019050838110151515612c6657600080fd5b8091505092915050565b6000806000841415612c855760009150612ca7565b8284029050828482811515612c9657fe5b04141515612ca357600080fd5b8091505b5092915050565b600080600083111515612cc057600080fd5b8284811515612ccb57fe5b0490508091505092915050565b600080600960008581526020019081526020016000205490506000811415612cff57612ebc565b6001600860008573ffffffffffffffffffffffffffffffffffffffff1673ffffffffffffffffffffffffffffffffffffffff168152602001908152602001600020805490501115612e6457600860008473ffffffffffffffffffffffffffffffffffffffff1673ffffffffffffffffffffffffffffffffffffffff168152602001908152602001600020612ddf6001600860008773ffffffffffffffffffffffffffffffffffffffff1673ffffffffffffffffffffffffffffffffffffffff168152602001908152602001600020805490506128d790919063ffffffff16565b815481101515612deb57fe5b9060005260206000200154600860008573ffffffffffffffffffffffffffffffffffffffff1673ffffffffffffffffffffffffffffffffffffffff168152602001908152602001600020612e496001846128d790919063ffffffff16565b815481101515612e5557fe5b90600052602060002001819055505b600860008473ffffffffffffffffffffffffffffffffffffffff1673ffffffffffffffffffffffffffffffffffffffff168152602001908152602001600020805480919060019003612eb69190612ec3565b50600191505b5092915050565b815481835581811115612eea57818360005260206000209182019101612ee99190612eef565b5b505050565b612f1191905b80821115612f0d576000816000905550600101612ef5565b5090565b905600a165627a7a72305820e3745768b28ce52db17186065ea2cceede36d8b1921739855b1ec16149d3fad60029",
  "source": "pragma solidity >=0.4.21 <0.6.0;\r\n\r\nimport \"./SafeMath.sol\";\r\nimport \"./ERC20.sol\";\r\n\r\n/// @author Guillermo Prez Alba\r\n/// @title A token designed to exchange motocycle's batteries\r\ncontract BatteryToken is ERC20 {\r\n    using SafeMath for uint256;\r\n\r\n    //Aadir el cambio de ownership y revisar visibilidad de todo\r\n\r\n    address public owner;\r\n    uint256 public timeRef;\r\n    uint256 public globalId;\r\n    uint256 constant CHARGEPRICE = 7;\r\n    uint256 constant PROPOSALTIME = 10 * 1 minutes;\r\n\r\n    struct Battery {\r\n        uint256 initialValue;\r\n        bool publicDomain; //True for public. False for private\r\n        address privateCharger;\r\n        uint256 startTime;\r\n    }\r\n\r\n    struct Exchange {\r\n        uint256 itemProposer;\r\n        uint256 itemExecuter;\r\n        address proposer;\r\n        address executer;\r\n        uint256 valueProposer;\r\n        uint256 valueExecuter;\r\n        uint256 proposedTime;\r\n        bool proposed;\r\n        bool executed;\r\n    }\r\n\r\n    mapping(uint256 => address) _batteryOwner;\r\n    mapping(uint256 => Battery) _battery;\r\n    mapping(address => uint256[]) _batteriesByOwner;\r\n    mapping(uint256 => uint256) _indexOfId; //starting since 1, use index-1\r\n    mapping(bytes32 => Exchange) _exchanges;\r\n\r\n    event MintBat(address own, uint256 id, bool domain, uint time);\r\n    event BurnBat(address own, uint256 id);\r\n    event Proposal(bytes32 proposalId, address emiter, address executer, uint256 itemEmiter, uint256 itemExecuter);\r\n    event Execution(address emiter, address executer, uint256 itemEmiter, uint256 itemExecuter);\r\n\r\n    constructor() public {\r\n        owner = msg.sender;\r\n        timeRef = block.timestamp;\r\n        _batteryOwner[globalId] = address(0);\r\n        _battery[globalId].publicDomain = false;\r\n        _battery[globalId].startTime = block.timestamp;\r\n        _battery[globalId].initialValue = 0;\r\n        _indexOfId[globalId] = _batteriesByOwner[address(0)].push(globalId);\r\n    }\r\n\r\n    /// @dev Return the IDs of the batteries owned by an owner\r\n    /// @param _owner the address of the owner\r\n    /// @return an array with the IDs of the batteries\r\n    function batteriesOfOwner(address _owner) public view returns (uint256[]) {\r\n        return _batteriesByOwner[_owner];\r\n    }\r\n\r\n    /// @dev Return the owner of a certain battery ID\r\n    /// @param id the ID of the battery\r\n    /// @return the address of the owner. When address(0) battery doesn't exist\r\n    function ownerOf(uint256 id) public view returns (address) {\r\n        return _batteryOwner[id];\r\n    }\r\n\r\n    /// @dev Return the details of a certain battery ID\r\n    /// @param id the ID of the battery\r\n    function getBattery(uint256 id) public view returns (bool, uint256, uint256, address) {\r\n        return (_battery[id].publicDomain, _battery[id].startTime, _battery[id].initialValue, _battery[id].privateCharger);\r\n    }\r\n\r\n    /// @dev Mints a new battery with the next Global ID\r\n    /// @param _publicDomain True when battery is public, False when private\r\n    /// @param _value Initial value of the battery\r\n    /// @return the ID of the new battery\r\n    function mintBat(bool _publicDomain, uint256 _value) public returns (uint256) {\r\n        //todos pueden aadir baterias? hacer un require para solo algunas address autorizadas?\r\n        globalId = globalId.add(1);\r\n        _batteryOwner[globalId] = msg.sender;\r\n        _battery[globalId].publicDomain = _publicDomain;\r\n        _battery[globalId].startTime = block.timestamp;\r\n        _battery[globalId].initialValue = _value;\r\n        _indexOfId[globalId] = _batteriesByOwner[msg.sender].push(globalId);\r\n        emit MintBat(_batteryOwner[globalId], globalId, _battery[globalId].publicDomain, _battery[globalId].startTime);\r\n        return globalId;\r\n    }\r\n\r\n    /// @dev The battery stops existing in the contract\r\n    /// @param id the ID of the battery\r\n    function burnBat(uint256 id) public returns (bool) {\r\n        //Si el mint lo hacen las fabricas los puntos de carga se las compran y cuando estas tengan un valor\r\n        //muuy bajo se las vuelven a vender y las fabricas hacen el burn. Si alguien hace burn antes pierde ese dinero\r\n        require(msg.sender == _batteryOwner[id], \"Only the owner can burn\");\r\n        _batteryOwner[id] = address(0);\r\n        removeFromArray(id, msg.sender);\r\n        //Devolver valor en ether a su cuenta real en Ethers????\r\n        emit BurnBat(msg.sender, id);\r\n        return true;\r\n    }\r\n\r\n    /// @dev Remove a battery of the array of batteries for an owner\r\n    /// @param _id the ID of the battery\r\n    /// @param _owner the address of the current owner\r\n    function removeFromArray (uint256 _id, address _owner) private returns (bool) {\r\n        uint256 index = _indexOfId[_id];\r\n        if (index == 0) return;\r\n\r\n        if(_batteriesByOwner[_owner].length > 1) {\r\n            _batteriesByOwner[_owner][index.sub(1)] = _batteriesByOwner[_owner][_batteriesByOwner[_owner].length.sub(1)];\r\n        }\r\n        _batteriesByOwner[_owner].length --;\r\n        return true;\r\n    }\r\n\r\n    /// @dev Propose an exchange of batteries (or token) to another address\r\n    /// @param _itemProposer ID of the battery the proposer exchanges\r\n    /// @param _itemExecuter ID of the battery the executer exchanges. Is 0 when Sell or Private Exchange\r\n    /// @param proposerChargeLevel Current level of the battery owned by the proposer (between 0-100)\r\n    /// @param executerChargeLevel Current level of the battery owned by the executer (between 0-100). Is 0 when Sell or Private Exchange\r\n    /// @param _executer the address of the executer\r\n    /// @return a bytes32 with the ID of the exchange\r\n    function proposeExchange(\r\n        uint256 _itemProposer,\r\n        uint256 _itemExecuter,\r\n        uint256 proposerChargeLevel,\r\n        uint256 executerChargeLevel,\r\n        address _executer\r\n    )\r\n        public\r\n        returns (bytes32)\r\n    {\r\n        require((msg.sender == _batteryOwner[_itemProposer] || msg.sender == _battery[_itemProposer].privateCharger), \"Wrong msg.sender\");\r\n        bytes32 _exchangeId = bytes32(keccak256(abi.encodePacked(block.timestamp, _itemProposer, _itemExecuter, msg.sender, _executer)));\r\n        _exchanges[_exchangeId].itemProposer = _itemProposer;\r\n        _exchanges[_exchangeId].proposer = msg.sender;\r\n        _exchanges[_exchangeId].executer = _executer;\r\n        if (_battery[_itemProposer].publicDomain) {\r\n            _exchanges[_exchangeId].itemExecuter = _itemExecuter;\r\n            _exchanges[_exchangeId].valueProposer = getBatValue(_itemProposer, proposerChargeLevel);\r\n            _exchanges[_exchangeId].valueExecuter = getBatValue(_itemExecuter, executerChargeLevel);\r\n        } else {\r\n            _exchanges[_exchangeId].valueProposer = CHARGEPRICE.mul(proposerChargeLevel).div(100).mul(getBatValue(_itemProposer, 100)).div(_battery[_itemProposer].initialValue);\r\n        }\r\n\r\n        if (_exchanges[_exchangeId].valueProposer <= _exchanges[_exchangeId].valueExecuter){\r\n            super.approve(_executer, _exchanges[_exchangeId].valueExecuter.sub(_exchanges[_exchangeId].valueProposer));\r\n            //redefinir aqui la funcion approve para que si expira el tiempo pierda lo aprobado\r\n            //o para no jugarsela con esto hacer que el ms caro proponga y el mas barato execute\r\n        }\r\n        _exchanges[_exchangeId].proposedTime = block.timestamp;\r\n        _exchanges[_exchangeId].proposed = true;\r\n        emit Proposal(_exchangeId, msg.sender, _executer, _itemProposer, _itemExecuter);\r\n        return _exchangeId;\r\n    }\r\n\r\n    /// @dev Execute an exchange previously proposed\r\n    /// @param _exchangeId the ID of the exchange to execute\r\n    function executeExchange(bytes32 _exchangeId) public returns (bool) {\r\n        require(_exchanges[_exchangeId].proposed, \"This exchange id does not exist\");\r\n        //meter un !executed\r\n        require(msg.sender == _exchanges[_exchangeId].executer, \"msg.sender must be the executer\");\r\n        require(block.timestamp.sub(_exchanges[_exchangeId].proposedTime) < PROPOSALTIME, \"Proposal time expired\");\r\n        if (_exchanges[_exchangeId].valueProposer >= _exchanges[_exchangeId].valueExecuter){\r\n            super.transfer(_exchanges[_exchangeId].proposer, _exchanges[_exchangeId].valueProposer.sub(_exchanges[_exchangeId].valueExecuter));\r\n        } else {\r\n            super.transferFrom(_exchanges[_exchangeId].proposer, msg.sender, _exchanges[_exchangeId].valueExecuter.sub(_exchanges[_exchangeId].valueProposer));\r\n        }\r\n        if (_battery[_exchanges[_exchangeId].itemProposer].publicDomain) {\r\n            if (_exchanges[_exchangeId].itemProposer != 0) {\r\n                removeFromArray(_exchanges[_exchangeId].itemProposer, _exchanges[_exchangeId].proposer);\r\n                _batteryOwner[_exchanges[_exchangeId].itemProposer] = msg.sender;\r\n                _indexOfId[_exchanges[_exchangeId].itemProposer] = _batteriesByOwner[msg.sender].push(_exchanges[_exchangeId].itemProposer);\r\n            }\r\n            if (_exchanges[_exchangeId].itemExecuter != 0) {\r\n                removeFromArray(_exchanges[_exchangeId].itemExecuter, msg.sender);\r\n                _batteryOwner[_exchanges[_exchangeId].itemExecuter] = _exchanges[_exchangeId].proposer;\r\n                _indexOfId[_exchanges[_exchangeId].itemExecuter] = _batteriesByOwner[_exchanges[_exchangeId].proposer].push(_exchanges[_exchangeId].itemExecuter);\r\n            }\r\n        } else if (msg.sender == _batteryOwner[_exchanges[_exchangeId].itemProposer]) {\r\n            //retirada\r\n            _battery[_exchanges[_exchangeId].itemProposer].privateCharger = address(0);\r\n        } else {\r\n            //entrega al pto carga\r\n            _battery[_exchanges[_exchangeId].itemProposer].privateCharger = msg.sender;\r\n        }\r\n        _exchanges[_exchangeId].executed = true;\r\n        emit Execution(_exchanges[_exchangeId].proposer, msg.sender, _exchanges[_exchangeId].itemProposer, _exchanges[_exchangeId].itemExecuter);\r\n    }\r\n\r\n    /// @dev Return the value of a certain battery ID with a certain level of charge.\r\n    /// @param _itemId the ID of the battery\r\n    /// @param _itemChargeLevel the current level of charge of the battery (between 0-100)\r\n    /// @return the current value of the battery\r\n    function getBatValue(uint256 _itemId, uint256 _itemChargeLevel) public view returns(uint256){\r\n        if (_itemId == 0) {\r\n            return 0;\r\n        } else {\r\n            uint256 value = _battery[_itemId].initialValue\r\n            .sub(block.timestamp.sub(_battery[_itemId].startTime))\r\n            .add(\r\n              CHARGEPRICE\r\n                .mul(_itemChargeLevel)\r\n                .div(100)\r\n                .mul(_battery[_itemId].initialValue.sub(block.timestamp.sub(_battery[_itemId].startTime)))\r\n                .div(_battery[_itemId].initialValue)\r\n            );\r\n            require((value >= 0 || value <= _battery[_itemId].initialValue.add(CHARGEPRICE)), \"Bad value\");\r\n            return value;\r\n        }\r\n\r\n    }\r\n\r\n    /// @dev Mints a certain amount of ERC20 token to the msg.sender\r\n    /// @param amount the amount of tokens to mint \r\n    function mintERC20(uint256 amount) public returns(bool){\r\n        super._mint(msg.sender, amount);\r\n        return true;\r\n    }\r\n\r\n}\r\n",
  "sourcePath": "/home/guillermo/BatteryToken/contracts/BatteryToken.sol",
  "compiler": {
    "name": "solc",
    "version": "0.4.25+commit.59dbf8f1.Emscripten.clang"
  },
  "schemaVersion": "2.0.2",
  "updatedAt": "2019-02-22T17:54:09.704Z"
}